:020000040800F2
:100000004007002089010008CD0A0008CF0A000837
:10001000D30A0008D70A0008DB0A00080000000025
:10002000000000000000000000000000DF0A0008DF
:10003000E10A000800000000E30A0008E50A0008E1
:10004000A3010008A3010008A3010008A301000800
:10005000A3010008A3010008A3010008A3010008F0
:10006000A3010008A3010008A3010008A3010008E0
:10007000A3010008A3010008A3010008A3010008D0
:10008000A3010008A3010008A3010008A3010008C0
:10009000A90E0008A3010008A3010008A30100089D
:1000A000A3010008A3010008A3010008A3010008A0
:1000B00041120008211400086B140008A301000875
:1000C000A3010008A3010008A3010008A301000880
:1000D000A3010008A3010008A3010008A301000870
:1000E000A3010008A3010008A301000800F002F822
:1000F00000F03AF80AA090E8000C82448344AAF188
:100100000107DA4501D100F02FF8AFF2090EBAE885
:100110000F0013F0010F18BFFB1A43F0010318473B
:100120007447000094470000103A24BF78C878C193
:10013000FAD8520724BF30C830C144BF04680C60ED
:10014000704700000023002400250026103A28BF35
:1001500078C1FBD8520728BF30C148BF0B60704739
:100160001FB51FBD10B510BD04F05AFB1146FFF7B7
:10017000F7FF00F071FC04F078FB03B4FFF7F2FF27
:1001800003BC04F07FFB0000094880470948004792
:10019000FEE7FEE7FEE7FEE7FEE7FEE7FEE7FEE737
:1001A000FEE7FEE704480549054A064B7047000094
:1001B00087460008ED0000084001002040070020AD
:1001C000400300204003002070B50024F848C478A4
:1001D00004F00F05F748007800F0100010282FD128
:1001E0000120F549087044F00F001F2811D1F14893
:1001F000007800F00F00A84207D00120EF490870F6
:1002000045F01000EB49087043E00020EB4908700E
:100210003FE044F00F000F283BD10020E849087070
:100220004FF40061E74803F01EF80020E6494870EB
:1002300004F00F00DF4908700120E049087028E051
:10024000DC48007800F0100010281DD144F00F00A9
:100250001F2811D10120DA490870C102D94803F0E2
:1002600004F80120D849487045F01000D1490870C1
:100270000120D24908700CE044F00F000F2808D18B
:100280000020CF49087004E0C948002101604160A6
:10029000018170BD10B50024C548C478AA2C03D1D3
:1002A0000120CA49087012E0552C0BD10020C74923
:1002B00008704FF48051C34802F0D5FF0020C249B6
:1002C000087004E0BA48002101604160018110BD5E
:1002D00010B50024B648C478AA2C0AD10120BC4924
:1002E00008700103B74802F0C0FF0120B64908704A
:1002F00012E0552C0BD10020B54908704FF4805105
:10030000B04802F0B0FF0020AF49087004E0A848F0
:10031000002101604160018110BD10B50024A44896
:10032000C478AA2C08D14FF48071AA4802F09DFF2E
:100330000120A54908710FE0552C08D14FF48071B8
:10034000A44802F090FF00209F49087104E09848FB
:10035000002101604160018110BD10B50024944866
:10036000C478AA2C0CD140219B4802F07EFF4FF4A8
:100370008041944802F077FF00209849087017E008
:10038000552C10D14021944802F06DFF20218D485A
:1003900002F04FFF60B10120904908708103894845
:1003A00002F063FF04E082480021016041600181A6
:1003B00010BD10B500247E48C478082C0CDD112C2B
:1003C0000ADA8021834802F050FF01207E494874F8
:1003D000A4F10800C4B206E080217E4802F043FF89
:1003E000002079494874012C07D14021794802F056
:1003F0003CFF01207449C87106E04021754802F0B5
:1004000032FF00207049C871022C07D108217148C1
:1004100002F02BFF01206C49087206E008216D48AC
:1004200002F021FF002068490872032C07D1012146
:10043000684802F01AFF01206349487206E0012172
:10044000644802F010FF00205F494872042C07D175
:1004500004215C4802F009FF01205B49887206E034
:100460000421584802F0FFFE002057498872052CED
:1004700007D12021574802F0F8FE01205249C872E6
:1004800006E02021534802F0EEFE00204E49C872DB
:10049000062C07D104214F4802F0E7FE01204A490B
:1004A000087306E004214B4802F0DDFE00204649B7
:1004B0000873072C07D10821424802F0D6FE01201C
:1004C0004149487306E008213E4802F0CCFE002076
:1004D0003D494873082C07D102213A4802F0C5FE75
:1004E00001203949887306E00221364802F0BBFE3C
:1004F00000203549887300F024FE2D48002101605A
:100500004160018110BD10B500242948C478AA2C8F
:100510000AD14FF400412B4802F0A7FE01202A49DE
:10052000887100F00EFE11E0552C0AD14FF4004105
:10053000244802F098FE00202349887100F001FE53
:1005400004E01B48002101604160018110BD10B52D
:1005500000241748C478AA2C09D102211D4802F0B2
:1005600084FE01201849C87300F0EBFD10E0552C03
:1005700009D10221174802F076FE00201249C87303
:1005800000F0DFFD04E00A480021016041600181C4
:1005900010BD00200649C878AA2803D10121104ABD
:1005A000117024E055281DD100210D4A11701EE064
:1005B000740000200D0000200F0000200E0000201D
:1005C0000C00002000100140B800002008000020AE
:1005D0000900002000080140000C01400600002036
:1005E00004000020DC4900220A604A600A8170474A
:1005F00010B50446002C4ED04021D84802F035FEFC
:100600000821D64802F031FE0121D44802F02DFE27
:100610000421D34802F029FE2021D04802F025FE13
:100620000421CE4802F021FE0821CD4802F01DFE33
:100630000221CB4802F019FE0221C84802F015FE43
:100640001021C64802F011FE8021C44802F00DFEC0
:100650004FF48051C24802F008FE4FF40061C048D8
:1006600002F003FE4021BF4802F0FFFD4FF480611D
:10067000BB4802F0FAFD4FF48041B94802F0F5FDA5
:100680004FF48071B54802F0F0FD4FF40041B448DA
:1006900002F0EBFD54E04021B04802F0E4FD0821F7
:1006A000AE4802F0E0FD0121AC4802F0DCFD04217F
:1006B000AB4802F0D8FD2021A84802F0D4FD042167
:1006C000A64802F0D0FD0821A54802F0CCFD022189
:1006D000A34802F0C8FD0221A04802F0C4FD102189
:1006E0009E4802F0C0FD80219C4802F0BCFD4FF402
:1006F00080519B4802F0B7FD4FF40061984802F02A
:10070000B2FD4FF48061964802F0ADFD402195485E
:1007100002F0A9FD4FF48041914802F0A4FD4FF48E
:1007200080718E4802F09FFD4FF400418C4802F02A
:100730009AFD00208C4908708C4908708C4908701B
:1007400010BD10B51021864802F073FD894908706C
:100750002021834802F06DFD8649487001218148BF
:1007600002F067FD8349887010BD10B510217C48E8
:1007700002F05FFD18B1AA207F49087002E0552001
:100780007D49087015207D49087001217A4800F0E4
:10079000D8F910BD10B52021714802F04AFD18B1FA
:1007A000AA207549087002E0552073490870162088
:1007B000724908700121704800F0C3F910BD10B5EE
:1007C0000121684802F035FD18B1AA206A49087075
:1007D00002E0552068490870172068490870012117
:1007E000654800F0AEF910BD10B5112062490870DF
:1007F000002048701A206149087002215E4800F00C
:10080000A0F910BD10B50446112C51D2DFE804F058
:10081000090D1115191D2125292D31353C4044485C
:100820004C0000205449087048E0012052490870EB
:1008300044E002205049087040E003204E4908700F
:100840003CE009204C49087038E004204A4908700F
:1008500034E005204849087030E006204649087019
:100860002CE00A204449087028E00720424908701B
:1008700024E008204049087020E00F203E4908701D
:1008800001203F49087019E00B203B49087015E032
:100890000C203949087011E00D20374908700DE02F
:1008A0000E203549087009E010203349087005E032
:1008B0002948002101604160018100BF00BF19206B
:1008C0002E49087001212C4800F03BF910BD10B5ED
:1008D0002C48007818B101202749087002E0002058
:1008E000254908701B20254908700121224800F085
:1008F00028F910BD10B5044602F0E9F8224802F0CC
:100900002BF92146204802F02AFA02F0ECF81E48A2
:1009100000781E49087010BD10B50B46002103E099
:1009200010F8014B5C54491C9142F9DB10BD10B525
:10093000002400BF0BE0C82C04D20121084802F0BB
:1009400092FC03E00121064802F08FFC641CB4F520
:10095000C87FF0D310BD00007400002000080140E3
:1009600000100140000C014006000020090000209A
:1009700008000020000000207E0000200B00002066
:10098000040000200C00002000F8010812000020E4
:10099000014606E0002000E0401C44F6F8229042A8
:1009A000FAD30A1EA1F10101F4D1704710B545F246
:1009B000555002F0F9FC042002F0F9FC40F2E2404C
:1009C00002F0F8FC02F0F9FC02F0FCFC10BD1FB5CF
:1009D00000208DF80A008DF80B0001208DF80C0026
:1009E0000020ADF80000ADF8020046F6FF70ADF84B
:1009F00004004FF6FF70ADF806000020ADF80800C7
:100A000001208DF80D00684601F0EDFB01208DF806
:100A10000A0000208DF80B0001208DF80C006020EA
:100A2000ADF800000020ADF8020046F6FF70ADF80A
:100A300004004FF6FF70ADF806000020ADF8080086
:100A400001208DF80D00684601F0CDFB0122022146
:100A5000194801F0C7FE1FBD03F015FE01F034F97F
:100A600000F0FEFF4021154802F0FFFB01F07AF98B
:100A700000F03AF8FFF7ABFF6420FFF789FF4FF46F
:100A80007A70FFF785FF00F073FA13E00C480078E6
:100A900020B100F093F90020094908700948007856
:100AA00030B109480078FFF725FF0020054908709C
:100AB00000F093FFEAE7000000640040000C0140F2
:100AC000050000200E0000200D000020704700BF30
:100AD000FEE700BFFEE700BFFEE700BFFEE770478E
:100AE00070477047704700000EB5FE4801F0D8FA15
:100AF000684601F0F9FB00208DF8060001208DF812
:100B0000070000208DF808008DF809008DF80A0014
:100B10008DF80B008DF802008DF8030005208DF88C
:100B2000040000208DF805000920ADF8000069469A
:100B3000EC4801F0CEFA01220221EA4801F052FE0F
:100B40000EBD2DE9F04185B002460023002083262A
:100B5000E54F3F78153F072F30D2DFE807F0040A52
:100B600010161C2228001527DFF880C3ACF800708F
:100B700025E01627DFF874C3ACF800701FE01727D4
:100B8000DFF868C3ACF8007019E01827DFF85CC321
:100B9000ACF8007013E01927DFF850C3ACF8007010
:100BA0000DE01A27DFF844C3ACF8007007E040F20C
:100BB0005517DFF838C3ACF8007000E000BF00BF85
:100BC000CA4F3F883C0AC94F3F88FDB200960027B4
:100BD0008DF808708DF8097008291FDC00291DDDCB
:100BE000CF1CFFB28DF80A7000278DF80B7005F04E
:100BF000FF0C8DF80CC004F0FF0C8DF80DC0002325
:100C000009E012F8018B0DF10B0703F1030C07F853
:100C10000C805F1CBBB28B42F3DB02E000278DF837
:100C20000A7005B0BDE8F0812DE9F04786B00446B2
:100C30000025AA46AE48007800287DD14FF08309F0
:100C4000A94800781538072822D2DFE800F0040808
:100C50000C1014181C001520A449088019E0162057
:100C6000A249088015E01720A049088011E018204B
:100C70009E4908800DE019209C49088009E01A204F
:100C80009A49088005E040F255109849088000E034
:100C900000BF00BF95480088070A9448008800F00C
:100CA000FF08CDF8049000208DF80C008DF80D00A1
:100CB00008208DF80E0001208DF80F008DF81080AF
:100CC0008DF8117014F8011B8DF8121014F8011B27
:100CD0008DF8131014F8011B8DF8141014F8011B73
:100CE0008DF8151014F8011B8DF8161001A97D4818
:100CF00001F068FB064604E001A97A4801F062FBB6
:100D00000646042EF8D001E0681C85B231467548CD
:100D100001F0F0FB012802D0B5F5FA6FF4DBB5F570
:100D2000FA6F05D131466F4801F029FC4FF0010AF6
:100D300008208DF80E0000E03CE003208DF80F0045
:100D40008DF810808DF8117014F8011B8DF81210B9
:100D500014F8011B8DF8131014F8011B8DF81410F2
:100D600014F8011B8DF8151014F8011B8DF81610DE
:100D700001A95C4801F026FB064604E001A9594898
:100D800001F020FB0646042EF8D001E0681C85B275
:100D90003146544801F0AEFB012802D0B5F5FA6F98
:100DA000F4DBB5F5FA6F05D131464E4801F0E7FBAB
:100DB0004FF0010A504606B0BDE8F087F0B585B0A7
:100DC0000024002640F28347009700208DF8080099
:100DD0008DF809008DF80A006946424801F0F2FAE0
:100DE000054601E0601C84B229463E4801F082FBC2
:100DF000012802D0B4F5FA6FF4DBB4F5FA6F04D130
:100E00002946384801F0BBFB0126304605B0F0BD4D
:100E10002DE9F04105460E46002406E005F10B00E1
:100E2000005D34490855601CC4B2B442F6DB314859
:100E300040783049897840EA0127B7F5A27F1ED073
:100E400009DC0B2F0FD0A7F2411078B1012810D088
:100E5000022820D110E0A7F2471098B1012814D041
:100E6000022818D114E0FFF7AFF91AE0FFF712FAE1
:100E700017E0FFF72DFA14E0FFF74FFA11E0FFF744
:100E80006CFA0EE0FFF795FA0BE0FFF73CFB08E089
:100E9000FFF75DFB05E0174800210160416001811B
:100EA00000BF00BFBDE8F08110B586B00020019002
:100EB00002908DF80C008DF80E008DF817000024BC
:100EC00008E000210DF10F00015500200A490855E6
:100ED000601CC4B2082CF4DB01AA0021014801F017
:100EE00066FB0BE0006400400B0000201C000020AB
:100EF0001E0000207400002014000020002406E0E2
:100F00000DF10F00005D16490855601CC4B29DF834
:100F10000E00A042F4DC9DF80C00F0B99DF80E0024
:100F2000002804DD9DF80E1001A8FFF771FF9DF861
:100F30000E0090B90B48007808B1FFF755FC00206F
:100F4000084908700848007808B9012000E000202E
:100F5000054908700C200549087006B010BD000056
:100F6000140000201E000020440000201F0000206C
:100F70000EB54FF0804002F009FCC720ADF8040028
:100F800048F69F40ADF800000020ADF80600ADF82F
:100F9000020069464FF0804002F0CCFC0121880736
:100FA00003F0EAFA01221146900703F03AF8012112
:100FB000880703F01BF8FE4802F0E8FBC720ADF8F5
:100FC00004002320ADF800000020ADF80600ADF8C5
:100FD00002006946F64802F0ADFC0121F44803F036
:100FE000CBFA01221146F24803F01BF80121F04828
:100FF00002F0FCFFEF4802F0C9FB1320ADF804003B
:1010000048F69F40ADF800000020ADF80600ADF8AE
:1010100002006946E74802F08DFC0121E54803F033
:10102000ABFA01221146E34802F0FBFF0121E1483F
:1010300002F0DCFF0EBD10B5DF48007820B1802142
:10104000DE4802F012F903E08021DC4802F00BF9DF
:10105000D948407820B11021D84802F006F903E0C1
:101060001021D64802F0FFF8D348807820B1022141
:10107000D24802F0FAF803E00221D04802F0F3F877
:10108000CD48C07820B14021CC4802F0EEF803E012
:101090004021CA4802F0E7F8C748007920B108218A
:1010A000C64802F0E2F803E00821C44802F0DBF889
:1010B000C148407920B10121C04802F0D6F803E0D0
:1010C0000121BE4802F0CFF8BB48807920B104214D
:1010D000BB4802F0CAF803E00421B94802F0C3F8A3
:1010E000B548C07920B12021B44802F0BEF803E031
:1010F0002021B24802F0B7F8AF48007A20B10421AD
:10110000AE4802F0B2F803E00421AC4802F0ABF8BC
:10111000A948407A20B10821A94802F0A6F803E0C6
:101120000821A74802F09FF8A348807A20B1022145
:10113000A34802F09AF803E00221A14802F093F8D4
:1011400010BDA048407C9C4908709E48007C4870B7
:101150009C48C07B88709B48C079C8709948007AC9
:1011600008719848407A48719648807A8871954805
:10117000C07AC8719348007B08729248407B4872DD
:101180009048807B8872704710B58E48007828B1EF
:101190004FF480518A4802F068F804E04FF480511F
:1011A000874802F060F88748807828B14FF4806162
:1011B000834802F05AF804E04FF48061804802F05E
:1011C00052F88048C07820B140217F4802F04DF8A5
:1011D00003E040217C4802F046F87A48007928B1C3
:1011E0004FF48071754802F040F804E04FF48071CC
:1011F000724802F038F87348807928B14FF4004102
:101200006F4802F032F804E04FF400416C4802F0FD
:101210002AF86C48407928B14FF48041684802F0C0
:1012200024F804E04FF48041654802F01CF810BD3A
:1012300010B5FFF7A9FFFFF784FFFFF7FCFE10BD15
:1012400010B50121880703F09AF900286FD0012119
:10125000880703F0A5F95D480078C8280FDA5B48D5
:1012600000780A2805D10020584908700120584903
:10127000087056480078401C5449087002E000206D
:10128000524908705348007880B1002052490870D4
:10129000FFF7AEF912214B4803F076FAFFF751FF42
:1012A00000204E4908704E49087045E04C480078CF
:1012B000B0B9FFF75AFAFFF76DFAFFF780FAFFF7B8
:1012C00093FA00F08DFD00F024FE04461CB9611E67
:1012D000C8B2FFF797FA00204249087042490860F7
:1012E00001203F4908704148007810B94048007813
:1012F000F0B10120FFF77CF93E4800781E2804DA9F
:101300003C480078401C3B4908703A4800781E2849
:1013100011D13748007870B9002034490870FFF7C0
:1013200067F9002033490870FFF782FF03E076E099
:1013300000203049087000BF2F48007810B9012004
:10134000244908702C480078401E2B490870234817
:101350000078D0B129480078401C28490870084618
:101360000078032804DA0121114802F03FFE13E05F
:10137000224800781E2804DA00210D4802F036FECB
:101380000AE000201D49087006E00021084802F02C
:101390002DFE0020194908701948007801283EDD0B
:1013A0000121034802F022FE15480078042829E0B4
:1013B0000004004000080040CA000020000801406E
:1013C00000100140B8000020000C01402100002066
:1013D000050000201E0000200F0000200600002055
:1013E000430000200C0000202C00002004000020FE
:1013F00047000020220000201F00002024000020C1
:101400004600002006D10021FE4802F0EFFD00203A
:10141000FD490870FC480078401CFB49087010BD6D
:1014200010B50121F74803F0AAF8E8B10121F54809
:1014300003F0B6F8F5480078401CF44908700846F7
:101440000078032804DA0121F14801F00EFF0BE0D7
:10145000EE480078062804DA0121ED4801F005FF86
:1014600002E00020E949087010BD10B50121E948EB
:1014700003F085F800287DD00121E64803F090F8BC
:10148000E548006870BBE5480078E5490870084603
:10149000007800F01000102814D1E248007808BB52
:1014A0000120E0490870DC490860DD480078DE4929
:1014B00008704FF40061D64801F0D5FE0120DB49E9
:1014C00048700FE00120D4490860D948007820B95D
:1014D0004FF40061CE4801F0C6FE0020D3494870A9
:1014E000D0490870CC480068D24988427ED2102189
:1014F000C74801F09EFED049087008460078CF49E1
:101500000978884202D00120CD490870CD48007882
:10151000C8B1C9480078CC49097888420DD110215A
:10152000BB4801F086FEC54908700020C449087018
:10153000C4490870FFF719F90FE00020C04908708E
:10154000C049087009E0BE48007830B1BA48007858
:10155000BD4908700120BB490870BC48007810B133
:101560000020BB490870AF480078002876D000F012
:1015700037FC00E030E2B7480088C0F30A0040F2D0
:10158000FF71884246D0B448007800283DD1012040
:10159000B249087000F0BDFCB149087008460078F7
:1015A000002832D0AA48007818B99C4800789C4995
:1015B0000870AC48007848B30120A74908700020A3
:1015C000A8490870A2480078401CA1490870A648A4
:1015D000007810B90120A5490870A1480078401E84
:1015E000A3490870FFF7ADFDA24800E0C6E1A0499D
:1015F0000978405C08B9012000E000209D499C4A20
:101600001278885402208049087091E101209549A0
:1016100008708DE1904800780028F6D09648007850
:10162000F0B300208C4908708D480078401E904926
:10163000087090480978405C08B9012100E0002159
:101640008C488B4A1278815400206F490870874873
:10165000007820B101208449087003E031E00020C7
:101660008149087000208449087079480078C0F1E9
:1016700004016B480078084100F001007C490978BA
:10168000884202D00020724908707148007804280E
:10169000BBD100206349087001205F49086000E069
:1016A0000BE000206D4908704FF40061584801F0CC
:1016B000DAFD0020664908703AE101206E490870A1
:1016C00036E12021524801F0B4FD5B494870012108
:1016D0006A4801F0AEFD58498870694800780428CE
:1016E00058DA084666490978405C5449644A1278D9
:1016F000895C884205D0012047490860614908702B
:1017000004E05F480078401C5D4908705E4800783E
:1017100090B349485A490978405C5C490978884245
:1017200024D1454856490978405C4449544A1278C6
:101730008854002053490870534908705048007875
:10174000012804D0022805D0032807D105E0FFF7BF
:1017500021F804E0FFF733F801E000E000BF00BF2C
:1017600047480078401C4649087016E0002045496B
:1017700008704549087010E0FFE74248007860B102
:101780002D483F490978405C4049087001203E4996
:10179000087002E001203A49087000F021FB2D4852
:1017A00000780F282DD001201B4908602A480078B6
:1017B00000286DD100F0ADFB29490870084600787B
:1017C000002865D027480078C8B101202249087058
:1017D0000020244908702448007810B901202349CA
:1017E00008701F480078401E21490870FFF7A9FCC7
:1017F00020481F490978405C10B901214AE05CE0AB
:1018000047E05EE000040040460000202700002082
:1018100000100140000800402C00002000F80108E2
:101820003B0000200C0000200D000020B80000202C
:1018300004000020915F0100300000200000002023
:101840003600002035000020410000200E0000205E
:1018500039000020480000203F0000202500002023
:101860003D0000203C000020260000201300002046
:101870003E000020CA0000203A000020000C014079
:1018800034000020370000203800002042000020F3
:101890004AE000215F48604A127881545E4800782F
:1018A000FEF7B0FF5C4800780B2802D101205B49AD
:1018B000087002205A4908703AE00120594908701E
:1018C00036E05948007878B35848007868B300206B
:1018D0005549087056480078401E4F490870084620
:1018E00000780B2802D100204C49087000204F4995
:1018F00008705048007818B101204F49087002E084
:1019000000204D490870434843490978405C08B9B4
:10191000012000E000203F493F4A127888541020FF
:10192000FEF770FFFFF70DFC02E001203F49087051
:1019300042480068401C4149086041480078C8B1ED
:101940000846006841F27071884213D03B48006835
:101950001421B0FBF1F201FB120028B94FF4006131
:10196000384801F082FC2DE04FF40061354801F069
:101970007AFC27E000203249087023E032480078E2
:1019800040F00F001F2813D13048007880B1304854
:10199000007848B901202E49087028490860C10222
:1019A000284801F062FC0DE001202449086009E0AC
:1019B000012022490860C102224801F054FC0020A5
:1019C000234908702348007830B91448007818B9C2
:1019D000FFF731FBFFF7D8FB10BD10B51E480078AC
:1019E00020B104211D4801F03EFC03E004211B4806
:1019F00001F03BFC1648007828B14FF40061114813
:101A000001F033FC04E04FF400610E4801F02BFCC0
:101A100010BD0000CA0000203E000020470000204A
:101A2000460000203C0000203F0000203A0000203B
:101A30003D00002013000020260000202C00002084
:101A400025000020001001400D0000200F000020A4
:101A50000C0000200400002044000020001401407D
:101A600008B54FF6FF70ADF8000003208DF80200B6
:101A700004208DF8030069468F4801F047FB4FF6BC
:101A8000FF70ADF8000003208DF8020004208DF8EF
:101A900003006946894801F039FB4FF6FF70ADF845
:101AA000000003208DF8020004208DF80300694631
:101AB000834801F02BFB4FF6FF70ADF800000320C8
:101AC0008DF8020004208DF8030069467D4801F07E
:101AD0001DFB4FF60240ADF8000003208DF8020018
:101AE00048208DF803006946744801F00FFB4FF45D
:101AF0007070ADF8000003208DF8020048208DF8CA
:101B0000030069466E4801F001FB4FF602416B4845
:101B100001F0A9FB4FF47071694801F0A4FBFF20AC
:101B2000ADF8000003208DF8020010208DF80300AE
:101B30006946614801F0EAFA0E20ADF80000032082
:101B40008DF8020010208DF8030069465C4801F012
:101B5000DDFAFF21584801F086FB0E21584801F0BC
:101B600082FB4FF48070ADF8000003208DF8020076
:101B700010208DF8030069464F4801F0C7FA4FF472
:101B80004040ADF8000003208DF8020010208DF8D1
:101B9000030069464A4801F0B9FA4FF4807146489B
:101BA00001F061FB4FF44041454801F05CFB4020EF
:101BB000ADF8000003208DF8020010208DF803001E
:101BC00069463E4801F0A2FA4FF4E050ADF800003B
:101BD00003208DF8020010208DF803006946384874
:101BE00001F094FA0420ADF8000003208DF8020003
:101BF00010208DF803006946324801F087FA402131
:101C00002E4801F030FB4FF4E0512D4801F02BFB42
:101C100004212C4801F027FB0120ADF8000003202F
:101C20008DF8020048208DF803006946234801F032
:101C30006DFA3020ADF8000003208DF80200482036
:101C40008DF8030069461E4801F060FA01211B4827
:101C500001F009FB30211A4801F005FB0120ADF825
:101C6000000003208DF8020010208DF80300694663
:101C7000134801F04BFA0121114801F0F6FA4FF434
:101C80000060ADF8000003208DF8020048208DF8B8
:101C900003006946084801F039FA4FF48050ADF866
:101CA000000003208DF8020018208DF8030069461B
:101CB000014801F02BFA08BD00080140000C01406A
:101CC000001001400014014010B501F08DFB4FF4ED
:101CD000803001F0A9FB01F0E6FB0446012C28D17D
:101CE000002001F026FCA00201F02CFC002001F0F5
:101CF00032FC4FF4404001F049FC022000F0C8FEE5
:101D0000102000F0D9FE4FF4E011200401F0F4FBA4
:101D1000012001F0FDFB00BF392001F0A8FB0028E5
:101D2000FAD0022001F0F7FB00BF01F0FDFB08280C
:101D3000FBD101213C2001F0C5FC0121480601F046
:101D4000CEFC0121C80201F0BDFC0121084601F0D2
:101D5000C6FC0121022001F0C2FC0121042001F097
:101D6000BEFC10BD08B54FF4A06000F02BF91420A4
:101D70008DF8000003208DF8010001208DF802008D
:101D80008DF80300684600F022F91C208DF8000051
:101D900000208DF8010001208DF802008DF803006D
:101DA000684600F014F91D208DF8000001208DF820
:101DB00001008DF802008DF80300684600F007F975
:101DC0001E208DF8000002208DF8010001208DF802
:101DD00002008DF80300684600F0F9F808BD000025
:101DE00010B50020734908800221734801F021FAE0
:101DF000724908704FF480616F4801F01AFA6F4918
:101E000048704FF400616C4801F013FA6B49887018
:101E10004FF48051684801F00CFA6849C8704FF4DB
:101E20000051654801F005FA644908714FF480419A
:101E3000614801F0FEF9614948714FF400415E4884
:101E400001F0F7F95D49887140215D4801F0F1F931
:101E50005A49C87180215A4801F0EBF95749087274
:101E60004FF48071564801F0E4F9544948724FF438
:101E70000071534801F0DDF9504988720846007836
:101E80004C4908804D484078098841EA400049495A
:101E900008804A488078098841EA800045490880DE
:101EA0004648C078098841EAC00042490880434852
:101EB0000079098841EA00103E4908803F4840798E
:101EC000098841EA40103B4908803C4880790988EC
:101ED00041EA8010374908803848C079098841EACA
:101EE000C010344908803548007A098841EA00204A
:101EF000304908803148407A098841EA40202D491C
:101F000008802E48807A098841EA80202949088083
:101F100010BD10B50024FFF763FF26480088C0F30A
:101F20000A0040F2FF71884241D0FFF759FF214873
:101F30000088C0F30A0040F2DF72811A904229D073
:101F400012DC40F2FF62A0EB0201904228D006DCD6
:101F5000A0F2FF3040B3B0F5007F27D122E0802906
:101F60001CD0C02922D117E01C290DD004DC102977
:101F70000ED018291AD109E01E2903D01F2915D126
:101F8000012413E0022411E003240FE004240DE0F7
:101F900005240BE0062409E0072407E0082405E0F7
:101FA000092403E00A2401E00B2400BF00BF2046FF
:101FB00010BD000048000020000C0140D5000020AA
:101FC0000010014031490143314A1160704770B53A
:101FD000002100230F22C47804B32D4C246804F49C
:101FE000E064C4F5E064210AC1F10403CA40447806
:101FF00004FA03F18478144021430901254C067842
:10200000A155047804F01F050124AC4005786D113A
:10201000AD0005F1E025C5F8004109E0047804F0C1
:102020001F050124AC401C4D0678761145F826406A
:1020300070BD1A4A0A400243154B1B1F1A607047B5
:1020400039B1134A121D12680243114B1B1D1A604D
:1020500006E00F4A121D126882430D4B1B1D1A60C9
:102060007047042808D14FF0E021096941F00401CC
:102070004FF0E022116107E04FF0E021096921F003
:1020800004014FF0E0221161704700000000FA05E2
:102090000CED00E000E400E080E100E080FFFF1FC5
:1020A00010B50446FE48844209D10121480601F0DA
:1020B00030FB00214FF0007001F02BFB08E0012104
:1020C000880601F026FB00214FF0806001F021FB23
:1020D00010BD30B5024600200023146824F002042D
:1020E0001460146844F00104146000E05B1C546840
:1020F00004F001041CB94FF6FF74A342F6D15468F2
:1021000004F001040CB900206CE08C79012C04D19E
:10211000146844F08004146003E0146824F0800420
:102120001460CC79012C04D1146844F0400414608C
:1021300003E0146824F0400414600C7A012C04D1EC
:10214000146844F02004146003E0146824F02004B0
:1021500014604C7A012C04D1146844F0100414600B
:1021600003E0146824F0100414608C7A012C04D16C
:10217000146844F00804146003E0146824F00804B0
:102180001460CC7A012C04D1146844F00404146067
:1021900003E0146824F0040414608C78A407CD785C
:1021A00044EA05640D7944EA05444D7944EA05544E
:1021B0000D886D1E2C43D461146824F00104146052
:1021C000002300E05B1C546804F001041CB14FF6CE
:1021D000FF74A342F6D1546804F001040CB100204E
:1021E00000E0012030BD10B50021837A012202FAFF
:1021F00003F1AC4A126842F00102AA4B1A60A94AE4
:102200001C3212688A43A74B1C331A60027BCAB97E
:10221000A44A0C3212688A43A24B0C331A604288DB
:10222000C38842EA03439F4A4032847A42F83430FA
:102230000288838842EA03439A4A4032847A02EB56
:10224000C4025360027B012A19D1964A0C321268EB
:102250000A43944B0C331A604288038842EA0343D2
:10226000904A4032847A42F83430C288838842EA05
:1022700003438C4A4032847A02EBC4025360C27A30
:102280003AB9884A121D12688A43864B1B1D1A6090
:1022900006E0844A121D12680A43824B1B1D1A6015
:1022A000028932B97F4A143212688A437D4B143353
:1022B0001A600289012A06D17A4A143212680A4346
:1022C000784B14331A60427B012A06D1754A1C32BE
:1022D00012680A43734B1C331A60724A126822F068
:1022E0000102704B1A6010BD00218171C171017231
:1022F00041728172C1728170C1700321017102212A
:1023000041710121018070476649096841F001016E
:10231000644A11601146096843F60E729143614A9E
:1023200011601146096841EA0021116011460968EF
:1023300021F001011160704721B1026842F480323E
:10234000026003E0026822F4803202607047E1B16B
:10235000026842F0800202604FF4C272125842F4E6
:1023600080734FF4C27213504FF4CA72125842F481
:1023700080734FF4CA7213504FF4D272125842F461
:1023800080734FF4D27213501BE0026822F0800277
:1023900002604FF4C272125822F480734FF4C2727A
:1023A00013504FF4CA72125822F480734FF4CA7259
:1023B00013504FF4D272125822F480734FF4D27239
:1023C0001350704710B502460020936803F08063F5
:1023D000B3F1806F00D110E0936803F00063B3F1B4
:1023E000006F01D1012008E0936803F08053B3F13E
:1023F000805F01D1022000E00420042879D002F59A
:10240000C07303EB00131B6803F0010402F5C073F3
:1024100003EB00131C600B7A7BB94B7A0C8843EA00
:10242000445302F5C07404EB00142468234302F5FE
:10243000C07404EB0014236010E00B7A4C6843EA8C
:10244000C4034C7A234302F5C07404EB00142468DF
:10245000234302F5C07404EB001423608B7A03F06D
:102460000F038B7202F5C07303EB00135B6823F05C
:102470000F0402F5C07303EB00135C6002F5C07338
:1024800003EB00135B688C7A234302F5C07404EB02
:10249000001463608B7B1C064B7B44EA034403E01F
:1024A00000640040006600400B7B44EA0323CC7AC2
:1024B000234302F5C07404EB0014A3608B7C1C065C
:1024C0004B7C44EA03440B7C44EA0323CC7B234348
:1024D00002F5C07404EB0014E36002F5C07303EB73
:1024E00000131B6843F0010402F5C07303EB0013F3
:1024F0001C6010BD10B50246002321B1012907D090
:1025000002290FD109E09068F94C00EA04030BE0BE
:102510009068F84C00EA040306E09068F64C00EA84
:10252000040301E0002300BF00BFF44C181BA342CA
:1025300016D007DC83B16FF08060184470B10228B8
:1025400018D111E0B0F5007F10D0ED4C204448B117
:10255000B0F5003F0ED10BE002230DE000230BE0AD
:10256000002309E0002307E0012305E0012303E045
:10257000012301E0002300BF00BFD8B210BD21B18C
:10258000012907D002290FD109E0826842F08002B8
:1025900082600AE0826842F40042826005E082685C
:1025A00042F40002826000E000BF00BF704710B537
:1025B00000F5D87303EB01131B6803F004031372D7
:1025C000137A53B900F5D87303EB01131B6840F27B
:1025D000FF7404EA5353136009E000F5D87303EB6A
:1025E00001131B686FF0604404EAD303536000F5E5
:1025F000D87303EB01131B6803F00203537200F559
:10260000D87303EB01135B6803F00F03937200F5BB
:10261000D87303EB01135B681B0AD37400F5D873FE
:1026200003EB01139B68D37200F5D87303EB01131E
:102630009B681C0A147300F5D87303EB01139B68A5
:102640001C0C547300F5D87303EB01139B681B0E2D
:10265000937300F5D87303EB0113DB68D37300F5B4
:10266000D87303EB0113DB681C0A147400F5D873EC
:1026700003EB0113DB681C0C547400F5D87303EBF7
:102680000113DB681B0E937421B9C36843F0200368
:10269000C36003E0036943F02003036110BD21B967
:1026A000C26842F02002C26003E0026942F02002E8
:1026B000026170470246002019B9D36803F0030095
:1026C00006E0012903D1136903F0030000E00020B4
:1026D000704710B502460B4600204FF6FF71BBB99C
:1026E000146824F0020444F00104146000E0491E60
:1026F000546804F00304012C01D00029F7D1546878
:1027000004F00304012C01D0002032E0012030E06D
:10271000012B13D1146824F00304146000E0491E57
:10272000546804F003040CB10029F8D1546804F093
:1027300003040CB100201CE001201AE0022B17D189
:10274000146824F0010444F00204146000E0491EFF
:10275000546804F00304022C01D00029F7D1546816
:1027600004F00304022C01D0002002E0012000E06C
:10277000002010BD014600200A6822F0010242F04C
:1027800002020A604A6802F00302022A00D1012014
:10279000704701464FF6FF7200200B6823F00203DA
:1027A0000B6000E0521E4B6803F00203022B01D1C4
:1027B000002AF7D14B6803F00203022B00D001205E
:1027C0007047014600208A6902F070007047014698
:1027D00000208A69100E7047014600208A69C2F302
:1027E000074070471AB143690B43436102E04369F4
:1027F0008B434361704710B50246002001F470031B
:1028000043B19369C1F3130423400BB101202DE0C0
:1028100000202BE001F0807343B15368C1F313042F
:1028200023400BB1012021E000201FE001F00063F4
:1028300043B19368C1F3130423400BB1012015E0A9
:10284000002013E001F0007343B1D368C1F3130417
:1028500023400BB1012009E0002007E01369C1F318
:10286000130423400BB1012000E0002010BD002222
:10287000244B994202D10023836111E0C1F313027A
:1028800001F000730BB1C2600AE001F080630BB18C
:10289000026105E001F000630BB1826000E042607C
:1028A00070470246002002EA01030BB1012000E05C
:1028B0000020704770B504460D4600266069284028
:1028C000002872D0B5F5807F69D01DDC082D42D07C
:1028D00006DC012D2DD0022D31D0042D7FD134E026
:1028E000102D3ED0202D42D0402D78D145E0000063
:1028F00003000004000300080000031000010008AA
:102900000001FFF77000F030B5F5004F61D009DC31
:10291000B5F5007F4AD0B5F5806F4DD0B5F5006FA5
:102920005DD150E0B5F5803F2DD0B5F5003F56D1D3
:102930002FE0A0685549FFF7B4FF064651E0E06874
:102940000321FFF7AEFF06464BE0E0680821FFF7E2
:10295000A8FF064645E0E0681021FFF7A2FF064603
:102960003FE020690321FFF79CFF064639E020691C
:102970000821FFF796FF064633E020691021FFF794
:1029800090FF06462DE060680821FFF78AFF0646A3
:1029900027E060681021FFF784FF064621E0A06968
:1029A0000121FFF77EFF06461BE01BE0A069022124
:1029B000FFF777FF064614E0A0690421FFF771FFD7
:1029C00006460EE00BE0A0697021FFF76AFF06469D
:1029D00007E060680421FFF764FF064601E0002677
:1029E00000BF00E00026304670BDB1F5007F3AD050
:1029F0000FDC202928D006DC01291CD004291DD099
:102A0000082940D11DE0402921D0B1F5807F3AD17D
:102A100026E0B1F5004F31D006DCB1F5806F25D04E
:102A2000B1F5006F2FD124E0B1F5803F12D0B1F5A0
:102A3000003F28D111E0154A826025E00822C260DB
:102A400022E01022C2601FE0082202611CE0102276
:102A5000026119E00822426016E01022426013E091
:102A60000422426010E0042242600DE00422426031
:102A70000AE0002282610422426005E000228261B5
:102A80000422426000E000BF00BF70470101010066
:102A900001460020FE4A106800F03800084310602C
:102AA0007047FB49096821F00801F94A1160114695
:102AB0000968014311607047F549096821F0100168
:102AC000F34A116011460968014311607047F148EB
:102AD000EF494860F04848607047EE48EC4948606C
:102AE000ED4848607047EA48006940F08000E849D6
:102AF00008617047E648006940F08000E4490861D9
:102B000070470420E249C96801F0010109B10120C0
:102B10000EE0DF49C96801F0040109B1022007E0B5
:102B2000DB49C96801F0100109B1032000E004206D
:102B3000704700B502460423FFF7E3FF034603E0B6
:102B4000FFF7DFFF0346521E012B01D1002AF7D108
:102B500002B90523184600BD30B5044604254FF4DC
:102B60003020FFF7E6FF0546042D17D1C84800695D
:102B700040F00200C649086108464461006940F01F
:102B8000400008614FF43020FFF7D3FF0546C048EE
:102B9000006941F6FD710840BD490861284630BD15
:102BA00010B504244FF43020FFF7C3FF0446042C73
:102BB00016D1B748006940F00400B54908610846DD
:102BC000006940F0400008614FF43020FFF7B1FF8A
:102BD0000446AF48006941F6FB710840AC49086102
:102BE000204610BD00B502460423FFF78AFF0346C6
:102BF00003E0FFF786FF0346521E012B01D1002A96
:102C0000F7D102B90523184600BD10B504244FF4CE
:102C10003020FFF7E7FF0446042C16D19C480069DA
:102C200040F004009A4908610846006940F04000FD
:102C300008614FF43020FFF7D5FF0446944800693F
:102C400041F6FB71084092490861204610BD002002
:102C50008F49C96901F0020109B1012000E000209B
:102C6000704730B5A5250424FFF7F1FF00B100251A
:102C70004FF43020FFF75DFF0446042C3AD185481D
:102C800083498860844888600846006940F02000D5
:102C900008610846006940F0400008614FF43020A8
:102CA000FFF747FF0446042C1BD17948006941F621
:102CB000DF710840764908610846006940F010005D
:102CC000086176480580E002FFF733FF0446052CD3
:102CD00010D06F48006941F6EF7108406C490861F7
:102CE00008E0052C06D06A48006941F6EF710840FB
:102CF00067490861204630BD78B506460C46042574
:102D000000200090E802FFF714FF0546042D24D1AF
:102D10005F48006940F001005D4908613480E802C5
:102D2000FFF707FF0546042D10D1B01C0090200CC2
:102D300000990880E802FFF7FCFE05465448006948
:102D400041F6FE7108405249086106E050480069AA
:102D500041F6FE7108404E490861284678BD70B5BD
:102D600004460D460426F002FFF7E3FE0646042E55
:102D700011D14748006940F00100454908612580AC
:102D8000F002FFF7D6FE06464148006941F6FE71A3
:102D900008403F490861304670BD70B505460E4693
:102DA0000424E002FFF7C5FE0446042C17D139487D
:102DB00037498860384888600846006940F010004C
:102DC00008612E80E002FFF7B4FE0446052C06D011
:102DD0002F48006941F6EF7108402D4908612046EF
:102DE00070BD2DE9F04304464FF6FF763746B046F6
:102DF000B1460425E443E6B2C4F30727C4F3074809
:102E00004FEA1469E802FFF794FE0546042D49D104
:102E100020481F498860204888600846006940F0C3
:102E200010000861FF2E06D01C4808300680E8021A
:102E3000FFF77FFE0546042D08D1FF2F06D0174867
:102E40000A300780E802FFF774FE0546042D0AD118
:102E5000B8F1FF0F07D011480C30A0F80080E8024D
:102E6000FFF767FE0546042D0AD1B9F1FF0F07D021
:102E70000A480E30A0F80090E802FFF75AFE054617
:102E8000052D0FD00248006941F6EF71084007E0B8
:102E90000020024023016745AB89EFCD00F8FF1FFA
:102EA000664908612846BDE8F08330B5054604242C
:102EB0004FF43020FFF73DFE0446042C41D160481A
:102EC0005E4988605F4888600846006940F02000DD
:102ED00008610846006940F0400008614FF4302066
:102EE000FFF727FE0446042C22D15448006941F61E
:102EF000DF710840514908610846006940F0100040
:102F000008611DB100205049088002E0A5204E490B
:102F100008804FF43020FFF70CFE0446052C10D03B
:102F20004648006941F6EF7108404449086108E0ED
:102F3000052C06D04148006941F6DF7108403F4941
:102F40000861204630BDF0B505460E4617460424FC
:102F50003B483A4988603B488860E002FFF7E9FD5A
:102F60000446042C19D13548006940F0100033495B
:102F7000086147F0F800304328433349891C088032
:102F8000E002FFF7D6FD0446052C06D02B48006969
:102F900041F6EF710840294908612046F0BD2748F5
:102FA000C069800870472548006A7047002023499F
:102FB000096801F0200109B1012000E000207047FC
:102FC00029B11E4A126902431C4B1A6104E01B4AD4
:102FD00012698243194B1A6170470146002001298A
:102FE00008D1164AD26902F001020AB1012008E0B4
:102FF000002006E0114AD2680A400AB1012000E030
:10300000002070470D49C860704704200B49C9680B
:1030100001F0010109B101200EE00849C96801F081
:10302000040109B1022007E00449C96801F0100158
:1030300009B1032000E00420704700000020024096
:1030400023016745AB89EFCD00F8FF1F10B504469B
:10305000CC48844208D10121042000F04DFB00211E
:10306000042000F049FB46E0C748844208D1012112
:10307000082000F041FB0021082000F03DFB3AE071
:10308000C248844208D10121102000F035FB002104
:10309000102000F031FB2EE0BD48844208D1012110
:1030A000202000F029FB0021202000F025FB22E059
:1030B000B848844208D10121402000F01DFB0021C6
:1030C000402000F019FB16E0B348844208D10121EA
:1030D000802000F011FB0021802000F00DFB0AE0B1
:1030E000AE48844207D10121801500F005FB002184
:1030F000A01500F001FB10BD10B50121084600F03D
:10310000FBFA0021012000F0F7FA10BD2DE9F04193
:10311000024600250026002000230024002791F805
:1031200003C00CF00F0591F803C00CF0100CBCF1BB
:10313000000F03D091F802C04CEA050591F800C0D9
:10314000BCF1000F31D0146800202BE04FF0010CCF
:103150000CFA00F3B1F800C00CEA03069E4220D13D
:1031600083004FF00F0C0CFA03F7BC4305FA03FC85
:103170004CEA040491F803C0BCF1280F06D14FF0CB
:10318000010C0CFA00FCC2F814C00AE091F803C06C
:10319000BCF1480F05D14FF0010C0CFA00FCC2F84D
:1031A00010C0401C0828D1D31460B1F800C0BCF195
:1031B000FF0F34DD546800202EE000F1080C4FF0C2
:1031C000010808FA0CF3B1F800C00CEA03069E42AD
:1031D00021D183004FF00F0C0CFA03F7BC4305FA22
:1031E00003FC4CEA040491F803C0BCF1280F05D19C
:1031F00000F1080C08FA0CF8C2F8148091F803C02A
:10320000BCF1480F07D100F1080C4FF0010808FA93
:103210000CF8C2F81080401C0828CED35460BDE8DA
:10322000F0814FF6FF710180022181700421C1708D
:1032300070470246002093680B400BB1012000E06C
:10324000002070470146886880B27047024600201F
:10325000D3680B400BB1012000E00020704701460D
:10326000C86880B2704701617047416170470AB118
:10327000016100E041617047C16070474FF48032E6
:103280000A43826181618261826982697047024674
:103290000020434B18684FF68073184040EA021034
:1032A00008433F4B186070473E49C8617047F0B50E
:1032B0000A46002300240021002500F00046B6F154
:1032C000004F02D1364EF16901E0354E7168C0F30E
:1032D000034583B200F44016B6F5401F08D121F033
:1032E00070612F4E766826F070662D4F7E6012E07A
:1032F00000F48016B6F5801F06D1032606FA05F401
:10330000A14341F0706106E0460D360103FA06F66E
:10331000B14341F0706122B1460D360103FA06F661
:10332000314300F00046B6F1004F02D11C4EF1616E
:1033300001E01B4E7160F0BD30B500228B071C0F01
:103340000F2303FA04F2164B08338C1053F8243081
:103350009343134C08348D1044F8253023468C10C9
:1033600053F824308C07240F00FA04F423430C4C48
:1033700008348D1044F8253030BD0A49DC3108602E
:103380007047000000080140000C0140001001409F
:103390000014014000180140001C014000200140C1
:1033A00000000140000020420E49086070470D49AE
:1033B000486070470B49886070474AF6AA2009495F
:1033C000086070474CF6CC400649086070470146DB
:1033D0000020044AD2680A400AB1012000E000201F
:1033E0007047000000300040DF48006840F00100F6
:1033F000DD49086008464068DC490840DA49486011
:1034000008460068DA490840D7490860084600685D
:1034100020F4802008600846406820F4FE004860E0
:103420004FF41F0088607047CF49096821F480314C
:10343000CD4A11601146096821F480211160B0F570
:10344000803F03D0B0F5802F0ED106E0C649096851
:1034500041F48031C44A116007E0C349096841F46E
:10346000A021C14A116000E000BF00BF704710B545
:1034700001460022002300204A11012A02D1BA4C41
:10348000236806E0022A02D1B74C236A01E0B64C59
:10349000636A01F01F02012494401C400CB101201A
:1034A00000E0002010BD38B5002000900024002569
:1034B00000BF3120FFF7DBFF05460098401C00905D
:1034C0000098B0F5A06F01D0002DF2D03120FFF7A9
:1034D000CEFF08B1012400E00024204638BD01469B
:1034E0000020A14A106820F0F80040EAC1001060F6
:1034F0007047A04908607047024600209A4B586800
:1035000020F47C1042EA01031843974B586070473F
:1035100098490866704701460020934A506820F099
:1035200003000843506070478F48406800F00C006B
:103530007047014600208C4A506820F0F000084394
:103540005060704701460020874A506820F4E060D0
:1035500008435060704701460020834A506820F4B9
:10356000605040EAC1005060704729B17E4A527AEB
:1035700002437D4B5A7204E07B4A527A82437A4B73
:103580005A7270477B49D831086070470146002065
:10359000754A506820F4404008435060704700214D
:1035A000714A20321170704A82F82010012802D02E
:1035B00004280AD104E001216B4A2032117005E091
:1035C0000521694A2032117000E000BF00BF70473A
:1035D0006949086070476449096A0143624A116297
:1035E0007047654944390860704730B500210022B2
:1035F000002400235C4D6D6805F00C0121B1042905
:1036000005D0082923D105E05C4D056022E05B4D23
:1036100005601FE0544D6D6805F47012524D6D68E1
:1036200005F48034022505EB92421CB9544D5543F4
:1036300005600BE04C4D6D6805F400351DB1504D33
:103640005543056002E04D4D5543056002E04B4D8A
:10365000056000BF00BF444D6D6805F0F001090929
:10366000484D6B5C0568DD4045603F4D6D6805F475
:10367000E061090A434D6B5C4568DD4085603A4D69
:103680006D6805F46051C90A3E4D6B5C4568DD40CC
:10369000C560354D6D6805F44041890B3A4D6B5C52
:1036A000C568B5FBF3F5056130BD29B12E4A5269F5
:1036B00002432D4B5A6104E02B4A526982432A4B44
:1036C0005A61704729B1284A92690243264B9A6190
:1036D00004E0254A92698243234B9A61704729B1DD
:1036E000214AD2690243204BDA6104E01E4AD269C2
:1036F00082431D4BDA61704729B11B4AD2680243ED
:10370000194BDA6004E0184AD2688243164BDA603B
:10371000704729B1144A12690243134B1A6104E03D
:10372000114A12698243104B1A617047124940399D
:10373000086070470F49C86470470B49C8717047EB
:103740000948406A40F08070074948627047014666
:103750000020054A92680A400AB1012000E00020DA
:103760007047014988727047001002400000FFF85E
:10377000FFFFF6FE000042428004424200127A003F
:1037800000093D004A0000205A00002010B5044600
:10379000FE48844208D10121C014FFF7ADFF00218B
:1037A000E014FFF7A9FFC4E0B4F1804F08D1012174
:1037B0000846FFF7AEFF00210120FFF7AAFFB8E09F
:1037C000F348844208D101210220FFF7A2FF002123
:1037D0000220FFF79EFFACE0EE48844208D10121B1
:1037E0000420FFF796FF00210420FFF792FFA0E0DE
:1037F000E948844208D101210820FFF78AFF00210F
:103800000820FFF786FF94E0E448844208D10121B4
:103810001020FFF77EFF00211020FFF77AFF88E0DD
:10382000DF48844208D101212020FFF772FF0021E8
:103830002020FFF76EFF7CE0DA48844208D10121A6
:103840004014FFF759FF00216014FFF755FF70E0A7
:10385000D548844209D10121C804FFF74DFF00215A
:103860004FF40020FFF748FF63E0D048844209D1BD
:1038700001210805FFF740FF00214FF48010FFF7FA
:103880003BFF56E0CA48844209D101214805FFF7B1
:1038900033FF00214FF40010FFF72EFF49E0C54829
:1038A000844208D101214020FFF733FF002140204E
:1038B000FFF72FFF3DE0C048844208D1012180205E
:1038C000FFF727FF00218020FFF723FF31E0BB48EF
:1038D000844208D101218015FFF71BFF0021A015AC
:1038E000FFF717FF25E0B648844209D101210804FB
:1038F000FFF702FF00214FF48030FFF7FDFE18E0D4
:10390000B048844209D101214804FFF7F5FE0021A7
:103910004FF40030FFF7F0FE0BE0AB48844208D1D3
:1039200001218804FFF7E8FE00214FF48020FFF713
:10393000E3FE10BD00220288944B98420ED0994BB2
:1039400098420BD0B0F1804F08D0914B984205D0EF
:10395000904B984202D0904B984204D14FF68F730F
:103960001A404B881A438D4B984207D08C4B984293
:1039700004D04FF6FF431A40CB881A4302808B884D
:1039800083850B880385814B98420BD0854B9842E9
:1039900008D08B4B984205D08A4B984202D08A4B74
:1039A000984201D10B7A038601238382704770B558
:1039B000002400220023058C4FF6FE763540058456
:1039C000028C8388048B4FF68F752C40B51E2C40DB
:1039D0000D882C43751E2A400D892A434D882A43A1
:1039E0006A4DA8420BD06F4DA84208D0744DA84232
:1039F00005D0744DA84202D0734DA84213D14FF6A2
:103A0000F7752A404D892A434FF6FB752A408D8869
:103A10002A434FF6FF652B404FF6FF552B408D890B
:103A20002B43CD892B4383800483CD8885860284F4
:103A300070BD70B5002400220023058C4FF6EF7690
:103A400035400584028C8388048B48F6FF752C4032
:103A50004FF6FF452C400D884FF6FF7606EA052508
:103A60002C434FF6DF752A400D8906EA05152A43D7
:103A70004D8806EA05152A43444DA84202D0494D17
:103A8000A8421DD14FF67F752A404D894FF6FF762B
:103A900006EA05152A434FF6BF752A408D8806EAC7
:103AA00005152A434FF6FF352B404FF2FF752B408B
:103AB0008D8906EA85052B43CD8906EA85052B43CA
:103AC00083800483CD880587028470BD70B500248F
:103AD00000220023058C4FF6FF6635400584028CDA
:103AE0008388848B4FF68F752C404FF6FC752C40E5
:103AF0000D882C434FF6FF552A400D894FF6FF766F
:103B000006EA05252A434D8806EA05252A431F4D66
:103B1000A84202D0234DA8421DD14FF2FF752A4082
:103B20004D894FF6FF7606EA05252A434FF6FF3505
:103B30002A408D8806EA05252A434EF6FF752B405C
:103B40004DF6FF752B408D8906EA05152B43CD896F
:103B500006EA05152B4383808483CD8885870284FC
:103B600070BD70B5002200230024058C4EF6FF7650
:103B700035400584038C8488828B48F6FF752A4083
:103B80004FF6FF452A400D8820E00000002C014040
:103B90000004004000080040000C004000100040FD
:103BA0000014004000340140004C0140005001402E
:103BB0000054014000180040001C0040002000405C
:103BC0000040014000440140004801404FF6FF76AC
:103BD00006EA05252A434DF6FF752B400D8906EAB6
:103BE00005352B434D8806EA05352B43FA4DA8428F
:103BF00002D0FA4DA84208D14BF6FF752C408D89B2
:103C00004FF6FF7606EA85152C4384808283CD88A3
:103C1000A0F84050038470BD828B4FF2FF331A40EE
:103C20008283828B4FF6FF7303EA01231A43828358
:103C30007047F0B50C461546002200210026078C7F
:103C40004EF6FF7C07EA0C070784828B018C4FF647
:103C5000FF7707EA043640F6FF473A404FF6FF7712
:103C600007EA05273A434FF6FF7707EA03373A4357
:103C7000D94FB8420ED0D94FB8420BD0B0F1804FD7
:103C800008D0D74FB84205D0D64FB84202D0D64F51
:103C9000B84206D14DF6FF77394046F48057394394
:103CA00005E047F6FF57394044F480573943828393
:103CB0000184F0BD828B4FF6F3731A408283828BAE
:103CC0000A4382837047F0B50C4615460022002156
:103CD0000026078C4FF6FF6C07EA0C070784828BDF
:103CE000018C4FF6FF7707EA04264FF60C773A402F
:103CF0004FF6FF7707EA03172F433A43B64FB84210
:103D00000ED0B64FB8420BD0B0F1804F08D0B44FB0
:103D1000B84205D0B34FB84202D0B34FB84206D133
:103D20004FF6FF57394046F48077394305E04FF2AC
:103D3000FF57394044F48077394382830184F0BDD2
:103D4000028B4FF2FF331A400283028B4FF6FF7350
:103D500003EA01231A4302837047F0B50C46154667
:103D6000002200210026078C4FF6EF7C07EA0C07A3
:103D70000784028B018C4FF6FF7707EA041640F6A2
:103D8000FF473A404FF6FF7707EA03373A434FF6CB
:103D9000FF7707EA05273A438F4FB8420ED08F4F7F
:103DA000B8420BD0B0F1804F08D08D4FB84205D04B
:103DB0008C4FB84202D08C4FB84206D14FF6DF7715
:103DC000394046F01007394305E04FF65F77394038
:103DD00044F01007394302830184F0BD028B4FF693
:103DE000F3731A400283028B0A4302837047F0B5D3
:103DF0000C46154600220021068C4FF6FE773E4009
:103E00000684028B018C4FF60C7632407E1C06EA4B
:103E100003162E433243704EB0420ED06F4EB04266
:103E20000BD0B0F1804F08D06D4EB04205D06D4E32
:103E3000B04202D06C4EB04206D14FF6FD76314012
:103E400044F00106314305E04FF6F576314044F089
:103E50000106314302830184F0BD70B505460C466E
:103E60005D4885420ED05D4885420BD0B5F1804F4C
:103E700008D05B48854205D05A48854202D05A484E
:103E8000854200D100E000BF208850B92389A28874
:103E900061882846FFF7ABFFE1882846FFF79EFFC1
:103EA00025E0208804280AD12389A2886188284631
:103EB000FFF753FFE1882846FFF742FF17E020880D
:103EC00008280AD12389A28861882846FFF7FBFECB
:103ED000E1882846FFF7EEFE09E02389A288618881
:103EE0002846FFF7A6FEE1882846FFF795FE70BD3D
:103EF0002DE9F04105460C4600260127608808B9E7
:103F0000022600E00026A088012801D1022700E057
:103F100001272088A0B92389A28861882846FFF755
:103F200066FFE1882846FFF759FF23893A46314664
:103F30002846FFF712FFE1882846FFF701FF13E04C
:103F40002389A28861882846FFF707FFE188284671
:103F5000FFF7F6FE23893A4631462846FFF747FF2A
:103F6000E1882846FFF73AFFBDE8F0810A884B88D0
:103F70001A438B881A43CB881A430B891A434B89FF
:103F80001A438B891A43A0F8442070474FF6FF71FB
:103F9000818000210180C180418001727047002131
:103FA000018041808180C180018141818181C18105
:103FB0007047002101804180012181800021C18062
:103FC000018170470021018041808180C180018191
:103FD0004181818170470000002C01400034014084
:103FE0000004004000080040000C004021B102889D
:103FF00042F00102028004E002884FF6FE731A408C
:104000000280704731B1B0F8442042F40042A0F879
:10401000442005E0B0F84420C2F30E02A0F844208A
:1040200070471AB183890B43838102E083898B43F4
:10403000838170478182704741EA0203A0F84830CB
:1040400070471AB183890B43838102E083898B43D4
:104050008381704701894FF6F872114001817047E2
:104060000A46002101894FF68F73194011430181DF
:10407000704730B504460D4629462046FFF7F0FF4D
:10408000208940F00700208130BD2DE9F041044631
:104090000D4616461F46602D06D13B46012231468D
:1040A0002046FFF75AFE05E03B46012231462046F6
:1040B000FFF79DFE29462046FFF7D2FF208940F0FA
:1040C00007002081BDE8F08130B50C460021018950
:1040D000C9B24FF6FF7505EA032515432543294369
:1040E000018130BD2DE9F04105460E461746984640
:1040F000002443463A4631462846FFF7E5FF2C891F
:104100004FF6F870044044F007044FF68F700440F7
:1041100044F070042C81BDE8F081F0B504460D46F2
:1041200016461F463B46324629462046FFF7CCFF3F
:10413000208940F480402081F0BD01858282704753
:104140000A46002101884FF68F7319401143018000
:104150007047F0B50C4615461E460021002200238C
:104160000189028B038C4FF6F877394021434FF6D3
:10417000FC473A4040F201173A434FF6DD773B40A7
:104180004FF6FF7707EA06172F433B43018102836F
:104190000384F0BD0A460021018B4FF68F7319404E
:1041A0001143018370470A460021018B48F6FF73D3
:1041B00019404FF6FF7303EA022319430183704746
:1041C0000A460021818B4FF68F731940114381837A
:1041D00070470A460021818B48F6FF7319404FF65D
:1041E000FF7303EA022319438183704721B10288D8
:1041F00042F08002028004E002884FF67F731A408A
:104200000280704721B1828842F00402828004E07B
:1042100082884FF6FB731A408280704721B18288F2
:1042200042F00802828004E082884FF6F7731A4059
:104230008280704721B1828842F00102828004E0CE
:1042400082884FF6FE731A40828070470A4600212A
:10425000018B4FF6F77319401143018370470A46EB
:104260000021018B4FF2FF7319404FF6FF7303EAF1
:1042700002231943018370470A460021818B4FF6C0
:10428000F77319401143818370470A460021818BDF
:104290004FF2FF7319404FF6FF7303EA02231943ED
:1042A000818370470A460021018B4FF6FB7319404A
:1042B0001143018370470A460021018B4FF6FF33FB
:1042C00019404FF6FF7303EA022319430183704735
:1042D0000A460021818B4FF6FB73194011438183FD
:1042E00070470A460021818B4FF6FF3319404FF685
:1042F000FF7303EA02231943818370470A460021B2
:10430000018B4FF67F7319401143018370470A46B2
:104310000021018BC1F30E014FF6FF7303EA022364
:104320001943018370470A460021818B4FF67F7342
:1043300019401143818370470A460021818BC1F3E4
:104340000E014FF6FF7303EA02231943818370477E
:104350000A460021018C4FF6FD7319401143018478
:1043600070470A460021018C4FF6F773194011433C
:10437000018470470A460021018C4FF6DF73194013
:104380004FF6FF7303EA02131943018470470A468C
:104390000021018C4FF67F7319404FF6FF7303EA3B
:1043A00002131943018470470A460021018C4FF61D
:1043B000FF5319404FF6FF7303EA022319430184A8
:1043C00070470A460021018C4FF2FF7319404FF6E7
:1043D000FF7303EA02231943018470470A46002150
:1043E000018C4DF6FF7319404FF6FF7303EA023359
:1043F00019430184704730B5002301248C40A3B2D7
:10440000048C9C430484048C02FA01F5ADB22C4365
:10441000048430BD30B5002304248C40A3B2048C46
:104420009C430484048C02FA01F5ADB22C4304844D
:1044300030BD70B503460020002418461830012511
:104440008D40ACB21D8CA5431D8409B1082909D14A
:1044500000EB6100056825F07005056005681543EF
:1044600005600EE00D1FC5F34E052844056825F4D0
:10447000E045056005684FF6FF7606EA02263543FB
:10448000056070BD21B1028842F00202028004E0A2
:1044900002884FF6FD731A400280704721B10288EE
:1044A00042F00402028004E002884FF6FB731A40D7
:1044B0000280704721B1828842F08002828004E04D
:1044C00082884FF67F731A408280704702884FF6C9
:1044D000F7731A40028002880A430280704782887C
:1044E0004FF68F731A40828082880A438280704719
:1044F00002894FF6F8731A40028102890A43028149
:10450000704702894FF67F731A40028102890A437D
:10451000028170478184704781857047818670472A
:104520000187704781877047A0F840107047028864
:104530004FF6FF431A40028002880A430280704708
:104540000146888E70470146088F70470146888F64
:1045500070470146B1F8400070470146888C7047AB
:104560000146088D704702460020138A0B400BB1AC
:10457000012000E000207047CA430282704730B536
:104580000246002000230024158A05EA01039589CC
:1045900005EA010413B10CB1012000E0002030BD98
:1045A000CA430282704700000CB5002001900090C1
:1045B0006C48006840F480306A49086000BF694870
:1045C000006800F4003000900198401C01900098B1
:1045D00018B90198B0F5A06FF1D16248006800F4F5
:1045E000003010B10120009001E000200090009800
:1045F000012843D15C48006840F010005A49086027
:104600000846006820F0030008600846006840F093
:1046100002000860534840685249486008464068B4
:1046200048600846406840F480604860084640683A
:1046300020F47C1048600846406840F4E810486068
:104640000846006840F08070086000BF4548006878
:1046500000F000700028F9D04248406820F00300C4
:10466000404948600846406840F00200486000BF8A
:104670003C48406800F00C000828F9D10CBD10B58A
:10468000FFF792FF10BD10B53648006840F00100FA
:104690003449086008464068344908403149486058
:1046A00008460068324908402E49086008460068FC
:1046B00020F4802008600846406820F4FE0048602E
:1046C0004FF41F008860FFF7DAFF4FF000602949C0
:1046D000086010BD10B5002100200022214B5B684E
:1046E00003F00C0121B1042906D0082928D107E0E4
:1046F000214B224C236027E01F4B204C236023E0FA
:10470000184B5B6803F47010164B5B6803F480323F
:10471000022303EB904022B9194B4343174C23600B
:104720000DE0104B5B6803F4003323B1144B43439B
:10473000124C236003E0104B4343104C236003E012
:104740000D4B0E4C236000BF00BF064B5B68C3F3EC
:1047500003130C4CE15C094B1B68CB40074C2360F6
:1047600010BD000000100240002002400000FFF8D1
:10477000FFFFF6FE08ED00E000127A006000002066
:1047800000093D00640000204FF000020429C0F041
:10479000128010F0030C00F01E80CCF1040CBCF170
:1047A000020F18BF00F8012BA8BF20F8022BA1EBC5
:1047B0000C0100F010B85FEAC17C24BF00F8012BA7
:1047C00000F8012B48BF00F8012B70477047704775
:1047D00070474FF0000200B51346944696462039C4
:1047E00022BFA0E80C50A0E80C50B1F12001BFF4AA
:1047F000F7AF090728BFA0E80C5048BF0CC05DF810
:1048000004EB890028BF40F8042B08BF704748BF5D
:1048100020F8022B11F0804F18BF00F8012B7047D1
:10482000754600F02BF8AE4605006946534620F069
:104830000700854618B020B5FBF7B4FCBDE8204062
:104840004FF000064FF000074FF000084FF0000B4C
:1048500021F00701AC46ACE8C009ACE8C009ACE8FF
:10486000C009ACE8C0098D46704710B50446AFF3E7
:1048700000802046BDE81040FBF77FBC0048704731
:10488000E000002001491820ABBEFEE72600020030
:1048900070470000B44800080000002074000000C9
:1048A000280100082849000874000020CC060000F8
:1048B00044010008000000000001000000000000AA
:1048C00000000000000000000000000000000000E8
:1048D0000000000C000000000000000000000000CC
:1048E00000000000000000000000000000000000C8
:1048F00000000000000000000000000000000000B8
:10490000000001020304010203040607080902046F
:104910000608000000A24A04000000000000000099
:08492000010203040607080967
:04000005080000ED02
:00000001FF
