:020000040800F2
:10000000500700208901000841130008431300082D
:10001000471300084B1300084F13000800000000AE
:100020000000000000000000000000005313000862
:10003000551300080000000057130008591300086A
:10004000A3010008A3010008A3010008A301000800
:10005000A3010008A3010008A3010008A3010008F0
:10006000A3010008A3010008A3010008A3010008E0
:10007000A3010008A3010008A3010008A3010008D0
:10008000A3010008A3010008A3010008A3010008C0
:10009000A5170008A3010008A3010008A301000898
:1000A000A3010008A3010008A3010008A3010008A0
:1000B0004B1C0008051E00084F1E0008A301000885
:1000C000A3010008A3010008A3010008A301000880
:1000D000A3010008A3010008A3010008A301000870
:1000E000A3010008A3010008A301000800F002F822
:1000F00000F03AF80AA090E8000C82448344AAF188
:100100000107DA4501D100F02FF8AFF2090EBAE885
:100110000F0013F0010F18BFFB1A43F0010318473B
:100120005450000074500000103A24BF78C878C1C1
:10013000FAD8520724BF30C830C144BF04680C60ED
:10014000704700000023002400250026103A28BF35
:1001500078C1FBD8520728BF30C148BF0B60704739
:100160001FB51FBD10B510BD04F0CAFF1146FFF743
:10017000F7FF01F0B1F804F0E8FF03B4FFF7F2FF76
:1001800003BC04F0EFFF000009488047094800471E
:10019000FEE7FEE7FEE7FEE7FEE7FEE7FEE7FEE737
:1001A000FEE7FEE704480549054A064B7047000094
:1001B000674F0008ED0000085001002050070020A4
:1001C000500300205003002010B5FD48007818B1FE
:1001D0000120FC49087002E00020FA4908701B2049
:1001E000F94908700121F74801F0E5F810BD70B534
:1001F0000024F648C47804F00F05F548007800F0B4
:100200001000102831D10120F249087044F00F008D
:100210001F2811D1EE48007800F00F00A84207D047
:100220000120ED49087045F01000E949087047E0E9
:100230000020E949087043E044F00F000F283FD147
:100240000020DF4908704FF48061E44803F07BFC34
:100250000020E349887004F00F00DD490870012098
:10026000DD490870FFF7B0FF2AE0D948007800F0B8
:10027000100010281FD144F00F001F2813D10120B7
:10028000CF4908708102D54803F05FFC0120D449B2
:100290008870FFF799FF45F01000CD4908700120E4
:1002A000CD4908700CE044F00F000F2808D1002061
:1002B000C349087004E0C548002101604160018124
:1002C00070BD10B50024C148C478AA2C03D1012008
:1002D000C449087012E0552C0BD10020C1490870A8
:1002E0004FF48051BD4803F02EFC0020BC4908703B
:1002F00004E0B648002101604160018110BD10B5E5
:100300000024B248C478AA2C0AD10120B64908704A
:100310000103B24803F019FC0120B149087012E052
:10032000552C0BD10020B04908704FF48051AB48D8
:1003300003F009FC0020AA49087004E0A34800214A
:1003400001604160018110BD10B500249F48C47850
:10035000AA2C08D14FF40061A04803F0F6FB01205D
:100360009F4948700FE0552C08D14FF400619B481D
:1003700003F0E9FB00209A49487004E0934800210B
:1003800001604160018110BD10B500248F48C47820
:10039000092C75D2DFE804F0E405213E597592AED0
:1003A000C9000020914908702021914803F0CDFB3D
:1003B00040218F4803F0C7FB80218D4803F0C3FB29
:1003C0004FF480718A4803F0BEFB01208449C87055
:1003D0000020087148718871C8E04021844803F00A
:1003E000B4FB0020814908708021814803F0ABFBF9
:1003F00020217F4803F0A7FB4FF480717C4803F075
:10040000A2FB00207649C8700120087100204871C5
:100410008871ABE00020754908704021744803F0F2
:1004200092FB8021724803F08EFB2021704803F07C
:100430008AFB4FF480716E4803F085FB0020684909
:10044000C87008714871887190E000206749087091
:100450004021674803F077FB8021654803F073FB78
:100460002021634803F06FFB4FF48071604803F074
:100470006AFB00205A49C87008714871887175E09C
:100480006EE080215A4803F060FB01205749087054
:100490004021574803F057FB2021554803F053FBF8
:1004A0004FF48071524803F04EFB00204C49C87055
:1004B0000871012048710020887157E04FF4807165
:1004C0004B4803F042FB002048490870402148484F
:1004D00003F039FB8021464803F035FB20214448D6
:1004E00003F031FB00203E49C870087148710120BB
:1004F00088713BE000203D49087020213C4803F012
:1005000022FB40213A4803F01EFB8021384803F0CB
:100510001AFB4FF48071364803F015FB0020304978
:10052000C87008714871887120E000202F49087058
:1005300020212F4803F007FB40212D4803F003FB47
:1005400080212B4803F0FFFA4FF48071284803F014
:10055000FAFA00202249C87008714871887105E0D4
:100560001A48002101604160018100BF00BF10BD39
:1005700010B500241548C478092C72D2DFE804F0C5
:10058000FE053A55728FAAC7E2004FF40071184871
:1005900003F0D9FA4FF40051104803F0D4FA4FF4A5
:1005A00080410E4803F0CFFA4FF400410B4803F0AE
:1005B000CAFA00200A49C871087248728872E3E0DA
:1005C0000C000020860000200B0000207C00002092
:1005D0000D0000200F0000200E0000200010014040
:1005E000C0000020080000200900002006000020B4
:1005F000000C01404FF40071F94803F0A4FA4FF4E5
:100600000051F84803F09FFA4FF48041F54803F099
:100610009AFA4FF40041F34803F095FA0020F249AA
:10062000C871087248728872AEE04FF40071EC48ED
:1006300003F08BFA4FF40051EA4803F084FA4FF4C8
:100640008041E84803F07FFA4FF40041E54803F0A9
:100650007AFA0120E449C871002008724872887251
:1006600092E08BE04FF40051DE4803F06EFA4FF455
:100670000071DB4803F067FA4FF48041D94803F07A
:1006800062FA4FF40041D74803F05DFA0020D649E2
:10069000C8710120087200204872887274E04FF41B
:1006A0008041D04803F04FFA4FF40071CC4803F07A
:1006B0004AFA4FF40051CB4803F045FA4FF4004199
:1006C000C84803F040FA0020C749C8710872487250
:1006D000887259E04FF48041C24803F036FA4FF473
:1006E0000051C04803F02FFA4FF40071BC4803F0EA
:1006F0002AFA4FF40041BB4803F025FA0020BA491A
:10070000C871087201204872002088723CE04FF4E2
:100710000051B44803F017FA4FF40071B04803F0E9
:1007200012FA4FF48041AF4803F00DFA4FF4004144
:10073000AC4803F008FA0020AB49C871087248724F
:10074000887221E04FF40041A64803F0FEF94FF40F
:100750000071A34803F0F7F94FF40051A14803F0EA
:10076000F2F94FF480419F4803F0EDF900209E49D3
:10077000C871087248720120887205E09B48002108
:1007800001604160018100BF00BF10BD002097499A
:10079000C878AA2805D0552803D000220A604A60EC
:1007A0000A81704710B500249048C47804F0010015
:1007B00038B120218B4803F0C8F901208A49087319
:1007C00006E02021874803F0BEF90020864908731F
:1007D00004F00200022807D12021854803F0B5F972
:1007E00001208149487306E02021814803F0ABF9DC
:1007F00000207D49487304F00400042807D1022139
:100800007B4803F0A2F901207749887306E00221B2
:10081000774803F098F900207349887304F00800C2
:10082000082807D110216F4803F08FF901206E4985
:10083000C87306E010216B4803F085F900206A496F
:10084000C87304F01000102807D11021684803F085
:100850007CF901206449087406E01021644803F023
:1008600072F900206049087404F02000202807D1A4
:1008700001215F4803F069F901205B49487406E0F3
:1008800001215B4803F05FF900205749487404F0E8
:100890004000402807D18021554803F056F9012037
:1008A0005149887406E08021514803F04CF900203A
:1008B0004D49887404F08000802807D108214C48F5
:1008C00003F043F901204849C87406E0082148486C
:1008D00003F039F900204449C87401F0E6F84348B0
:1008E000002101604160018110BD10B500243F4826
:1008F000C478AA2C0AD14FF40061394803F025F9D5
:1009000001203949C87201F0D0F811E0552C0AD104
:100910004FF40061324803F016F900203249C872E2
:1009200001F0C3F804E03148002101604160018119
:1009300010BD10B500242D48C478AA2C0AD14FF45C
:100940008061274803F001F901202749487501F02B
:10095000ACF811E0552C0AD14FF48061204803F027
:10096000F2F800202049487501F09FF804E01F4884
:10097000002101604160018110BD10B500241B48B9
:10098000C478AA2C09D10221154803F0DEF8012011
:100990001549C87501F089F810E0552C09D10221DC
:1009A0000F4803F0D0F800200F49C87501F07DF81A
:1009B00004E00E48002101604160018110BD10B5C6
:1009C00000240A48C478AA2C14D10121044803F059
:1009D000BCF801200449087601F067F81BE000002C
:1009E000000C014000100140C00000207C000020ED
:1009F00000080140552C09D10121F94803F0A3F862
:100A00000020F849087601F050F804E0F64800218B
:100A100001604160018110BD10B50024F248C47826
:100A2000AA2C09D14021F14803F08FF80120ED49AB
:100A3000487601F03AF810E0552C09D14021EB48F6
:100A400003F081F80020E749487601F02EF804E031
:100A5000E548002101604160018110BD10B500240E
:100A6000E148C478AA2C09D10421E04803F06DF8CC
:100A70000120DC49887601F018F810E0552C09D1E6
:100A80000421DA4803F05FF80120D649887601F0A6
:100A90000CF804E0D448002101604160018110BDE0
:100AA00010B50024D048C478AA2C09D10421D0481C
:100AB00003F04BF80120CB49C87600F0F6FF10E0B8
:100AC000552C09D10421CA4803F03DF80020C5493E
:100AD000C87600F0EAFF04E0C348002101604160ED
:100AE000018110BD10B50024BF48C478AA2C0BD1D9
:100AF0000821BF4803F029F80120BA49C870BD4950
:100B0000087000F0D2FF12E0552C0BD10821B84834
:100B100003F019F80020B349C870B649087000F016
:100B2000C4FF04E0B048002101604160018110BDB4
:100B30000020AD49C878AA2803D10121AD4A11701F
:100B40000AE0552803D10021AA4A117004E0A64901
:100B500000220A604A600A81704710B50446002CE2
:100B600077D04FF400619E4802F0EFFF2021A048AB
:100B700002F0EBFF20219D4802F0E7FF02219B4895
:100B800002F0E3FF10219A4802F0DFFF102197489E
:100B900002F0DBFF0121954802F0D7FF8021934846
:100BA00002F0D3FF0821914802F0CFFF02218C48C8
:100BB00002F0CBFF01218A4802F0C7FF40218B4899
:100BC00002F0C3FF0421894802F0BFFF04218848D6
:100BD00002F0BBFF4FF48061814802F0B6FF0821AC
:100BE000834802F0B2FF4FF48051814802F0ADFF1C
:100BF0004FF400617E4802F0A8FF4FF480617C480A
:100C000002F0A3FF4021764802F09FFF8021744844
:100C100002F09BFF2021724802F097FF4FF4807191
:100C20006F4802F092FF4FF400716D4802F08DFFA3
:100C30004FF400516E4802F088FF4FF480416C4839
:100C400002F083FF4FF40041694802F07EFF7DE02F
:100C5000FFE74FF40061624802F075FF202164480D
:100C600002F071FF2021614802F06DFF02215F4810
:100C700002F069FF10215E4802F065FF10215B4819
:100C800002F061FF0121594802F05DFF80215748C1
:100C900002F059FF0821554802F055FF0221504843
:100CA00002F051FF01214E4802F04DFF40214F4814
:100CB00002F049FF04214D4802F045FF04214C4851
:100CC00002F041FF4FF48061454802F03CFF0821EB
:100CD000474802F038FF4FF48051454802F033FF97
:100CE0004FF40061424802F02EFF4FF4806140480B
:100CF00002F029FF40213A4802F025FF80213848C0
:100D000002F021FF2021364802F01DFF4FF48071D0
:100D1000334802F018FF4FF40071314802F013FF1E
:100D20004FF40051324802F00EFF4FF4804130483A
:100D300002F009FF4FF400412D4802F004FF0020AB
:100D40002D4908702D4908702D49087010BD10B547
:100D50004FF48051224802F0DCFE2A4908704FF41B
:100D600000511F4802F0D5FE264948704FF48041DB
:100D70001B4802F0CEFE2349887002211C4802F075
:100D8000C8FE2049C87010BD10B54FF480511448FA
:100D900002F0BFFE18B1AA201B49087002E05520DE
:100DA000194908701520194908700121164800F0EA
:100DB00002FB10BD10B54FF40051094802F0A9FE26
:100DC00018B1AA201049087002E055200E49087099
:100DD00016200E49087001210B4800F0ECFA10BDF6
:100DE000000C0140C00000207C00002000080140F1
:100DF000001001400400002006000020090000202F
:100E00000800002000000020860000200B000020C9
:100E100010B54FF48041F34802F07BFE18B1AA20D0
:100E2000F149087002E05520EF4908701720EF499A
:100E300008700121EC4800F0BEFA10BD10B5022187
:100E4000EB4802F066FE18B1AA20E749087002E0FC
:100E50005520E54908701820E44908700121E2484E
:100E600000F0A9FA10BD10B51120DF49087000206C
:100E700008701A20DD4908700221DB4800F09BFA57
:100E800010BD10B50446112C51D2DFE804F0090D55
:100E90001115191D2125292D31353C4044484C00A0
:100EA0000020D149087048E00120CF49087044E093
:100EB0000220CD49087040E00320CB4908703CE097
:100EC0000920C949087038E00420C749087034E097
:100ED0000520C549087030E00620C34908702CE0A1
:100EE0000A20C149087028E00720BF49087024E0A3
:100EF0000820BD49087020E00F20BB490870012080
:100F0000BC49087019E00B20B749087015E00C20A7
:100F1000B549087011E00D20B34908700DE00E20AE
:100F2000B149087009E01020AF49087005E0B248E7
:100F3000002101604160018100BF00BF1920AB4961
:100F400008700121A84800F036FA10BD10B504461B
:100F500002F02DFAA94802F06FFA2146A74802F0E4
:100F60006EFB02F030FAA5480078A549087010BD64
:100F700010B50B46002103E010F8014B5C54491CEE
:100F80009142F9DB10BD10B5002400BF0BE0C82C66
:100F900004D20121964802F0D6FD03E001219448D5
:100FA00002F0D3FD641CB4F5C87FF0D310BD10B5BA
:100FB0000020944908704FF400418A4802F0A9FDCE
:100FC0009149087040218A4802F0A3FD8E4948707B
:100FD0008021874802F09DFD8B4988704FF4807115
:100FE000834802F096FD8849C8704FF4007180482C
:100FF00002F08FFD844908714FF48071834802F03C
:1010000088FD814948714FF40071804802F081FDEC
:101010007D4988714FF480617C4802F07AFD7A49FD
:10102000C871084600787749087077484078097891
:1010300041EA40007349087073488078097841EAB2
:101040008000704908707048C078097841EAC00093
:101050006C4908706C480079097841EA00106949C8
:10106000087069484079097841EA4010654908707C
:1010700065488079097841EA8010624908706248C1
:10108000C079097841EAC0105E49087010BD10B5FA
:101090000024FFF78CFF5B4800780F287ED04FF4C8
:1010A000E0615A4802F04FFD4FF40071504802F0E1
:1010B0004CFDFFF77CFF53480078E7280BD0EB2866
:1010C00007D0ED2803D0EE2807D1102405E00F2427
:1010D00003E00E2401E00D2400BF00BF4FF4C06107
:1010E0004A4802F030FD4FF40071414802F02BFDF8
:1010F0004FF48071454802F028FDFFF758FF414842
:101100000078D7280BD0DB2807D0DD2803D0DE28D5
:1011100007D10C2405E00B2403E00A2401E0092494
:1011200000BF00BF4FF4A061384802F00CFD4FF43F
:1011300000712F4802F007FD4FF40071334802F0B0
:1011400004FDFFF734FF2F480078B7280BD0BB28E9
:1011500007D0BD2803D0BE2807D1082405E0072406
:1011600003E0062401E0052400BF00BF4FF44071F6
:10117000264802F0E8FC4FF400711D4802F0E3FC41
:101180004FF48061214802F0E0FCFFF710FF1D489A
:10119000007877280DD07B2809D000E020E07D285A
:1011A00003D07E2807D1042405E0032403E00224B1
:1011B00001E0012400BF00BF4FF40041094802F0E4
:1011C000C2FC4FF4E0710A4802F0BDFC4FF400711C
:1011D000074802F0BAFC4FF4E0610C4802F0B5FC9D
:1011E000204610BD000C0140860000200B000020AE
:1011F00000100140040000207C00002000F80108DD
:1012000013000020100000201500002000080140FD
:10121000014606E0002000E0401C44F6F82290421F
:10122000FAD30A1EA1F10101F4D1704710B545F2BD
:10123000555002F029FD042002F029FD40F2E24061
:1012400002F028FD02F029FD02F02CFD10BD1FB5B3
:1012500000208DF80A008DF80B0001208DF80C009D
:101260000020ADF80000ADF8020046F6FF70ADF8C2
:1012700004004FF6FF70ADF806000020ADF808003E
:1012800001208DF80D00684601F01DFC01208DF84D
:101290000A0000208DF80B0001208DF80C00602062
:1012A000ADF800000020ADF8020046F6FF70ADF882
:1012B00004004FF6FF70ADF806000020ADF80800FE
:1012C00001208DF80D00684601F0FDFB012202218E
:1012D000174801F0F7FE1FBD03F045FE01F056FA76
:1012E00001F006F901F0A0FA00F038F8FFF7AFFFBF
:1012F0006420FFF78DFF00F0AFFAFFF797FF15E0CE
:101300000C48007830B100F0A3F9002009490870BA
:1013100002F0C3FC0848007830B108480078FFF7B5
:1013200015FE00200449087001F06BF8E8E70000A2
:1013300000640040050000200E0000200D00002089
:10134000704700BFFEE700BFFEE700BFFEE700BF3B
:10135000FEE7704770477047704700000EB5F748CA
:1013600001F00EFB684601F02FFC00208DF806000E
:1013700001208DF8070000208DF808008DF8090085
:101380008DF80A008DF80B008DF802008DF803002F
:1013900005208DF8040000208DF805000920ADF827
:1013A00000006946E54801F004FB01220221E34800
:1013B00001F088FE0EBD2DE9F04F85B006460D46C2
:1013C0000024A2464FF0830BDD480078153807282B
:1013D00022D2DFE800F004080C1014181C001520BD
:1013E000D849088019E01620D649088015E0172052
:1013F000D449088011E01820D24908800DE0192056
:10140000D049088009E01A20CE49088005E040F262
:101410005510CC49088000E000BF00BFC9480088D3
:101420004FEA1028C748008800F0FF09CDF800B047
:1014300000208DF808008DF80900082D1DDC002D16
:101440001BDDE81CC0B28DF80A0000208DF80B00EF
:1014500009F0FF018DF80C1008F0FF018DF80D1058
:10146000002407E016F8012B0DF10B00E11C42549B
:10147000601C84B2AC42F5DB02E000208DF80A006B
:101480006946AE4801F00EFC074601E0601C84B2DC
:101490003946AA4801F09EFC012802D0B4F5FA6F43
:1014A000F4DBB4F5FA6F05D13946A44801F0D7FC56
:1014B0004FF0010A504605B0BDE8F08F2DE9F04726
:1014C00086B004460025AA469F48007800287DD1B2
:1014D0004FF083099A4800781538072822D2DFE8B0
:1014E00000F004080C1014181C0015209549088001
:1014F00019E016209349088015E0172091490880CB
:1015000011E018208F4908800DE019208D490880CE
:1015100009E01A208B49088005E040F255108949FE
:10152000088000E000BF00BF86480088070A8548A1
:10153000008800F0FF08CDF8049000208DF80C0022
:101540008DF80D0008208DF80E0001208DF80F0099
:101550008DF810808DF8117014F8011B8DF81210A1
:1015600014F8011B8DF8131014F8011B8DF81410DA
:1015700014F8011B8DF8151014F8011B8DF81610C6
:1015800001A96E4801F08EFB064604E001A96B48F4
:1015900001F088FB0646042EF8D001E0681C85B2F5
:1015A0003146664801F016FC012802D0B5F5FA6F05
:1015B000F4DBB5F5FA6F05D13146604801F04FFC18
:1015C0004FF0010A08208DF80E0000E03CE00320F7
:1015D0008DF80F008DF810808DF8117014F8011B34
:1015E0008DF8121014F8011B8DF8131014F8011B5C
:1015F0008DF8141014F8011B8DF8151014F8011B48
:101600008DF8161001A94D4801F04CFB064604E088
:1016100001A94A4801F046FB0646042EF8D001E035
:10162000681C85B23146454801F0D4FB012802D040
:10163000B5F5FA6FF4DBB5F5FA6F05D131463F48E1
:1016400001F00DFC4FF0010A504606B0BDE8F087EE
:10165000F0B585B00024002640F2834700970020B3
:101660008DF808008DF809008DF80A0069463348A6
:1016700001F018FB054601E0601C84B229462F48A2
:1016800001F0A8FB012802D0B4F5FA6FF4DBB4F541
:10169000FA6F04D12946294801F0E1FB01263046C2
:1016A00005B0F0BD2DE9F04105460E46002406E0E8
:1016B00005F10B00005D25490855601CC4B2B44219
:1016C000F6DB224840782149897840EA0127B7F5BE
:1016D000A47F43D015DCB7F5A27F28D009DC0B2FFF
:1016E00019D0A7F24110C8B101281AD0022850D150
:1016F0001AE0A7F24510E8B1012829D0022848D104
:1017000029E0A7F24910082843D2DFE800F02A2D8B
:10171000303336393C3FFEF76AFD40E0FEF7D1FD3D
:101720003DE0FEF7ECFD3AE0FEF70EFE37E0FEF797
:101730002BFE34E0FEF71CFF31E0000000640040A7
:101740000B00002026000020280000207C00002044
:10175000FFF71CF823E0FFF725F820E0FFF7C5F8B6
:101760001DE0FFF7E6F81AE0FFF707F917E0FFF7CB
:1017700026F914E0FFF750F911E0FFF76FF90EE0DA
:10178000FFF78EF90BE0FFF7ADF908E0FFF7D0F9AE
:1017900005E02B48002101604160018100BF00BFCE
:1017A000BDE8F08110B586B00020019002908DF860
:1017B0000C008DF80E008DF81700002408E00021C1
:1017C0000DF10F00015500201E490855601CC4B2E0
:1017D000082CF4DB01AA00211B4801F058FB00246F
:1017E00006E00DF10F00005D16490855601CC4B2FB
:1017F0009DF80E00A042F4DC9DF80C00F0B99DF8B5
:101800000E00002804DD9DF80E1001A8FFF74AFF26
:101810009DF80E0090B90D48007808B1FFF723FB42
:1018200000200A4908700A48007808B9012000E041
:101830000020074908700C200649087006B010BD4A
:101840007C0000201E0000200064004028000020D2
:1018500050000020290000200EB54FF0804002F01B
:1018600005FCC720ADF8040048F69F40ADF8000025
:101870000020ADF80600ADF8020069464FF0804048
:1018800002F0C8FC0121880703F0E6FA01221146A4
:10189000900703F036F80121880703F017F8FA489B
:1018A00002F0E4FBC720ADF804002320ADF80000EF
:1018B0000020ADF80600ADF802006946F24802F0DB
:1018C000A9FC0121F04803F0C7FA01221146EE48B5
:1018D00003F017F80121EC4802F0F8FFEB4802F0A2
:1018E000C5FB1320ADF8040048F69F40ADF800009A
:1018F0000020ADF80600ADF802006946E34802F0AA
:1019000089FC0121E14803F0A7FA01221146DF48D2
:1019100002F0F7FF0121DD4802F0D8FF0EBD10B53F
:10192000DB48007828B14FF40061DA4802F00DF985
:1019300004E04FF40061D74802F005F9D44840783C
:1019400020B12021D44802F000F903E02021D24840
:1019500002F0F9F8CE48807820B12021CF4802F07B
:10196000F4F803E02021CD4802F0EDF8C848C07833
:1019700020B10221C94802F0E8F803E00221C7487B
:1019800002F0E1F8C248007928B14FF48061C14803
:1019900002F0DBF804E04FF48061BE4802F0D3F8B7
:1019A000BB48407920B11021BB4802F0CEF803E0DB
:1019B0001021B94802F0C7F8B548807920B110214C
:1019C000B64802F0C2F803E01021B44802F0BBF8B8
:1019D000AF48C07920B10121B04802F0B6F803E069
:1019E0000121AE4802F0AFF8A948007A20B10221E7
:1019F000A84802F0AAF803E00221A64802F0A3F8E2
:101A0000A348407A20B18021A44802F09EF803E068
:101A10008021A24802F097F89D48807A20B10821E1
:101A20009E4802F092F803E008219C4802F08BF8EF
:101A30009748C07A20B10821974802F086F803E061
:101A40000821954802F07FF89148007B20B10121E0
:101A5000904802F07AF803E001218E4802F073F812
:101A60008B48407B20B140218C4802F06EF803E0A7
:101A700040218A4802F067F88548807B20B1042124
:101A8000864802F062F803E00421844802F05BF823
:101A90007F48C07B20B104217F4802F056F803E064
:101AA00004217D4802F04FF810BD7D48C07A784986
:101AB00008707B48007B48707948407B8870784884
:101AC000807BC8707648407D08717548C07B48713E
:101AD0007348007C88717248407CC8717048C07D32
:101AE00008726F48807C48726D48C07C88726C4870
:101AF000C078C8726A48007E08736948407E48739F
:101B00006748807E88736648C07EC873704710B58A
:101B10006348007828B14FF480515F4802F015F80F
:101B200004E04FF480515C4802F00DF85C484078C6
:101B300028B14FF40061584802F007F804E04FF470
:101B40000061554801F0FFFF5548807828B14FF4F7
:101B50008061514801F0F9FF04E04FF480614E4884
:101B600001F0F1FF4E48C07820B12021494801F032
:101B7000ECFF03E02021474801F0E5FF48480079E9
:101B800020B14021434801F0E0FF03E040214148FB
:101B900001F0D9FF4248407920B180213D4801F051
:101BA000D4FF03E080213B4801F0CDFF3C48807921
:101BB00028B14FF48071374801F0C7FF04E04FF4BB
:101BC0008071344801F0BFFF3548C07928B14FF427
:101BD0000071304801F0B9FF04E04FF400712D4866
:101BE00001F0B1FF2E48007A28B14FF400512A4885
:101BF00001F0ABFF04E04FF40051274801F0A3FFD0
:101C00002748407A28B14FF48041234801F09DFFD6
:101C100004E04FF48041204801F095FF2048807A8D
:101C200028B14FF400411C4801F08FFF04E04FF44D
:101C30000041194801F087FF10BD10B5FFF767FF9D
:101C4000FFF733FFFFF76BFE10BD10B501218807CA
:101C500003F005F900287DD00121880703F010F971
:101C600010480078C82821DA0E4800780A2805D1E3
:101C700000200C49087001200B49087009480078C1
:101C8000401C0849087014E00004004000080040AF
:101C9000DC000020000C0140001001400008014061
:101CA000C00000202D000020050000200020FD497C
:101CB0000870FD48007898B10120FC4908700020A8
:101CC000FB490870FEF749FF1C21FA4803F0CCF9E4
:101CD000FFF7EBFE0020F8490870F849087048E06B
:101CE000F6480078C0B9FFF74FF8FFF763F8FFF741
:101CF0008FF8FFF7A3F8FFF7B6F8FFF758F9FFF7EB
:101D0000C6F904461CB9611EC8B2FFF7BAF8002034
:101D1000E6490870EA4908600120E8490870E94886
:101D2000007810B9E8480078F8B10120FEF715FFF7
:101D3000E64800781E2804DAE4480078401CE349AD
:101D40000870E24800781E2812D1DF48007878B980
:101D5000002000E055E0DB490870FEF7FEFE0020A1
:101D6000DA490870FFF769FF02E00020D7490870E0
:101D700000BFD748007810B90120CB490870D4487B
:101D80000078401ED2490870CB480078D0B1D148C5
:101D90000078401CCF49087008460078032804DA10
:101DA0000121CD4802F092FD13E0CA4800781E28B8
:101DB00004DA0021C84802F089FD0AE00020C54984
:101DC000087006E00021C44802F080FD0020C149EF
:101DD0000870C2480078012813DD0121BE4802F0D6
:101DE00075FDBE480078042806D10021BA4802F0EB
:101DF0006DFD0020B9490870B8480078401CB7490B
:101E0000087010BD10B50121B34803F028F8E8B1FF
:101E10000121B14803F034F8B1480078401CB049C2
:101E2000087008460078032804DA0121AD4801F063
:101E30008CFE0BE0AA480078062804DA0121A948A4
:101E400001F083FE02E00020A549087010BD10B526
:101E50000121A54803F003F800287DD00121A24804
:101E600003F00EF896480068F8B9A0480078A04939
:101E700008700846007800F01000102816D18B4832
:101E8000007890B90120894908708D490860984808
:101E90000078984908704FF48061924801F055FE2F
:101EA000012084498870FEF78FF90FE001208449F2
:101EB00008608448007820B94FF48061894801F0B7
:101EC00042FE00207B498870784908707C48006891
:101ED000894988427ED24FF48051884801F019FE2A
:101EE000874908700846007886490978884202D0F8
:101EF00001208549087085480078D0B18048007875
:101F00008349097888420ED14FF480517B4801F013
:101F100000FE7C49087000207B4908707B490870EE
:101F2000FEF732FF0FE0002077490870774908700C
:101F300009E07548007830B171480078744908703C
:101F40000120724908707348007810B1002072496E
:101F500008705648007800E052E2002871D0FFF780
:101F600026F86E4800780F2846D06D480078002883
:101F70003DD101206B490870FFF789F86A49087064
:101F800008460078002832D06348007818B95748CE
:101F90000078574908706548007848B301206049C7
:101FA00008700020614908705B480078401C5A495D
:101FB00008705F48007810B901205E4908705A48DF
:101FC0000078401E5C490870FFF76FFD5B485A4976
:101FD000097800E0E4E1405C08B9012000E000205D
:101FE0005649554A1278885402203C490870ACE0A2
:101FF00001204E490870A8E04948007800284ED0DA
:102000004F48007800284BD00020454908704648CA
:102010000078401E4849087048480978405C08B973
:10202000012000E000204549434A127888540020EE
:102030002A4908703F48007820B101203C490870C7
:1020400003E088E000203A49087000203C4908700D
:1020500031480078C0F1040125480078084100F0BB
:10206000010035490978884202D000202A490870C9
:1020700029480078042868D100200C490870012004
:102080000F4908600020274908704FF48061154807
:1020900001F059FDFEF798F800201F49087054E040
:1020A00050E000002D000020280000200C0000203F
:1020B0000F000020C0000020060000204F0000207C
:1020C0003800002004000020530000202E000020D3
:1020D00029000020300000200004004052000020B1
:1020E00033000020001001400008004000F8010803
:1020F000470000200D000020915F0100000C01400E
:102100003C00002000000020420000204100002090
:102110004D0000200E00002045000020100000208F
:102120004B00002031000020490000204800002022
:1021300032000020140000204A000020DC000020B3
:10214000460000200120CD4908704FF48061CC4842
:1021500001F0FBFCFEE0CB48007820B94FF4806131
:10216000C74801F0F0FC4FF40051C74801F0D1FC22
:10217000C64948704FF48041C34801F0CAFCC349C6
:1021800088700221BE4801F0C4FCC049C870C04834
:10219000007804285ADA0846BD490978405CBD49F0
:1021A000BB4A1278895C884205D00120BA49086090
:1021B000BA49087004E0B6480078401CB449087079
:1021C000B7480078A0B3B148B1490978405CB54937
:1021D0000978884226D1AD48AD490978415CAD48BF
:1021E000AB4A127881540020AC490870AC490870A1
:1021F000A7480078012804D0022805D0032809D177
:1022000005E0FEF7D7FD06E0FEF702FE03E0FEF76D
:1022100015FE00E000BF00BF9D480078401C9C49AF
:10222000087016E000209D4908709D49087010E074
:10223000FFE79A48007860B1944895490978405C76
:102240009849087001209649087002E001209049E1
:102250000870FEF7ACFE944800780F2843D00120A8
:102260008D49086091480078002873D1FEF70FFF70
:102270008F4908700846007800286BD08D48007898
:1022800068B301208949087000208A4908708A488B
:10229000007810B901208949087085480078401EEF
:1022A00087490870FFF701FC864885490978405C3A
:1022B00008B9012000E000208249814A1278885440
:1022C0007F480078FEF7DDFD7D4800780B2802D1BD
:1022D00001207D49087002207C4908703AE0012005
:1022E0007449087036E07148007878B36348007824
:1022F00068B300206D4908706D480078401E704931
:102300000870084600780B2802D100206E4908703A
:1023100000205A4908706948007818B101206649C0
:10232000087002E000206449087066486449097832
:10233000405C08B9012100E000216248604A12783F
:1023400081541020FEF79DFDFFF7AFFB02E0012056
:102350004A49087050480068401C4F4908605C4872
:102360000078C8B10846006841F27071884213D005
:10237000494800681421B0FBF1F201FB120028B9B2
:102380004FF480613E4801F0E0FB2FE04FF48061A4
:102390003B4801F0D8FB29E000204D49087025E0BA
:1023A0004C48007840F00F001F2815D14A480078AB
:1023B00090B14A48007858B9012048490870364918
:1023C000086081022E4801F0C0FBFDF7FDFE0DE024
:1023D00001203149086009E001202F49086081028D
:1023E000274801F0B0FB00203C49087025480078E0
:1023F00030B93548007818B9FFF791FAFFF787FB35
:1024000010BD10B53648007820B10421354801F0E0
:102410009AFB03E00421334801F097FB2F48007832
:1024200028B14FF48061164801F08FFB04E04FF4AF
:102430008061134801F087FB2B48007828B14FF4E6
:1024400080510F4801F081FB16E02848007870B1F8
:102450002348007828B14FF48051094801F075FBFA
:102460000AE04FF48051064801F06DFB04E04FF4A0
:102470008051034801F067FB10BD000046000020BA
:102480000010014004000020000C01403C0000202E
:102490004000002000000020380000204300002001
:1024A000440000204E000020100000204B000020BF
:1024B00049000020480000203200002014000020C5
:1024C0004A000020DC0000205300002052000020C1
:1024D000310000200D0000200F0000200C00002023
:1024E00050000020001401400900002008000020D6
:1024F00008B54FF6FF70ADF8000003208DF802001C
:1025000004208DF8030069469C4801F06FFA4FF6ED
:10251000FF70ADF8000003208DF8020004208DF854
:1025200003006946964801F061FA4FF6FF70ADF876
:10253000000003208DF8020004208DF80300694696
:10254000904801F053FA4FF6FF70ADF800000320F9
:102550008DF8020004208DF8030069468A4801F0D6
:1025600045FA4FF40070ADF8000003208DF802002A
:1025700010208DF803006946824801F037FA4FF4C5
:10258000E060ADF8000003208DF8020010208DF807
:1025900003006946794801F029FA4FF4007179483F
:1025A00001F0D3FA4FF4E061744801F0CEFA4FF431
:1025B0000040ADF8000003208DF8020048208DF89F
:1025C000030069466E4801F011FA4FF4E070ADF86F
:1025D000000003208DF8020048208DF803006946B2
:1025E000684801F003FA4FF40041654801F0ABFA86
:1025F0004FF4E071634801F0A6FAFF20ADF8000047
:1026000003208DF8020010208DF8030069465B4816
:1026100001F0ECF940F60340ADF8000003208DF81E
:10262000020010208DF803006946554801F0DEF9DC
:1026300040F23C40ADF8000003208DF8020010206D
:102640008DF8030069464F4801F0D0F9FF214B484F
:1026500001F079FA40F60341494801F074FA40F27A
:102660003C41484801F06FFA4FF47870ADF8000033
:1026700003208DF8020010208DF8030069464048C1
:1026800001F0B4F94FF47C40ADF8000003208DF860
:10269000020010208DF8030069463A4801F0A6F9BF
:1026A0000420ADF8000003208DF8020010208DF802
:1026B00003006946344801F099F94FF478713048C5
:1026C00001F041FA4FF47C412E4801F03CFA04211C
:1026D0002D4801F038FA4FF4E040ADF80000032037
:1026E0008DF8020048208DF803006946244801F067
:1026F0007DF90220ADF8000003208DF8020048208B
:102700008DF8030069461F4801F070F94FF4E0416D
:102710001B4801F018FA02211A4801F014FA0120AE
:10272000ADF8000003208DF8020010208DF80300A2
:102730006946144801F05AF90121124801F005FADE
:102740004FF40060ADF8000003208DF8020048202F
:102750008DF803006946094801F048F94FF48050AC
:10276000ADF8000003208DF8020018208DF803005A
:102770006946024801F03AF908BD0000000801402E
:10278000000C0140001001400014014010B501F0A0
:102790009BFA4FF4803001F0B7FA01F0F4FA0446E6
:1027A000012C28D1002001F034FBA00201F03AFBFB
:1027B000002001F040FB4FF4404001F057FB0220A5
:1027C00000F0D6FD102000F0E7FD4FF4E0112004EA
:1027D00001F002FB012001F00BFB00BF392001F0EA
:1027E000B6FA0028FAD0022001F005FB00BF01F084
:1027F0000BFB0828FBD101213C2001F0D3FB012178
:10280000480601F0DCFB0121C80201F0CBFB0121ED
:10281000084601F0D4FB0121022001F0D0FB012188
:10282000042001F0CCFB10BD08B54FF4A06000F00F
:1028300039F814208DF8000003208DF801000120E4
:102840008DF802008DF80300684600F030F81C2077
:102850008DF8000000208DF8010001208DF80200A5
:102860008DF80300684600F022F81D208DF8000066
:1028700001208DF801008DF802008DF803006846F4
:1028800000F015F81E208DF8000002208DF80100E0
:1028900001208DF802008DF80300684600F007F86B
:1028A00008BD000031490143314A1160704770B5DD
:1028B000002100230F22C47804B32D4C246804F4B3
:1028C000E064C4F5E064210AC1F10403CA4044781D
:1028D00004FA03F18478144021430901254C067859
:1028E000A155047804F01F050124AC4005786D1152
:1028F000AD0005F1E025C5F8004109E0047804F0D9
:102900001F050124AC401C4D0678761145F8264081
:1029100070BD1A4A0A400243154B1B1F1A607047CC
:1029200039B1134A121D12680243114B1B1D1A6064
:1029300006E00F4A121D126882430D4B1B1D1A60E0
:102940007047042808D14FF0E021096941F00401E3
:102950004FF0E022116107E04FF0E021096921F01A
:1029600004014FF0E0221161704700000000FA05F9
:102970000CED00E000E400E080E100E080FFFF1FDC
:1029800010B50446FE48844209D10121480601F0F1
:1029900030FB00214FF0007001F02BFB08E001211B
:1029A000880601F026FB00214FF0806001F021FB3A
:1029B00010BD30B5024600200023146824F0020444
:1029C0001460146844F00104146000E05B1C546857
:1029D00004F001041CB94FF6FF74A342F6D1546809
:1029E00004F001040CB900206CE08C79012C04D1B6
:1029F000146844F08004146003E0146824F0800438
:102A00001460CC79012C04D1146844F040041460A3
:102A100003E0146824F0400414600C7A012C04D103
:102A2000146844F02004146003E0146824F02004C7
:102A300014604C7A012C04D1146844F01004146022
:102A400003E0146824F0100414608C7A012C04D183
:102A5000146844F00804146003E0146824F00804C7
:102A60001460CC7A012C04D1146844F0040414607E
:102A700003E0146824F0040414608C78A407CD7873
:102A800044EA05640D7944EA05444D7944EA055465
:102A90000D886D1E2C43D461146824F00104146069
:102AA000002300E05B1C546804F001041CB14FF6E5
:102AB000FF74A342F6D1546804F001040CB1002065
:102AC00000E0012030BD10B50021837A012202FA16
:102AD00003F1AC4A126842F00102AA4B1A60A94AFB
:102AE0001C3212688A43A74B1C331A60027BCAB996
:102AF000A44A0C3212688A43A24B0C331A604288F3
:102B0000C38842EA03439F4A4032847A42F8343011
:102B10000288838842EA03439A4A4032847A02EB6D
:102B2000C4025360027B012A19D1964A0C32126802
:102B30000A43944B0C331A604288038842EA0343E9
:102B4000904A4032847A42F83430C288838842EA1C
:102B500003438C4A4032847A02EBC4025360C27A47
:102B60003AB9884A121D12688A43864B1B1D1A60A7
:102B700006E0844A121D12680A43824B1B1D1A602C
:102B8000028932B97F4A143212688A437D4B14336A
:102B90001A600289012A06D17A4A143212680A435D
:102BA000784B14331A60427B012A06D1754A1C32D5
:102BB00012680A43734B1C331A60724A126822F07F
:102BC0000102704B1A6010BD00218171C171017248
:102BD00041728172C1728170C17003210171022141
:102BE00041710121018070476649096841F0010186
:102BF000644A11601146096843F60E729143614AB6
:102C000011601146096841EA002111601146096806
:102C100021F001011160704721B1026842F4803255
:102C2000026003E0026822F4803202607047E1B182
:102C3000026842F0800202604FF4C272125842F4FD
:102C400080734FF4C27213504FF4CA72125842F498
:102C500080734FF4CA7213504FF4D272125842F478
:102C600080734FF4D27213501BE0026822F080028E
:102C700002604FF4C272125822F480734FF4C27291
:102C800013504FF4CA72125822F480734FF4CA7270
:102C900013504FF4D272125822F480734FF4D27250
:102CA0001350704710B502460020936803F080630C
:102CB000B3F1806F00D110E0936803F00063B3F1CB
:102CC000006F01D1012008E0936803F08053B3F155
:102CD000805F01D1022000E00420042879D002F5B1
:102CE000C07303EB00131B6803F0010402F5C0730B
:102CF00003EB00131C600B7A7BB94B7A0C8843EA18
:102D0000445302F5C07404EB00142468234302F515
:102D1000C07404EB0014236010E00B7A4C6843EAA3
:102D2000C4034C7A234302F5C07404EB00142468F6
:102D3000234302F5C07404EB001423608B7A03F084
:102D40000F038B7202F5C07303EB00135B6823F073
:102D50000F0402F5C07303EB00135C6002F5C0734F
:102D600003EB00135B688C7A234302F5C07404EB19
:102D7000001463608B7B1C064B7B44EA034403E036
:102D800000640040006600400B7B44EA0323CC7AD9
:102D9000234302F5C07404EB0014A3608B7C1C0673
:102DA0004B7C44EA03440B7C44EA0323CC7B23435F
:102DB00002F5C07404EB0014E36002F5C07303EB8A
:102DC00000131B6843F0010402F5C07303EB00130A
:102DD0001C6010BD10B50246002321B1012907D0A7
:102DE00002290FD109E09068F94C00EA04030BE0D6
:102DF0009068F84C00EA040306E09068F64C00EA9C
:102E0000040301E0002300BF00BFF44C181BA342E1
:102E100016D007DC83B16FF08060184470B10228CF
:102E200018D111E0B0F5007F10D0ED4C204448B12E
:102E3000B0F5003F0ED10BE002230DE000230BE0C4
:102E4000002309E0002307E0012305E0012303E05C
:102E5000012301E0002300BF00BFD8B210BD21B1A3
:102E6000012907D002290FD109E0826842F08002CF
:102E700082600AE0826842F40042826005E0826873
:102E800042F40002826000E000BF00BF704710B54E
:102E900000F5D87303EB01131B6803F004031372EE
:102EA000137A53B900F5D87303EB01131B6840F292
:102EB000FF7404EA5353136009E000F5D87303EB81
:102EC00001131B686FF0604404EAD303536000F5FC
:102ED000D87303EB01131B6803F00203537200F570
:102EE000D87303EB01135B6803F00F03937200F5D3
:102EF000D87303EB01135B681B0AD37400F5D87316
:102F000003EB01139B68D37200F5D87303EB011335
:102F10009B681C0A147300F5D87303EB01139B68BC
:102F20001C0C547300F5D87303EB01139B681B0E44
:102F3000937300F5D87303EB0113DB68D37300F5CB
:102F4000D87303EB0113DB681C0A147400F5D87303
:102F500003EB0113DB681C0C547400F5D87303EB0E
:102F60000113DB681B0E937421B9C36843F020037F
:102F7000C36003E0036943F02003036110BD21B97E
:102F8000C26842F02002C26003E0026942F02002FF
:102F9000026170470246002019B9D36803F00300AC
:102FA00006E0012903D1136903F0030000E00020CB
:102FB000704710B502460B4600204FF6FF71BBB9B3
:102FC000146824F0020444F00104146000E0491E77
:102FD000546804F00304012C01D00029F7D154688F
:102FE00004F00304012C01D0002032E0012030E085
:102FF000012B13D1146824F00304146000E0491E6F
:10300000546804F003040CB10029F8D1546804F0AA
:1030100003040CB100201CE001201AE0022B17D1A0
:10302000146824F0010444F00204146000E0491E16
:10303000546804F00304022C01D00029F7D154682D
:1030400004F00304022C01D0002002E0012000E083
:10305000002010BD014600200A6822F0010242F063
:1030600002020A604A6802F00302022A00D101202B
:10307000704701464FF6FF7200200B6823F00203F1
:103080000B6000E0521E4B6803F00203022B01D1DB
:10309000002AF7D14B6803F00203022B00D0012075
:1030A0007047014600208A6902F0700070470146AF
:1030B00000208A69100E7047014600208A69C2F319
:1030C000074070471AB143690B43436102E043690B
:1030D0008B434361704710B50246002001F4700332
:1030E00043B19369C1F3130423400BB101202DE0D8
:1030F00000202BE001F0807343B15368C1F3130447
:1031000023400BB1012021E000201FE001F000630B
:1031100043B19368C1F3130423400BB1012015E0C0
:10312000002013E001F0007343B1D368C1F313042E
:1031300023400BB1012009E0002007E01369C1F32F
:10314000130423400BB1012000E0002010BD002239
:10315000244B994202D10023836111E0C1F3130291
:1031600001F000730BB1C2600AE001F080630BB1A3
:10317000026105E001F000630BB1826000E0426093
:1031800070470246002002EA01030BB1012000E073
:103190000020704770B504460D460026606928403F
:1031A000002872D0B5F5807F69D01DDC082D42D093
:1031B00006DC012D2DD0022D31D0042D7FD134E03D
:1031C000102D3ED0202D42D0402D78D145E000007A
:1031D00003000004000300080000031000010008C1
:1031E0000001FFF77000F030B5F5004F61D009DC49
:1031F000B5F5007F4AD0B5F5806F4DD0B5F5006FBD
:103200005DD150E0B5F5803F2DD0B5F5003F56D1EA
:103210002FE0A0685549FFF7B4FF064651E0E0688B
:103220000321FFF7AEFF06464BE0E0680821FFF7F9
:10323000A8FF064645E0E0681021FFF7A2FF06461A
:103240003FE020690321FFF79CFF064639E0206933
:103250000821FFF796FF064633E020691021FFF7AB
:1032600090FF06462DE060680821FFF78AFF0646BA
:1032700027E060681021FFF784FF064621E0A0697F
:103280000121FFF77EFF06461BE01BE0A06902213B
:10329000FFF777FF064614E0A0690421FFF771FFEE
:1032A00006460EE00BE0A0697021FFF76AFF0646B4
:1032B00007E060680421FFF764FF064601E000268E
:1032C00000BF00E00026304670BDB1F5007F3AD067
:1032D0000FDC202928D006DC01291CD004291DD0B0
:1032E000082940D11DE0402921D0B1F5807F3AD195
:1032F00026E0B1F5004F31D006DCB1F5806F25D066
:10330000B1F5006F2FD124E0B1F5803F12D0B1F5B7
:10331000003F28D111E0154A826025E00822C260F2
:1033200022E01022C2601FE0082202611CE010228D
:10333000026119E00822426016E01022426013E0A8
:103340000422426010E0042242600DE00422426048
:103350000AE0002282610422426005E000228261CC
:103360000422426000E000BF00BF7047010101007D
:1033700001460020FE4A106800F038000843106043
:103380007047FB49096821F00801F94A11601146AC
:103390000968014311607047F549096821F010017F
:1033A000F34A116011460968014311607047F14802
:1033B000EF494860F04848607047EE48EC49486083
:1033C000ED4848607047EA48006940F08000E849ED
:1033D00008617047E648006940F08000E4490861F0
:1033E00070470420E249C96801F0010109B10120D8
:1033F0000EE0DF49C96801F0040109B1022007E0CD
:10340000DB49C96801F0100109B1032000E0042084
:10341000704700B502460423FFF7E3FF034603E0CD
:10342000FFF7DFFF0346521E012B01D1002AF7D11F
:1034300002B90523184600BD30B5044604254FF4F3
:103440003020FFF7E6FF0546042D17D1C848006974
:1034500040F00200C649086108464461006940F036
:10346000400008614FF43020FFF7D3FF0546C04805
:10347000006941F6FD710840BD490861284630BD2C
:1034800010B504244FF43020FFF7C3FF0446042C8A
:1034900016D1B748006940F00400B54908610846F4
:1034A000006940F0400008614FF43020FFF7B1FFA1
:1034B0000446AF48006941F6FB710840AC49086119
:1034C000204610BD00B502460423FFF78AFF0346DD
:1034D00003E0FFF786FF0346521E012B01D1002AAD
:1034E000F7D102B90523184600BD10B504244FF4E6
:1034F0003020FFF7E7FF0446042C16D19C480069F2
:1035000040F004009A4908610846006940F0400014
:1035100008614FF43020FFF7D5FF04469448006956
:1035200041F6FB71084092490861204610BD002019
:103530008F49C96901F0020109B1012000E00020B2
:10354000704730B5A5250424FFF7F1FF00B1002531
:103550004FF43020FFF75DFF0446042C3AD1854834
:1035600083498860844888600846006940F02000EC
:1035700008610846006940F0400008614FF43020BF
:10358000FFF747FF0446042C1BD17948006941F638
:10359000DF710840764908610846006940F0100074
:1035A000086176480580E002FFF733FF0446052CEA
:1035B00010D06F48006941F6EF7108406C4908610E
:1035C00008E0052C06D06A48006941F6EF71084012
:1035D00067490861204630BD78B506460C4604258B
:1035E00000200090E802FFF714FF0546042D24D1C7
:1035F0005F48006940F001005D4908613480E802DD
:10360000FFF707FF0546042D10D1B01C0090200CD9
:1036100000990880E802FFF7FCFE0546544800695F
:1036200041F6FE7108405249086106E050480069C1
:1036300041F6FE7108404E490861284678BD70B5D4
:1036400004460D460426F002FFF7E3FE0646042E6C
:1036500011D14748006940F00100454908612580C3
:10366000F002FFF7D6FE06464148006941F6FE71BA
:1036700008403F490861304670BD70B505460E46AA
:103680000424E002FFF7C5FE0446042C17D1394894
:1036900037498860384888600846006940F0100063
:1036A00008612E80E002FFF7B4FE0446052C06D028
:1036B0002F48006941F6EF7108402D490861204606
:1036C00070BD2DE9F04304464FF6FF763746B0460D
:1036D000B1460425E443E6B2C4F30727C4F3074820
:1036E0004FEA1469E802FFF794FE0546042D49D11C
:1036F00020481F498860204888600846006940F0DB
:1037000010000861FF2E06D01C4808300680E80231
:10371000FFF77FFE0546042D08D1FF2F06D017487E
:103720000A300780E802FFF774FE0546042D0AD12F
:10373000B8F1FF0F07D011480C30A0F80080E80264
:10374000FFF767FE0546042D0AD1B9F1FF0F07D038
:103750000A480E30A0F80090E802FFF75AFE05462E
:10376000052D0FD00248006941F6EF71084007E0CF
:103770000020024023016745AB89EFCD00F8FF1F11
:10378000664908612846BDE8F08330B50546042443
:103790004FF43020FFF73DFE0446042C41D1604831
:1037A0005E4988605F4888600846006940F02000F4
:1037B00008610846006940F0400008614FF430207D
:1037C000FFF727FE0446042C22D15448006941F635
:1037D000DF710840514908610846006940F0100057
:1037E00008611DB100205049088002E0A5204E4923
:1037F00008804FF43020FFF70CFE0446052C10D053
:103800004648006941F6EF7108404449086108E004
:10381000052C06D04148006941F6DF7108403F4958
:103820000861204630BDF0B505460E461746042413
:103830003B483A4988603B488860E002FFF7E9FD71
:103840000446042C19D13548006940F01000334972
:10385000086147F0F800304328433349891C088049
:10386000E002FFF7D6FD0446052C06D02B48006980
:1038700041F6EF710840294908612046F0BD27480C
:10388000C069800870472548006A704700202349B6
:10389000096801F0200109B1012000E00020704713
:1038A00029B11E4A126902431C4B1A6104E01B4AEB
:1038B00012698243194B1A617047014600200129A1
:1038C00008D1164AD26902F001020AB1012008E0CB
:1038D000002006E0114AD2680A400AB1012000E047
:1038E000002070470D49C860704704200B49C96823
:1038F00001F0010109B101200EE00849C96801F099
:10390000040109B1022007E00449C96801F010016F
:1039100009B1032000E004207047000000200240AD
:1039200023016745AB89EFCD00F8FF1F10B50446B2
:10393000CC48844208D10121042000F04DFB002135
:10394000042000F049FB46E0C748844208D1012129
:10395000082000F041FB0021082000F03DFB3AE088
:10396000C248844208D10121102000F035FB00211B
:10397000102000F031FB2EE0BD48844208D1012127
:10398000202000F029FB0021202000F025FB22E070
:10399000B848844208D10121402000F01DFB0021DD
:1039A000402000F019FB16E0B348844208D1012101
:1039B000802000F011FB0021802000F00DFB0AE0C8
:1039C000AE48844207D10121801500F005FB00219B
:1039D000A01500F001FB10BD10B50121084600F054
:1039E000FBFA0021012000F0F7FA10BD2DE9F041AB
:1039F000024600250026002000230024002791F81D
:103A000003C00CF00F0591F803C00CF0100CBCF1D2
:103A1000000F03D091F802C04CEA050591F800C0F0
:103A2000BCF1000F31D0146800202BE04FF0010CE6
:103A30000CFA00F3B1F800C00CEA03069E4220D154
:103A400083004FF00F0C0CFA03F7BC4305FA03FC9C
:103A50004CEA040491F803C0BCF1280F06D14FF0E2
:103A6000010C0CFA00FCC2F814C00AE091F803C083
:103A7000BCF1480F05D14FF0010C0CFA00FCC2F864
:103A800010C0401C0828D1D31460B1F800C0BCF1AC
:103A9000FF0F34DD546800202EE000F1080C4FF0D9
:103AA000010808FA0CF3B1F800C00CEA03069E42C4
:103AB00021D183004FF00F0C0CFA03F7BC4305FA39
:103AC00003FC4CEA040491F803C0BCF1280F05D1B3
:103AD00000F1080C08FA0CF8C2F8148091F803C041
:103AE000BCF1480F07D100F1080C4FF0010808FAAB
:103AF0000CF8C2F81080401C0828CED35460BDE8F2
:103B0000F0814FF6FF710180022181700421C170A4
:103B100070470246002093680B400BB1012000E083
:103B2000002070470146886880B270470246002036
:103B3000D3680B400BB1012000E000207047014624
:103B4000C86880B2704701617047416170470AB12F
:103B5000016100E041617047C16070474FF48032FD
:103B60000A4382618161826182698269704702468B
:103B70000020434B18684FF68073184040EA02104B
:103B800008433F4B186070473E49C8617047F0B525
:103B90000A46002300240021002500F00046B6F16B
:103BA000004F02D1364EF16901E0354E7168C0F325
:103BB000034583B200F44016B6F5401F08D121F04A
:103BC00070612F4E766826F070662D4F7E6012E091
:103BD00000F48016B6F5801F06D1032606FA05F418
:103BE000A14341F0706106E0460D360103FA06F686
:103BF000B14341F0706122B1460D360103FA06F679
:103C0000314300F00046B6F1004F02D11C4EF16185
:103C100001E01B4E7160F0BD30B500228B071C0F18
:103C20000F2303FA04F2164B08338C1053F8243098
:103C30009343134C08348D1044F8253023468C10E0
:103C400053F824308C07240F00FA04F423430C4C5F
:103C500008348D1044F8253030BD0A49DC31086045
:103C60007047000000080140000C014000100140B6
:103C70000014014000180140001C014000200140D8
:103C800000000140000020420E49086070470D49C5
:103C9000486070470B49886070474AF6AA20094976
:103CA000086070474CF6CC400649086070470146F2
:103CB0000020044AD2680A400AB1012000E0002036
:103CC0007047000000300040DF48006840F001000D
:103CD000DD49086008464068DC490840DA49486028
:103CE00008460068DA490840D74908600846006875
:103CF00020F4802008600846406820F4FE004860F8
:103D00004FF41F0088607047CF49096821F4803163
:103D1000CD4A11601146096821F480211160B0F587
:103D2000803F03D0B0F5802F0ED106E0C649096868
:103D300041F48031C44A116007E0C349096841F485
:103D4000A021C14A116000E000BF00BF704710B55C
:103D500001460022002300204A11012A02D1BA4C58
:103D6000236806E0022A02D1B74C236A01E0B64C70
:103D7000636A01F01F02012494401C400CB1012031
:103D800000E0002010BD38B5002000900024002580
:103D900000BF3120FFF7DBFF05460098401C009074
:103DA0000098B0F5A06F01D0002DF2D03120FFF7C0
:103DB000CEFF08B1012400E00024204638BD0146B2
:103DC0000020A14A106820F0F80040EAC10010600D
:103DD0007047A04908607047024600209A4B586817
:103DE00020F47C1042EA01031843974B5860704757
:103DF00098490866704701460020934A506820F0B1
:103E000003000843506070478F48406800F00C0082
:103E10007047014600208C4A506820F0F0000843AB
:103E20005060704701460020874A506820F4E060E7
:103E300008435060704701460020834A506820F4D0
:103E4000605040EAC1005060704729B17E4A527A02
:103E500002437D4B5A7204E07B4A527A82437A4B8A
:103E60005A7270477B49D83108607047014600207C
:103E7000754A506820F44040084350607047002164
:103E8000714A20321170704A82F82010012802D045
:103E900004280AD104E001216B4A2032117005E0A8
:103EA0000521694A2032117000E000BF00BF704751
:103EB0006949086070476449096A0143624A1162AE
:103EC0007047654944390860704730B500210022C9
:103ED000002400235C4D6D6805F00C0121B104291C
:103EE00005D0082923D105E05C4D056022E05B4D3B
:103EF00005601FE0544D6D6805F47012524D6D68F9
:103F000005F48034022505EB92421CB9544D55430B
:103F100005600BE04C4D6D6805F400351DB1504D4A
:103F20005543056002E04D4D5543056002E04B4DA1
:103F3000056000BF00BF444D6D6805F0F001090940
:103F4000484D6B5C0568DD4045603F4D6D6805F48C
:103F5000E061090A434D6B5C4568DD4085603A4D80
:103F60006D6805F46051C90A3E4D6B5C4568DD40E3
:103F7000C560354D6D6805F44041890B3A4D6B5C69
:103F8000C568B5FBF3F5056130BD29B12E4A52690C
:103F900002432D4B5A6104E02B4A526982432A4B5B
:103FA0005A61704729B1284A92690243264B9A61A7
:103FB00004E0254A92698243234B9A61704729B1F4
:103FC000214AD2690243204BDA6104E01E4AD269D9
:103FD00082431D4BDA61704729B11B4AD268024304
:103FE000194BDA6004E0184AD2688243164BDA6053
:103FF000704729B1144A12690243134B1A6104E055
:10400000114A12698243104B1A61704712494039B4
:10401000086070470F49C86470470B49C871704702
:104020000948406A40F0807007494862704701467D
:104030000020054A92680A400AB1012000E00020F1
:104040007047014988727047001002400000FFF875
:10405000FFFFF6FE000042428004424200127A0056
:1040600000093D00540000206400002010B5044603
:10407000FE48844208D10121C014FFF7ADFF0021A2
:10408000E014FFF7A9FFC4E0B4F1804F08D101218B
:104090000846FFF7AEFF00210120FFF7AAFFB8E0B6
:1040A000F348844208D101210220FFF7A2FF00213A
:1040B0000220FFF79EFFACE0EE48844208D10121C8
:1040C0000420FFF796FF00210420FFF792FFA0E0F5
:1040D000E948844208D101210820FFF78AFF002126
:1040E0000820FFF786FF94E0E448844208D10121CC
:1040F0001020FFF77EFF00211020FFF77AFF88E0F5
:10410000DF48844208D101212020FFF772FF0021FF
:104110002020FFF76EFF7CE0DA48844208D10121BD
:104120004014FFF759FF00216014FFF755FF70E0BE
:10413000D548844209D10121C804FFF74DFF002171
:104140004FF40020FFF748FF63E0D048844209D1D4
:1041500001210805FFF740FF00214FF48010FFF711
:104160003BFF56E0CA48844209D101214805FFF7C8
:1041700033FF00214FF40010FFF72EFF49E0C54840
:10418000844208D101214020FFF733FF0021402065
:10419000FFF72FFF3DE0C048844208D10121802075
:1041A000FFF727FF00218020FFF723FF31E0BB4806
:1041B000844208D101218015FFF71BFF0021A015C3
:1041C000FFF717FF25E0B648844209D10121080412
:1041D000FFF702FF00214FF48030FFF7FDFE18E0EB
:1041E000B048844209D101214804FFF7F5FE0021BF
:1041F0004FF40030FFF7F0FE0BE0AB48844208D1EB
:1042000001218804FFF7E8FE00214FF48020FFF72A
:10421000E3FE10BD00220288944B98420ED0994BC9
:1042200098420BD0B0F1804F08D0914B984205D006
:10423000904B984202D0904B984204D14FF68F7326
:104240001A404B881A438D4B984207D08C4B9842AA
:1042500004D04FF6FF431A40CB881A4302808B8864
:1042600083850B880385814B98420BD0854B984200
:1042700008D08B4B984205D08A4B984202D08A4B8B
:10428000984201D10B7A038601238382704770B56F
:10429000002400220023058C4FF6FE76354005846D
:1042A000028C8388048B4FF68F752C40B51E2C40F2
:1042B0000D882C43751E2A400D892A434D882A43B8
:1042C0006A4DA8420BD06F4DA84208D0744DA84249
:1042D00005D0744DA84202D0734DA84213D14FF6B9
:1042E000F7752A404D892A434FF6FB752A408D8881
:1042F0002A434FF6FF652B404FF6FF552B408D8923
:104300002B43CD892B4383800483CD88858602840B
:1043100070BD70B5002400220023058C4FF6EF76A7
:1043200035400584028C8388048B48F6FF752C4049
:104330004FF6FF452C400D884FF6FF7606EA05251F
:104340002C434FF6DF752A400D8906EA05152A43EE
:104350004D8806EA05152A43444DA84202D0494D2E
:10436000A8421DD14FF67F752A404D894FF6FF7642
:1043700006EA05152A434FF6BF752A408D8806EADE
:1043800005152A434FF6FF352B404FF2FF752B40A2
:104390008D8906EA85052B43CD8906EA85052B43E1
:1043A00083800483CD880587028470BD70B50024A6
:1043B00000220023058C4FF6FF6635400584028CF1
:1043C0008388848B4FF68F752C404FF6FC752C40FC
:1043D0000D882C434FF6FF552A400D894FF6FF7686
:1043E00006EA05252A434D8806EA05252A431F4D7E
:1043F000A84202D0234DA8421DD14FF2FF752A409A
:104400004D894FF6FF7606EA05252A434FF6FF351C
:104410002A408D8806EA05252A434EF6FF752B4073
:104420004DF6FF752B408D8906EA05152B43CD8986
:1044300006EA05152B4383808483CD888587028413
:1044400070BD70B5002200230024058C4EF6FF7667
:1044500035400584038C8488828B48F6FF752A409A
:104460004FF6FF452A400D8820E00000002C014057
:104470000004004000080040000C00400010004014
:104480000014004000340140004C01400050014045
:104490000054014000180040001C00400020004073
:1044A0000040014000440140004801404FF6FF76C3
:1044B00006EA05252A434DF6FF752B400D8906EACD
:1044C00005352B434D8806EA05352B43FA4DA842A6
:1044D00002D0FA4DA84208D14BF6FF752C408D89C9
:1044E0004FF6FF7606EA85152C4384808283CD88BB
:1044F000A0F84050038470BD828B4FF2FF331A4006
:104500008283828B4FF6FF7303EA01231A4382836F
:104510007047F0B50C461546002200210026078C96
:104520004EF6FF7C07EA0C070784828B018C4FF65E
:10453000FF7707EA043640F6FF473A404FF6FF7729
:1045400007EA05273A434FF6FF7707EA03373A436E
:10455000D94FB8420ED0D94FB8420BD0B0F1804FEE
:1045600008D0D74FB84205D0D64FB84202D0D64F68
:10457000B84206D14DF6FF77394046F480573943AB
:1045800005E047F6FF57394044F4805739438283AA
:104590000184F0BD828B4FF6F3731A408283828BC5
:1045A0000A4382837047F0B50C461546002200216D
:1045B0000026078C4FF6FF6C07EA0C070784828BF6
:1045C000018C4FF6FF7707EA04264FF60C773A4046
:1045D0004FF6FF7707EA03172F433A43B64FB84227
:1045E0000ED0B64FB8420BD0B0F1804F08D0B44FC8
:1045F000B84205D0B34FB84202D0B34FB84206D14B
:104600004FF6FF57394046F48077394305E04FF2C3
:10461000FF57394044F48077394382830184F0BDE9
:10462000028B4FF2FF331A400283028B4FF6FF7367
:1046300003EA01231A4302837047F0B50C4615467E
:10464000002200210026078C4FF6EF7C07EA0C07BA
:104650000784028B018C4FF6FF7707EA041640F6B9
:10466000FF473A404FF6FF7707EA03373A434FF6E2
:10467000FF7707EA05273A438F4FB8420ED08F4F96
:10468000B8420BD0B0F1804F08D08D4FB84205D062
:104690008C4FB84202D08C4FB84206D14FF6DF772C
:1046A000394046F01007394305E04FF65F7739404F
:1046B00044F01007394302830184F0BD028B4FF6AA
:1046C000F3731A400283028B0A4302837047F0B5EA
:1046D0000C46154600220021068C4FF6FE773E4020
:1046E0000684028B018C4FF60C7632407E1C06EA63
:1046F00003162E433243704EB0420ED06F4EB0427E
:104700000BD0B0F1804F08D06D4EB04205D06D4E49
:10471000B04202D06C4EB04206D14FF6FD76314029
:1047200044F00106314305E04FF6F576314044F0A0
:104730000106314302830184F0BD70B505460C4685
:104740005D4885420ED05D4885420BD0B5F1804F63
:1047500008D05B48854205D05A48854202D05A4865
:10476000854200D100E000BF208850B92389A2888B
:1047700061882846FFF7ABFFE1882846FFF79EFFD8
:1047800025E0208804280AD12389A2886188284648
:10479000FFF753FFE1882846FFF742FF17E0208824
:1047A00008280AD12389A28861882846FFF7FBFEE2
:1047B000E1882846FFF7EEFE09E02389A288618898
:1047C0002846FFF7A6FEE1882846FFF795FE70BD54
:1047D0002DE9F04105460C4600260127608808B9FE
:1047E000022600E00026A088012801D1022700E06F
:1047F00001272088A0B92389A28861882846FFF76D
:1048000066FFE1882846FFF759FF23893A4631467B
:104810002846FFF712FFE1882846FFF701FF13E063
:104820002389A28861882846FFF707FFE188284688
:10483000FFF7F6FE23893A4631462846FFF747FF41
:10484000E1882846FFF73AFFBDE8F0810A884B88E7
:104850001A438B881A43CB881A430B891A434B8916
:104860001A438B891A43A0F8442070474FF6FF7112
:10487000818000210180C180418001727047002148
:10488000018041808180C180018141818181C1811C
:104890007047002101804180012181800021C18079
:1048A000018170470021018041808180C1800181A8
:1048B0004181818170470000002C0140003401409B
:1048C0000004004000080040000C004021B10288B4
:1048D00042F00102028004E002884FF6FE731A40A3
:1048E0000280704731B1B0F8442042F40042A0F891
:1048F000442005E0B0F84420C2F30E02A0F84420A2
:1049000070471AB183890B43838102E083898B430B
:10491000838170478182704741EA0203A0F84830E2
:1049200070471AB183890B43838102E083898B43EB
:104930008381704701894FF6F872114001817047F9
:104940000A46002101894FF68F73194011430181F6
:10495000704730B504460D4629462046FFF7F0FF64
:10496000208940F00700208130BD2DE9F041044648
:104970000D4616461F46602D06D13B4601223146A4
:104980002046FFF75AFE05E03B460122314620460D
:10499000FFF79DFE29462046FFF7D2FF208940F011
:1049A00007002081BDE8F08130B50C460021018967
:1049B000C9B24FF6FF7505EA032515432543294380
:1049C000018130BD2DE9F04105460E461746984657
:1049D000002443463A4631462846FFF7E5FF2C8936
:1049E0004FF6F870044044F007044FF68F7004400F
:1049F00044F070042C81BDE8F081F0B504460D460A
:104A000016461F463B46324629462046FFF7CCFF56
:104A1000208940F480402081F0BD0185828270476A
:104A20000A46002101884FF68F7319401143018017
:104A30007047F0B50C4615461E46002100220023A3
:104A40000189028B038C4FF6F877394021434FF6EA
:104A5000FC473A4040F201173A434FF6DD773B40BE
:104A60004FF6FF7707EA06172F433B430181028386
:104A70000384F0BD0A460021018B4FF68F73194065
:104A80001143018370470A460021018B48F6FF73EA
:104A900019404FF6FF7303EA02231943018370475D
:104AA0000A460021818B4FF68F7319401143818391
:104AB00070470A460021818B48F6FF7319404FF674
:104AC000FF7303EA022319438183704721B10288EF
:104AD00042F08002028004E002884FF67F731A40A1
:104AE0000280704721B1828842F00402828004E093
:104AF00082884FF6FB731A408280704721B182880A
:104B000042F00802828004E082884FF6F7731A4070
:104B10008280704721B1828842F00102828004E0E5
:104B200082884FF6FE731A40828070470A46002141
:104B3000018B4FF6F77319401143018370470A4602
:104B40000021018B4FF2FF7319404FF6FF7303EA08
:104B500002231943018370470A460021818B4FF6D7
:104B6000F77319401143818370470A460021818BF6
:104B70004FF2FF7319404FF6FF7303EA0223194304
:104B8000818370470A460021018B4FF6FB73194061
:104B90001143018370470A460021018B4FF6FF3312
:104BA00019404FF6FF7303EA02231943018370474C
:104BB0000A460021818B4FF6FB7319401143818314
:104BC00070470A460021818B4FF6FF3319404FF69C
:104BD000FF7303EA02231943818370470A460021C9
:104BE000018B4FF67F7319401143018370470A46CA
:104BF0000021018BC1F30E014FF6FF7303EA02237C
:104C00001943018370470A460021818B4FF67F7359
:104C100019401143818370470A460021818BC1F3FB
:104C20000E014FF6FF7303EA022319438183704795
:104C30000A460021018C4FF6FD731940114301848F
:104C400070470A460021018C4FF6F7731940114353
:104C5000018470470A460021018C4FF6DF7319402A
:104C60004FF6FF7303EA02131943018470470A46A3
:104C70000021018C4FF67F7319404FF6FF7303EA52
:104C800002131943018470470A460021018C4FF634
:104C9000FF5319404FF6FF7303EA022319430184BF
:104CA00070470A460021018C4FF2FF7319404FF6FE
:104CB000FF7303EA02231943018470470A46002167
:104CC000018C4DF6FF7319404FF6FF7303EA023370
:104CD00019430184704730B5002301248C40A3B2EE
:104CE000048C9C430484048C02FA01F5ADB22C437D
:104CF000048430BD30B5002304248C40A3B2048C5E
:104D00009C430484048C02FA01F5ADB22C43048464
:104D100030BD70B503460020002418461830012528
:104D20008D40ACB21D8CA5431D8409B1082909D161
:104D300000EB6100056825F0700505600568154306
:104D400005600EE00D1FC5F34E052844056825F4E7
:104D5000E045056005684FF6FF7606EA0226354312
:104D6000056070BD21B1028842F00202028004E0B9
:104D700002884FF6FD731A400280704721B1028805
:104D800042F00402028004E002884FF6FB731A40EE
:104D90000280704721B1828842F08002828004E064
:104DA00082884FF67F731A408280704702884FF6E0
:104DB000F7731A40028002880A4302807047828893
:104DC0004FF68F731A40828082880A438280704730
:104DD00002894FF6F8731A40028102890A43028160
:104DE000704702894FF67F731A40028102890A4395
:104DF0000281704781847047818570478186704742
:104E00000187704781877047A0F84010704702887B
:104E10004FF6FF431A40028002880A43028070471F
:104E20000146888E70470146088F70470146888F7B
:104E300070470146B1F8400070470146888C7047C2
:104E40000146088D704702460020138A0B400BB1C3
:104E5000012000E000207047CA430282704730B54D
:104E60000246002000230024158A05EA01039589E3
:104E700005EA010413B10CB1012000E0002030BDAF
:104E8000CA430282704700000CB5002001900090D8
:104E90006C48006840F480306A49086000BF694887
:104EA000006800F4003000900198401C01900098C8
:104EB00018B90198B0F5A06FF1D16248006800F40C
:104EC000003010B10120009001E000200090009817
:104ED000012843D15C48006840F010005A4908603E
:104EE0000846006820F0030008600846006840F0AB
:104EF00002000860534840685249486008464068CC
:104F000048600846406840F4806048600846406851
:104F100020F47C1048600846406840F4E81048607F
:104F20000846006840F08070086000BF454800688F
:104F300000F000700028F9D04248406820F00300DB
:104F4000404948600846406840F00200486000BFA1
:104F50003C48406800F00C000828F9D10CBD10B5A1
:104F6000FFF792FF10BD10B53648006840F0010011
:104F7000344908600846406834490840314948606F
:104F800008460068324908402E4908600846006813
:104F900020F4802008600846406820F4FE00486045
:104FA0004FF41F008860FFF7DAFF4FF000602949D7
:104FB000086010BD10B5002100200022214B5B6865
:104FC00003F00C0121B1042906D0082928D107E0FB
:104FD000214B224C236027E01F4B204C236023E011
:104FE000184B5B6803F47010164B5B6803F4803257
:104FF000022303EB904022B9194B4343174C236023
:105000000DE0104B5B6803F4003323B1144B4343B2
:10501000124C236003E0104B4343104C236003E029
:105020000D4B0E4C236000BF00BF064B5B68C3F303
:1050300003130C4CE15C094B1B68CB40074C23600D
:1050400010BD000000100240002002400000FFF8E8
:10505000FFFFF6FE08ED00E000127A006800002075
:1050600000093D006C0000204FF000020429C0F050
:10507000128010F0030C00F01E80CCF1040CBCF187
:10508000020F18BF00F8012BA8BF20F8022BA1EBDC
:105090000C0100F010B85FEAC17C24BF00F8012BBE
:1050A00000F8012B48BF00F8012B7047704770478C
:1050B00070474FF0000200B51346944696462039DB
:1050C00022BFA0E80C50A0E80C50B1F12001BFF4C1
:1050D000F7AF090728BFA0E80C5048BF0CC05DF827
:1050E00004EB890028BF40F8042B08BF704748BF75
:1050F00020F8022B11F0804F18BF00F8012B7047E9
:10510000754600F02BF8AE4605006946534620F080
:105110000700854618B020B5FBF744F8BDE82040ED
:105120004FF000064FF000074FF000084FF0000B63
:1051300021F00701AC46ACE8C009ACE8C009ACE816
:10514000C009ACE8C0098D46704710B50446AFF3FE
:1051500000802046BDE81040FBF70FB800487047BC
:10516000EC00002001491820ABBEFEE7260002003B
:105170007047000094510008000000207C000000EF
:1051800028010008105200087C000020D40600000E
:1051900044010008000000000001000000000000C1
:1051A00000000000000000000000000000000000FF
:1051B000000000000000000000000000000C0000E3
:1051C00000000000000000000000000000000000DF
:1051D00000000000000000000000000000000000CF
:1051E00000000000000000000000000001020304B5
:1051F00001020304060708090204060800A24A0483
:105200000000000000000000010203040607080976
:04000005080000ED02
:00000001FF
