:020000040800F2
:10000000B02D00208901000801080008030800083D
:10001000070800080B0800080F080008000000008F
:1000200000000000000000000000000013080008AD
:10003000150800080000000017080008190800084B
:10004000A3010008A3010008A3010008A301000800
:10005000A3010008A3010008A3010008A3010008F0
:10006000A3010008A3010008A3010008A3010008E0
:10007000A3010008A3010008A3010008A3010008D0
:10008000A3010008A3010008A3010008A3010008C0
:100090009F1F0008A3010008A3010008A301000896
:1000A000A3010008A3010008A3010008A3010008A0
:1000B0007F210008852500080D260008A3010008FF
:1000C000A3010008A3010008A3010008A301000880
:1000D000A3010008A3010008A3010008A301000870
:1000E000A3010008A3010008A301000800F002F822
:1000F00000F03AF80AA090E8000C82448344AAF188
:100100000107DA4501D100F02FF8AFF2090EBAE885
:100110000F0013F0010F18BFFB1A43F0010318473B
:10012000605B0000805B0000103A24BF78C878C193
:10013000FAD8520724BF30C830C144BF04680C60ED
:10014000704700000023002400250026103A28BF35
:1001500078C1FBD8520728BF30C148BF0B60704739
:100160001FB51FBD10B510BD05F050FD1146FFF7BE
:10017000F7FF00F00BFB05F06EFD03B4FFF7F2FF95
:1001800003BC05F075FD0000094880470948004799
:10019000FEE7FEE7FEE7FEE7FEE7FEE7FEE7FEE737
:1001A000FEE7FEE704480549054A064B7047000094
:1001B000B75A0008ED000008B0270020B02D00203D
:1001C000B0290020B029002010B502F06FFF4FF4D5
:1001D000803002F08BFF02F0C8FF0446012C28D1CA
:1001E000002003F008F8A00203F00EF8002003F04E
:1001F00014F84FF4404003F02BF8022005F080F88B
:10020000102005F091F84FF4E011200402F0D6FF21
:10021000012002F0DFFF00BF392002F08AFF002832
:10022000FAD0022002F0D9FF00BF02F0DFFF082859
:10023000FBD101213C2003F0A7F80121084603F07F
:10024000A3F80121480203F09FF80121480603F0BA
:10025000A8F80121C80203F097F80121084603F02D
:10026000A0F80121022003F09CF80121042003F0F2
:1002700098F810BD10B545F2555002F0F7FE032076
:1002800002F0F7FE40F2E24002F0F6FE02F0F7FE66
:1002900002F0FAFE10BD08B54FF6FF70ADF8000091
:1002A00003208DF8020004208DF803006946FE4803
:1002B00002F08EFD4FF6FF70ADF8000003208DF8C0
:1002C000020004208DF803006946F84802F080FD22
:1002D0004FF6FF70ADF8000003208DF802000420F7
:1002E0008DF803006946F24802F072FD4FF6FF7088
:1002F000ADF8000003208DF8020004208DF8030003
:100300006946EC4802F064FD4FF4A870ADF80000B7
:1003100003208DF8020010208DF803006946E248A2
:1003200002F056FD47F20160ADF8000003208DF8A1
:10033000020010208DF803006946DC4802F048FDF9
:100340004FF43070ADF8000003208DF8020010204B
:100350008DF803006946D64802F03AFD01F01CF81A
:100360004FF4D560ADF8000003208DF802000420A2
:100370008DF803006946CC4802F02AFD48F60210C9
:10038000ADF8000003208DF8020004208DF8030072
:100390006946C64802F01CFD4FF4E050ADF800007D
:1003A00003208DF8020004208DF803006946C04840
:1003B00002F00EFD0420ADF8000003208DF80200CD
:1003C00004208DF803006946BA4802F001FD0420BC
:1003D000ADF8000003208DF8020010208DF8030016
:1003E0006946B34802F0F4FC0720ADF80000032092
:1003F0008DF8020028208DF803006946AA4802F013
:10040000E7FC0820ADF8000003208DF8020028204A
:100410008DF803006946A64802F0DAFC3320ADF8F7
:10042000000003208DF8020000208DF803006946CB
:100430009F4802F0CDFC4FF40060ADF8000048206A
:100440008DF803006946984802F0C2FC4FF48050D2
:10045000ADF8000018208DF803006946924802F0BC
:10046000B7FC08BD0EB5944803F01AFA684603F0CD
:100470003BFB00208DF806008DF807008DF8080082
:100480008DF809008DF80A008DF80B008DF8020038
:100490008DF8030005208DF8040000208DF805007C
:1004A0000920ADF800006946834803F012FA0122E2
:1004B0000221814803F096FD0EBD1FB500208DF886
:1004C0000A008DF80B0001208DF80C000020ADF81B
:1004D0000000ADF8020046F6FF70ADF804004FF6DC
:1004E000FF70ADF806000020ADF8080001208DF87F
:1004F0000D00684603F077FA01208DF80A0000200D
:100500008DF80B0001208DF80C006C480078400538
:10051000000CADF800000020ADF8020046F6FF70B8
:10052000ADF804004FF6FF70ADF806000020ADF8FE
:10053000080001208DF80D00684603F054FA0122EE
:1005400002215D4803F04EFD1FBD08B54FF4A060C9
:1005500002F070FB14208DF8000003208DF80100DC
:1005600001208DF802008DF80300684602F067FB59
:100570001C208DF8000000208DF8010001208DF86E
:1005800002008DF80300684602F059FB1D208DF82B
:10059000000001208DF801008DF802008DF80300A5
:1005A000684602F04CFB1E208DF8000002208DF8FA
:1005B000010001208DF802008DF80300684602F06A
:1005C0003EFB08BD0EB54FF0804003F08BFF64206A
:1005D000ADF8040048F69F40ADF800000020ADF8EB
:1005E0000600ADF8020069464FF0804004F04EF876
:1005F0000121880704F06CFE01221146900704F0E7
:10060000BCFB0121880704F09DFB2D4803F06AFF25
:10061000C820ADF8040048F69F40ADF80000002067
:10062000ADF80600ADF802006946254804F02EF842
:100630000121234804F04CFE01221146204804F019
:100640009CFB01211E4804F07DFB1E4803F04AFF7D
:100650004FF47A70ADF804004720ADF80000002098
:10066000ADF80600ADF802006946164804F00EF831
:100670000121144804F02CFE01221146114804F017
:100680007CFB0EBD00B58BB00121084602F06FFE69
:100690000D4803F0FDFD0D4800900D48019000202D
:1006A00002900420039015E000080140000C014076
:1006B00000100140001401400064004007000020C9
:1006C0000004004000080040080002404C240140A3
:1006D000BC0000200020049080200590400006907F
:1006E00080000790202008900002099000200A90C6
:1006F00069463F4803F06EFE0BB000BD00B585B003
:100700004FF4004002F0A4FD3A4802F0A1FE0020A0
:1007100000908DF804008DF805004FF460200290E1
:100720000020039001208DF810006946314802F046
:10073000B6FE01212F4802F0DEFE2E4802F0FDFE3B
:1007400000BF2C4802F0FEFE0028FAD1294802F032
:1007500003FF00BF274802F004FF0028FAD105B0CC
:1007600000BD1CB50921002002F048FC4FF40070C8
:10077000009000208DF8040008208DF8050001206D
:100780008DF80600684605F0A7F81CBD05F093F942
:10079000FFF71AFDFFF77FFDFFF7D7FE482002F0B5
:1007A000F3F94FF4FA7002F009FA00F037F8FFF7A6
:1007B00059FEFFF782FEFFF705FFFFF79FFF15E0E9
:1007C0000D48007830B100F08BF900200A4908701C
:1007D00002F055FC0948007820B101F059FB0020D7
:1007E0000649087001F092FB02F043F8E8E70000C8
:1007F00008000240002401400B0000200C000020F3
:10080000704700BFFEE700BFFEE700BFFEE700BF86
:10081000FEE7704770477047704700002DE9F041D0
:100820000821F74802F067FB04460421F54802F06E
:1008300062FB05460121F34802F05DFB06460221FA
:10084000F04802F058FB0746EF480470007840EA91
:100850004500ED4908700846007840EA86000870B7
:100860000846007840EAC700087008460078082863
:1008700001DD08200870E4480078C01DE2490870D6
:10088000BDE8F0812DE9F04F87B006460F461546CA
:10089000002400200690DC48007840F0800B4FEAEE
:1008A000162906F0FF0ACDF804B000208DF80C00E0
:1008B0008DF80D00052D19DC002D17DDE81CC0B2E8
:1008C0008DF80E0000208DF80F008DF810A08DF827
:1008D000119000BF07E017F8012B0DF10F00E11C8C
:1008E0004254601C84B2AC42F5DB02E000208DF87B
:1008F0000E0001A9C54803F065F9804601E0601CBF
:1009000084B24146C14803F0F5F9012802D0B4F59C
:100910007A7FF4DBB4F57A7F05D14146BB4803F01A
:100920002EFA01200690069807B0BDE8F08F2DE959
:10093000F04786B004460025AA46B548007800284E
:100940007BD1B148007840F08009AF48007800F2D0
:100950006110B049088008460088070A08460088E8
:1009600000F0FF08CDF8049000208DF80C008DF801
:100970000D0008208DF80E0001208DF80F008DF875
:1009800010808DF8117014F8011B8DF8121014F8F6
:10099000011B8DF8131014F8011B8DF8141014F8B6
:1009A000011B8DF8151014F8011B8DF8161001A904
:1009B000964803F007F9064604E001A9934803F0BE
:1009C00001F90646042EF8D001E0681C85B23146D4
:1009D0008E4803F08FF9012802D0B5F5FA6FF4DBE9
:1009E000B5F5FA6F05D13146884803F0C8F94FF0E4
:1009F000010A08208DF80E0002208DF80F008DF8F6
:100A000010808DF8117014F8011B8DF8121014F875
:100A1000011B8DF8131014F8011B8DF8141014F835
:100A2000011B8DF8151014F8011B8DF8161001A983
:100A3000764803F0C7F8064605E04FE001A9734881
:100A400003F0C0F80646042EF8D001E0681C85B219
:100A500031466E4803F04EF9012802D0B5F5FA6F21
:100A6000F4DBB5F5FA6F05D13146684803F087F934
:100A70004FF0010A04208DF80E0003208DF80F00BE
:100A80008DF810808DF8117014F8011B8DF812107C
:100A900001A95E4803F096F8064604E001A95B4808
:100AA00003F090F80646042EF8D001E0681C85B2E9
:100AB0003146564803F01EF9012802D0B5F5FA6F09
:100AC000F4DBB5F5FA6F05D13146504803F057F91C
:100AD0004FF0010A504606B0BDE8F08700BFFAE7C4
:100AE000F0B585B0002400264748007840F49067B0
:100AF000009700208DF808008DF809008DF80A0095
:100B00006946424803F05EF8054601E0601C84B285
:100B100029463E4803F0EEF8012802D0B4F5FA6FFA
:100B2000F4DBB4F5FA6F04D12946384803F027F90D
:100B30000126304605B0F0BD01460022002305E045
:100B4000354850F821000244581CC3B2012BF7DB92
:100B500090B270470146012906D002296CD00329C2
:100B600078D0042977D113E12C488078401178B3EC
:100B70002A4840780011D8B129480078052801DAC0
:100B80000020704726480078052805DB24480078B7
:100B90000A2801DA0120F4E7214800780A2805DB59
:100BA0001F4800780F2801DA0020EAE70120E8E773
:100BB0001B480078052801DA0120E2E71848007890
:100BC000052806DB164800780A2802DA0020D8E754
:100BD0000BE0134800780A2805DB114800780F283D
:100BE00001DA0120CDE70020CBE70C484078001166
:100BF000D0B10B4800780A2814DA0020C1E71BE0C6
:100C0000001001400008014007000020006400407F
:100C10005300002016000020BC0000209826002071
:100C2000000000200120ACE7FA4800780A2801DA29
:100C30000120A6E70020A4E7F7488078401188B398
:100C4000F54840780011E8B1F2480078052803DA49
:100C5000002096E747E0F0E0EE480078052805DB45
:100C6000EC4800780A2801DA01208AE7E948007890
:100C70000A2805DBE74800780F2801DA002080E722
:100C800001207EE7E3480078052801DA012078E7B3
:100C9000E0480078052806DBDE4800780A2802DAFA
:100CA00000206EE70BE0DB4800780A2805DBD94816
:100CB00000780F2801DA012063E7002061E7D648B9
:100CC0004078001138B1D34800780A2801DA0020B2
:100CD00057E7012055E7CF4800780A2801DA0120BC
:100CE0004FE700204DE7CD488078401178B3CB48DE
:100CF00040780011D8B1C7480078052801DA0020F3
:100D00003FE7C4480078052805DBC24800780A2878
:100D100001DA012035E7BF4800780A2805DBBD4825
:100D200000780F2801DA00202BE7012029E7B948D5
:100D30000078062801DA012023E7B6480078052864
:100D400006DBB44800780A2802DA002019E70BE035
:100D5000B04800780A2805DBAE4800780F2801DA91
:100D600001200EE700200CE7AC484078001138B1B4
:100D7000A84800780A2801DA002002E7012000E7ED
:100D8000A44800780A2801DA0120FAE60020F8E6F3
:100D9000A3488078401178B3A14840780011D8B1B9
:100DA0009C480078052801DA0020EAE69948007896
:100DB000052805DB974800780A2801DA0120E0E6DB
:100DC000944800780A2805DB924800780F2801DA59
:100DD0000020D6E60120D4E68E480078052801DA06
:100DE0000120CEE68B480078052806DB894800788C
:100DF0000A2802DA0020C4E60BE0864800780A28B8
:100E000005DB844800780F2801DA0120B9E60020CC
:100E1000B7E683484078001138B17E4800780A2848
:100E200001DA0020ADE60120ABE67A4800780A2816
:100E300001DA0120A5E60020A3E600BF00BF00BF45
:100E40009FE678480078052801DA002070470120E5
:100E5000FCE72DE9F04107460D46002406E007F1C6
:100E60000B00005D70490855601CC4B2AC42F6DB53
:100E70006D4840786C49897840EA01266B480078D3
:100E80001730B04204D00A21674804F095FE04E010
:100E900000206049087063490870BDE8F08110B512
:100EA00002460023012A06D0022A14D0032A22D0A7
:100EB000042A40D12FE05C48C07800F00F035A4864
:100EC000C07800F010005A4948705748C07800F0C8
:100ED0002000887030E05448007900F00F03524839
:100EE000007900F010004C4948704F48007900F03C
:100EF0002000887020E04C48407900F00F034A48F9
:100F0000407900F01000454948704748407900F0AA
:100F10002000887010E04448807900F00F034248B8
:100F2000807900F010003E4948703F48807900F019
:100F30002000887000E000BF00BF102B69D2DFE8FE
:100F400003F0081F37507D9EC1E2FDFCFBFAF9F863
:100F5000F7F6002137480078401E00EB4000364C81
:100F6000215434480078401E00EB4000204441707A
:100F700030480078401E00EB40002044817055E16D
:100F800001212C480078401E00EB40002A4C2154DF
:100F9000002128480078401E00EB400020444170AA
:100FA00024480078401E00EB4000204481703DE161
:100FB000002120480078401E00EB40001E4C2154C8
:100FC00001211C480078401E00EB40002044417085
:100FD000002118480078401E00EB4000204481703A
:100FE00024E1002113480078401E00EB4000124C21
:100FF000215410480078401E00EB4000204441700E
:1010000001210C480078401E00EB40002044817014
:101010000CE10AE100000020A5260020B5260020F2
:10102000C526002001000020CC0000200700002081
:101030009826002005000020A40000201046FFF79D
:1010400089FDF8490978491E01EB4101F64C6054CD
:101050000121501E00EB4000F44C21540021F148C6
:101060000078401E00EB4000EF4C20444170ED48FA
:101070000078401E00EB400020448170D6E0002143
:10108000E8480078401E00EB4000E74C2154104631
:10109000FFF760FDE3490978491E01EB4101214456
:1010A00048700121501E00EB4000E04C204441708C
:1010B0000021DC480078401E00EB4000DA4C204460
:1010C0008170B3E00021D7480078401E00EB40005B
:1010D000D54C2154D3480078401E00EB40002044FA
:1010E00041701046FFF736FDCE490978491E01EBE5
:1010F0004101214488700121501E00EB4000CB4C7F
:101100002044817092E00121C6480078401E00EB27
:101110004000C54C2154C3480078401E00EB4000FD
:10112000204441700021BF480078401E07E07BE06A
:1011300079E077E075E073E052E031E004E000EB45
:1011400040002044817071E01046FFF703FDB5496F
:101150000978491E01EB4101B34C60540121501E36
:1011600000EB4000B14C21541046FFF7F3FCAD49B1
:101170000978491E01EB4101AB4C21444870012123
:10118000501E00EB4000A94C204441700021A548AE
:101190000078401E00EB4000A34C2044817045E0E5
:1011A000FFF74FFE9F490978491E01EB41019E4C14
:1011B0006054C821501E00EB40009C4C215400217B
:1011C00098480078401E00EB4000974C2044417046
:1011D00094480078401E00EB40002044817025E0D8
:1011E000002190480078401E00EB40008E4C2154B6
:1011F0008C480078401E00EB400020444170FFF70F
:1012000020FE88490978491E01EB4101214488707C
:10121000C821501E00EB4000844C2044817005E042
:1012200004E003E002E001E000E000BF00BF10BD09
:1012300010B501207B49087008E07A480078FFF774
:101240002EFE78480078401C764908707548007872
:101250000428F2DD7448007820B11021744801F0B0
:1012600066FE03E01021724801F05FFE6E48407890
:1012700020B140216E4801F05AFE03E040216C4845
:1012800001F053FE6848807820B10121694801F0DF
:101290004EFE03E00121674801F047FE6248C07836
:1012A00028B14FF48061634801F041FE04E04FF43F
:1012B0008061604801F039FE5B48007928B14FF445
:1012C00080515C4801F033FE04E04FF480515948EE
:1012D00001F02BFE5448407928B14FF40051554895
:1012E00001F025FE04E04FF40051524801F01DFECC
:1012F0004D48807928B14FF480414E4801F017FEE7
:1013000004E04FF480414B4801F00FFE4648C0799D
:1013100020B14021484801F00AFE03E04021464840
:1013200001F003FE4048007A20B18021424801F0DC
:10133000FEFD03E08021404801F0F7FD3A48407A85
:1013400028B14FF400713C4801F0F1FD04E04FF486
:101350000071394801F0E9FD3348807A28B14FF433
:101360008071334801F0E3FD04E04FF480713048B0
:1013700001F0DBFD2C48C07A28B14FF400712D48F4
:1013800001F0D5FD04E04FF400712A4801F0CDFDD5
:1013900001202A49087010BD10B51021244801F021
:1013A000C4FD4021224801F0C0FD0121214801F087
:1013B000BCFD4FF480611F4801F0B7FD4FF4805130
:1013C0001C4801F0B2FD4FF400511A4801F0ADFD88
:1013D0004FF48041174801F0A8FD4021164801F064
:1013E000A4FD8021144801F0A0FD4FF400711248C3
:1013F00001F09BFD4FF480710D4801F096FD4FF414
:1014000000710C4801F091FD10BD10B50C4800783A
:10141000002876D00821064801F06DFD90B9012022
:1014200011E0000005000020A40000208C26002010
:1014300000080140000C0140001001405500002050
:10144000190000200020F74909780843F549087081
:101450002021F54801F04FFD08B9012000E00020EF
:10146000F04949780843EF4948708021EE4801F07F
:1014700042FD08B9012000E00020EA4989780843CC
:10148000E84988700221E94801F035FD08B90120DA
:1014900000E00020E349C9780843E249C8704FF4EE
:1014A0000061E24801F027FD08B9012000E00020BA
:1014B000DC4909790843DB4908714FF40061DC48D5
:1014C00001F019FD08B9012000E00020D549497953
:1014D0000843D44948714FF48061D54801F00BFDB1
:1014E00008B9012000E00020CE4989790843CD49A0
:1014F00088714FF48061CC4801F0FDFC10B90120E7
:1015000001E03CE00020C749C9790843C549C871DA
:101510004FF40071C44801F0EEFC08B9012000E06E
:101520000020C049097A0843BE4908724FF480512F
:10153000BF4801F0E0FC08B9012000E00020B949F3
:10154000497A0843B74948720421BA4801F0D3FCEC
:1015500008B9012000E00020B249897A0843B14966
:1015600088724FF48071B14801F0C5FC08B90120C0
:1015700000E00020AB49C97A0843AA49C8724FF479
:101580000041AA4801F0B7FC08B9012000E00020A2
:10159000A94909780843A849087010BD30B5034629
:1015A0000BB9002030BD00219A0F9B00012A01D900
:1015B000491C521A0F240DE04900920002EB93726D
:1015C0000D46012000EB45059B00AA4201D3521BAA
:1015D000491C641E002CEFD10846E3E72DE9F041D9
:1015E00005460E464FF000080027002406E055F897
:1015F000240055F8241000FB0177641CB442F6DB8C
:1016000097FBF6F84046FFF7C9FF80464046BDE825
:10161000F08184480078012807D1884800780128A3
:1016200003D100208649C87022E07E48007840B986
:101630008248007828B901208149C87000200871CB
:1016400016E078480078012807D17C48007820B956
:1016500002207B49C87008710AE07248007838B9E6
:1016600076480078012803D103207549C8700871B5
:101670006C48007801280BD170480078012807D108
:1016800070480088082803DB00206D49087110E0CD
:101690006448007801280CD168480078012808D1F6
:1016A00068480088082804DA012065490871032089
:1016B000C8705C484078012807D16048407801280C
:1016C00003D100205E49487122E05648407840B975
:1016D0005A48407828B9012059494871002088713A
:1016E00016E050484078012807D15448407820B986
:1016F00002205349487188710AE04A48407838B955
:101700004E484078012803D103204D494871887123
:101710004448407801280BD148484078012807D137
:1017200048480088082803DB00204549887110E0FC
:101730003C48407801280CD140484078012808D125
:1017400040480088082804DA01203D4988710320B8
:10175000487134488078012807D1384880780128BA
:1017600003D100203649C87122E02E48807840B964
:101770003248807828B901203149C87100200872A8
:1017800016E028488078012807D12C48807820B9B5
:1017900002202B49C87108720AE02248807838B9C3
:1017A00026488078012803D103202549C871087292
:1017B0001C48807801280BD120488078012807D167
:1017C00020480088082803DB00201D49087210E02B
:1017D0001448807801280CD118488078012808D155
:1017E00018480088082804DA0120154908720320E7
:1017F000C8710C48C078012807D11048C07801286A
:1018000003D100201049C87037E00648C078E8B915
:101810000A48C078D0B901200B49C870002008716F
:101820002BE00000D600002000080140000C014021
:1018300000100140001401401F000020A4000020FF
:10184000982600203C000020A5260020FE48C078F5
:10185000012807D1FD48C07820B90220FC49C87092
:1018600008710AE0F848C07838B9F848C07801280B
:1018700003D10320F649C8700871F348C0780128E5
:101880000BD1F248C078012807D1F2480088082817
:1018900003DB0020EE49087110E0EB48C078012816
:1018A0000CD1EA48C078012808D1EA480088082805
:1018B00004DA0120E64908710320C870E248007983
:1018C000012807D1E1480079012803D10020E0492F
:1018D000487122E0DC48007940B9DC48007928B939
:1018E0000120DB4948710020887116E0D648007954
:1018F000012807D1D548007920B90220D449487180
:1019000088710AE0D048007938B9D04800790128B8
:1019100003D10320CE4948718871CB480079012852
:101920000BD1CA480079012807D1CA480088082885
:1019300003DB0020C649887110E0C3480079012804
:101940000CD1C2480079012808D1C2480088082873
:1019500004DA0120BE49887103204871BA484079F1
:10196000012807D1B9484079012803D10020B8499E
:10197000C87122E0B448407940B9B448407928B9E8
:101980000120B349C8710020087216E0AE484079C2
:10199000012807D1AD48407920B90220AC49C8716F
:1019A00008720AE0A848407938B9A8484079012867
:1019B00003D10320A649C8710872A34840790128C1
:1019C0000BD1A2484079012807D1A24800880828F5
:1019D00003DB00209E49087210E09B4840790128F3
:1019E0000CD19A484079012808D19A4800880828E3
:1019F00004DA0120964908720320C8719248807960
:101A0000012807D191488079012803D1002092490B
:101A1000C87022E08C48807940B98C48807928B918
:101A200001208D49C8700020087116E08648807931
:101A3000012807D18548807920B902208649C870DD
:101A400008710AE08048807938B980488079012897
:101A500003D103208049C87008717B488079012830
:101A60000BD17A488079012807D17C480088082862
:101A700003DB00207849087110E073488079012861
:101A80000CD172488079012808D174480088082850
:101A900004DA0120704908710320C8706A48C079CF
:101AA000012807D16948C079012803D100206A497B
:101AB000487122E06448C07940B96448C07928B9C7
:101AC0000120654948710020887116E05E48C079A0
:101AD000012807D15D48C07920B902205E494871CC
:101AE00088710AE05848C07938B95848C079012847
:101AF00003D103205849487188715348C07901289F
:101B00000BD15248C079012807D1544800880828D1
:101B100003DB00205049887110E04B48C079012850
:101B20000CD14A48C079012808D14C4800880828BF
:101B300004DA012048498871032048714248007A3C
:101B4000012807D14148007A012803D100204249E9
:101B5000C87122E03C48007A40B93C48007A28B974
:101B600001203D49C8710020087216E03648007A0D
:101B7000012807D13548007A20B902203649C871BA
:101B800008720AE03048007A38B93048007A0128F3
:101B900003D103203049C87108722B48007A01280C
:101BA0000BD12A48007A012807D12C480088082840
:101BB00003DB00202849087210E02348007A01283E
:101BC0000CD12248007A012808D12448008808282E
:101BD00004DA0120204908720320C8711A48407AAB
:101BE000012807D11948407A012803D100201C4957
:101BF000C87022E01448407A40B91448407A28B9A5
:101C000001201749C8700020087116E00E48407A7C
:101C1000012807D10D48407A20B902201049C87028
:101C200008710AE00848407A38B90848407A012823
:101C300003D103200A49C87008710348407A01287B
:101C40001AD10248407A0DE0D6000020A4000020FE
:101C5000A52600203E000020B526002040000020E0
:101C6000C5260020012807D1FE480088082803DB8C
:101C70000020FD49087110E0FC48407A01280CD191
:101C8000FB48407A012808D1F6480088082804DA81
:101C90000120F54908710320C870F448807A0128B2
:101CA00007D1F348807A012803D10020EE4948711A
:101CB00022E0EE48807A40B9ED48807A28B90120C8
:101CC000E94948710020887116E0E848807A0128C7
:101CD00007D1E748807A20B90220E349487188712A
:101CE0000AE0E248807A38B9E148807A012803D1D5
:101CF0000320DD4948718871DC48807A01280BD1C6
:101D0000DB48807A012807D1D6480088082803DB01
:101D10000020D549887110E0D448807A01280CD180
:101D2000D348807A012808D1CE480088082804DAF0
:101D30000120CD49887103204871CC48C07A012820
:101D400007D1CB48C07A012803D10020C649C87109
:101D500022E0C648C07A40B9C548C07A28B90120F7
:101D6000C149C8710020087216E0C048C07A012835
:101D700007D1BF48C07A20B90220BB49C871087298
:101D80000AE0BA48C07A38B9B948C07A012803D104
:101D90000320B549C8710872B448807A01280BD174
:101DA000B348C07A012807D1AE480088082803DB71
:101DB0000020AD49087210E0AC48807A01280CD1AF
:101DC000AB48C07A012808D1A6480088082804DA60
:101DD0000120A54908720320C871704710B505237A
:101DE00001220A21A34801F0F2FB0121A14801F0E0
:101DF000C2FB00BF02219F4801F02EFD0028F9D050
:101E00009C4801F04BFC9C490860052301220B21F2
:101E1000984801F0DCFB0121964801F0ACFB00BFC3
:101E20000221944801F018FD0028F9D0914801F0F2
:101E300035FC92490860052301220E218D4801F0EE
:101E4000C6FB01218B4801F096FB00BF02218948A7
:101E500001F002FD0028F9D0864801F01FFC8849F6
:101E60000860052301220F21824801F0B0FB012107
:101E7000804801F080FB00BF02217E4801F0ECFCAD
:101E80000028F9D07B4801F009FC7E49086010BDAC
:101E900010B564217C48FFF7A1FB80B24FF4A67116
:101EA00048434400E01704EB1050001377490880C2
:101EB00064217748FFF792FB80B24FF4A671484344
:101EC0004400E01704EB10500013724908806421AD
:101ED0007148FFF783FB80B24FF4A671484344007A
:101EE000E01704EB105000136C49088064216C4823
:101EF000FFF774FB80B24FF4A67148434400E0172B
:101F000004EB105000136749088010BD10B56648F7
:101F1000007810B1012812D10CE06448007820B19B
:101F20000421634801F003F803E00421604800F055
:101F3000FCFF05E004215E4800F0F9FF00E000BF6F
:101F400000BF10BD5B48C07800F010005A494870CF
:101F50005848C07800F0200088705648007900F09A
:101F60001000564948705348007900F020008870EE
:101F70005048407900F01000514948704D48407970
:101F800000F0200088704B48807900F0100036493E
:101F900048704848807900F020008870704710B57C
:101FA00086B00020019002908DF80C008DF80E0094
:101FB0008DF81700002408E000210DF10F000155F5
:101FC000002040490855601CC4B2082CF4DB01AA6B
:101FD00000213D4801F0EBFE002406E00DF10F006A
:101FE000005D38490855601CC4B29DF80E00A0423F
:101FF000F4DC9DF80C0000287CD19DF80E00002830
:1020000079DD9DF80E1001A8FEF723FFFFF79AFF78
:102010002E48007830B901202C49087001212C4845
:1020200002F090FE2B48007868B963204FF08041A1
:1020300088840020284908702849087028490870B9
:10204000C7202849088028480078042809D1274853
:10205000FEF76DFC0020264908700A21234803F092
:10206000ABFD49E042000020C5260020D60000203C
:10207000A4000020002401402400002028000020AB
:102080002C00002030000020E4000020340000205C
:1020900074020020360000200404002038000020D4
:1020A000940500203A000020530000200200002088
:1020B00000100140CC00002098260020A52600201A
:1020C000B52600200E00002000640040090000201A
:1020D000000800400A00002000000020230000202B
:1020E000030000202404004020000020B000002055
:1020F0000600002041E02CE00120FA490870C720CA
:10210000F94908806320090788840020F74908708E
:102110000C20F74908700020F6490870F64908704D
:10212000F6490880F6490880F6490880F649088093
:10213000F6490880F6490880F6490880F649088083
:10214000F64800210160416081600A21F44803F0F3
:1021500033FD9DF80E0080B90120F24908700C2073
:10216000F14908700020F1490870F148007808B979
:10217000012000E00020EE49087006B010BD08B54F
:102180000121880703F0A7F800287DD001218807E6
:1021900003F0B2F8E5480078002876D1E5480078E9
:1021A00060B90D208DF8000004208DF80100022296
:1021B000694640F27110FEF765FB00BFFFF738F883
:1021C0000120DC490870CC480078012810D1DA4899
:1021D000007868B10120D9490870D94908700020F9
:1021E000D8490880D8490880D8490880D84908804B
:1021F000C148007803287DD1CC4800780028FAD166
:10220000CD480078002876D0D2480088CD4909888A
:10221000884203DDCF480088B8490880CE4800884E
:10222000C9490988884203DDCB480088B449088041
:10223000CA480088C5490988884203DDC748008824
:10224000B0490880C6480088C1490988884203DD32
:10225000C3480088AC490880BE480088B949088056
:10226000BD480088B8490880BC480088B749088044
:10227000BB480088B6490880FFF7CBF9B948002170
:1022800001604160816001E02AE105E1A34801604D
:1022900041608160B44880798001B349497940EA5E
:1022A0000110B149097940EA8100AF49C978084372
:1022B0009B490870AD4800798001AC49C97840EA73
:1022C0000110A949097A40EA8100A749C979084360
:1022D00093494870A548007A8001A449C97940EA29
:1022E0000110A249897940EA8100A049497908434F
:1022F0008B4901E0BEE0ACE088709D4880798001A8
:102300009B49497940EA01109949097940EA8100DD
:102310009749C97808438249C87096480079800176
:102320009449C97840EA01109149097A40EA81004C
:102330008F49C97908437A4908718E48007A80012B
:102340008C49C97940EA01108A49897940EA8100BB
:1023500088494979084372494871002076490870D4
:1023600066480088032803DA00206449088006E0F4
:1023700062480088C82802DDFF2060490880604864
:102380000088032803DA00205D49088006E05C48E5
:102390000088C82802DDFF20594908805948008874
:1023A000032803DA00205749088006E055480088D2
:1023B000C82802DDFF2053490880534800880328BD
:1023C00003DA00205049088006E04F480088C828FA
:1023D00002DDFF204C49088051488079474909882F
:1023E000884203DA454800784D4988714C48C079E5
:1023F00043490988884203DA414800784849C8714E
:102400004748007A3F490988884203DA3D48007806
:10241000434908724248407A3B490988884203DAB6
:10242000394800783E4948725348007818B1AA20CC
:102430003B4988720DE055203949887200200870A8
:1024400048708870C870087148718871C8710872C6
:10245000487200204949087026480078401C2549E8
:10246000087008460078052801D100200870002077
:102470003249087020480078401C1F4908700846FF
:10248000007804280BD12648FEF751FA00201A499B
:1024900008703949087002E0002017490870384870
:1024A0000078002808DD36480078C82804DA344867
:1024B0000078401C324908701C48007820B1FEF7B3
:1024C0006BFF00201B49087008480078142802D1CF
:1024D00000200649087005480078401C0349087030
:1024E00008BD00000A000020240400400000002075
:1024F0005100002020000020230000204400002084
:1025000046000020480000204A000020560000201D
:10251000580000205A0000205C0000208C2600207B
:10252000B0000020080000205200002053000020CE
:10253000020000200D00002055000020190000209E
:10254000220000203C0000203E000020400000202F
:102550004200002034000020360000203800002017
:102560003A000020D600002098260020A526002052
:10257000B5260020C52600201F00002006000020F0
:102580000100002010B50121FE4802F0A4FE002841
:102590003BD00121FB4802F0AFFEFB480078401C15
:1025A000F9490870F9480078C8280DDAF74800782A
:1025B000401CF6490870084600780A2804D100201B
:1025C00008700120F2490870F248007890B1F24892
:1025D0000078401EF04908700846007850B9FEF7B0
:1025E000DBFE0020EB490870EC4908700A21EC483A
:1025F00003F0E2FAEB48007810B90120EA490870CC
:10260000E8480078401EE749087010BD10B5012168
:10261000E64802F060FE002870D00121E34802F095
:102620006BFEFEF7F2FEFFF7D9FBE1480078652864
:102630002DDAE048007850B3DF480068DF49DC4A13
:10264000127841F82200DE480068DE49D84A127844
:1026500041F82200DC480068DC49D54A127841F88C
:102660002200DB480168DB48D14A127840F822108A
:10267000CF480078401CCE4908700846007865288D
:1026800005D10120D44908700020CA490870D348F8
:102690000078012800D100E00020D04949780129C4
:1026A00000D100E000210843CC498978012900D1FC
:1026B00000E000210843E0B1C9480088FA280DDB9A
:1026C000C748008840F2EE21884207DABA4801681C
:1026D000C3480088FA38C34A42F82010C04800882E
:1026E00040F2EE21884204D10120BF490870BF4961
:1026F0000870BA48C078012801D101E0B8E0002094
:10270000B6490979012900D100E000210843B34905
:102710004979012900D100E000210843E0B1B44823
:102720000088FA280DDBB248008840F2EE2188428A
:1027300007DAA3480168AE480088FA38AD4A42F883
:102740002010AB48008840F2EE21884204D10120DD
:10275000A9490870A9490870A0488079012800D1CA
:1027600000E000209D49C979012900D100E0002145
:1027700008439A49097A012900D100E00021084361
:10278000E0B19F480088FA280DDB9D48008840F2A0
:10279000EE21884207DA8C48016899480088FA38A7
:1027A000984A42F820109648008840F2EE2188426C
:1027B00004D1012094490870944908708748407AF0
:1027C000012800D100E000208449897A012900D144
:1027D00000E0002108438149C97A012900D100E0C5
:1027E00000210843E0B18A480088FA280DDB8848B8
:1027F000008840F2EE21884207DA75480168844873
:102800000088FA38834A42F820108148008840F254
:10281000EE21884204D101207F4908707F49087069
:102820006F480088B0F57A7F04DA6D480088401C54
:102830006B4908806E480088B0F57A7F04DA6C48EE
:102840000088401C6A4908806D480088B0F57A7F8E
:1028500004DA6B480088401C694908806C4800888D
:10286000B0F57A7F04DA6A480088401C684908801D
:1028700010BD10B55C480078012840D14FF4FA71C2
:102880005848FEF7ABFE80B24FF4A67148434400AF
:10289000E01704EB105000136149088008460088D7
:1028A00060490988884208DB5D480088032804DD08
:1028B0005B4800885B4908800EE05A480088584908
:1028C0000988401A002807DD55480088032803DDE1
:1028D000534800885349088053480078401C5249A7
:1028E000087008460078032806D14D4800884D49F5
:1028F000088000204C49087000203B4908703E4881
:10290000007801283CD14FF4FA713A48FEF766FE90
:1029100080B24FF4A67148434400E01704EB105016
:1029200000134249088008460088414909888842C6
:1029300008DB3E480088032804DD3C4800883C4909
:1029400008800EE03A48008838490988401A002873
:1029500007DD36480088032803DD34480088344901
:10296000088034480078401C3249087008460078D6
:10297000032863D12D4800882D49088000205BE0A2
:102980005FE05BE0000400407700002003000020CF
:102990000B0000200A00002051000020230000202E
:1029A000CC0000205200002053000020000800400E
:1029B000060000202200002024000020E400002067
:1029C00028000020740200202C00002004040020B5
:1029D00030000020940500200C0000208C260020F0
:1029E00056000020240700201A000020720000205A
:1029F00058000020F40E00201B000020730000206F
:102A00005A000020C41600201C0000207400002082
:102A10005C000020941E00201D0000207500002096
:102A2000660000205E0000206E000020680000208C
:102A3000600000206F0000204749087000204749CF
:102A4000087047480078012840D14FF4FA71454892
:102A5000FEF7C4FD80B24FF4A67148434400E0176E
:102A600004EB1050001340490880084600883F4995
:102A70000988884208DB3C480088032804DD3A487E
:102A800000883A4908800EE03848008836490988AD
:102A9000401A002807DD34480088032803DD324847
:102AA00000883249088032480078401C304908705C
:102AB00008460078032806D12B4800882B49088057
:102AC00000202B490870002025490870294800780B
:102AD000012840D14FF4FA712748FEF77FFD80B2FC
:102AE0004FF4A67148434400E01704EB1050001364
:102AF000224908800846008821490988884208DB65
:102B00001E480088032804DD1C4800881C490880F2
:102B10000EE01B48008819490988401A002807DD83
:102B200016480088032803DD1448008814490880EB
:102B300014480078401C13490870084600780328A0
:102B400006D10E4800880E49088000200D49087003
:102B500000200849087010BD6F0000201B000020F5
:102B60001C000020C41600206A0000206200002023
:102B7000700000201D000020941E00206C0000202A
:102B8000640000207100002010B504466FF00400BE
:102B900000F09FF8E11704EB5171C1F3C701234A1C
:102BA00011701046007800EB4001C1EBC0104FF6E9
:102BB000FF7101EAC0001E49088010BD01461C4A91
:102BC00012884A434FF0E0235A6100229A610122A1
:102BD0001A6100BF4FF0E022106900F001021AB143
:102BE00000F48032002AF5D000224FF0E0231A6171
:102BF0009A61704701460D4A12784A434FF0E0232C
:102C00005A6100229A6101221A6100BF4FF0E0224E
:102C1000106900F001021AB100F48032002AF5D0E8
:102C200000224FF0E0231A619A617047780000207B
:102C30007A00002031490143314A1160704770B574
:102C4000002100230F22C47804B32D4C246804F41F
:102C5000E064C4F5E064210AC1F10403CA40447889
:102C600004FA03F18478144021430901254C0678C5
:102C7000A155047804F01F050124AC4005786D11BE
:102C8000AD0005F1E025C5F8004109E0047804F045
:102C90001F050124AC401C4D0678761145F82640EE
:102CA00070BD1A4A0A400243154B1B1F1A60704739
:102CB00039B1134A121D12680243114B1B1D1A60D1
:102CC00006E00F4A121D126882430D4B1B1D1A604D
:102CD0007047042808D14FF0E021096941F0040150
:102CE0004FF0E022116107E04FF0E021096921F087
:102CF00004014FF0E0221161704700000000FA0566
:102D00000CED00E000E400E080E100E080FFFF1F48
:102D100010B50446CC48844208D10121042000F0BB
:102D20004DFB0021042000F049FB46E0C7488442E7
:102D300008D10121082000F041FB0021082000F00B
:102D40003DFB3AE0C248844208D10121102000F046
:102D500035FB0021102000F031FB2EE0BD488442FD
:102D600008D10121202000F029FB0021202000F0C3
:102D700025FB22E0B848844208D10121402000F020
:102D80001DFB0021402000F019FB16E0B3488442EF
:102D900008D10121802000F011FB0021802000F0EB
:102DA0000DFB0AE0AE48844207D10121801500F0F6
:102DB00005FB0021A01500F001FB10BD10B501219D
:102DC000084600F0FBFA0021012000F0F7FA10BDE0
:102DD0002DE9F041024600250026002000230024B2
:102DE000002791F803C00CF00F0591F803C00CF018
:102DF000100CBCF1000F03D091F802C04CEA05059D
:102E000091F800C0BCF1000F31D0146800202BE015
:102E10004FF0010C0CFA00F3B1F800C00CEA030605
:102E20009E4220D183004FF00F0C0CFA03F7BC43F5
:102E300005FA03FC4CEA040491F803C0BCF1280F26
:102E400006D14FF0010C0CFA00FCC2F814C00AE0E5
:102E500091F803C0BCF1480F05D14FF0010C0CFAFA
:102E600000FCC2F810C0401C0828D1D31460B1F88F
:102E700000C0BCF1FF0F34DD546800202EE000F1EB
:102E8000080C4FF0010808FA0CF3B1F800C00CEA86
:102E900003069E4221D183004FF00F0C0CFA03F77A
:102EA000BC4305FA03FC4CEA040491F803C0BCF1EE
:102EB000280F05D100F1080C08FA0CF8C2F81480AC
:102EC00091F803C0BCF1480F07D100F1080C4FF096
:102ED000010808FA0CF8C2F81080401C0828CED36C
:102EE0005460BDE8F0814FF6FF71018002218170CE
:102EF0000421C17070470246002093680B400BB15B
:102F0000012000E0002070470146886880B27047C9
:102F100002460020D3680B400BB1012000E00020E6
:102F200070470146C86880B27047016170474161CF
:102F300070470AB1016100E041617047C1607047AC
:102F40004FF480320A4382618161826182698269C1
:102F5000704702460020434B18684FF680731840B4
:102F600040EA021008433F4B186070473E49C86171
:102F70007047F0B50A46002300240021002500F028
:102F80000046B6F1004F02D1364EF16901E0354EF0
:102F90007168C0F3034583B200F44016B6F5401FD4
:102FA00008D121F070612F4E766826F070662D4FA3
:102FB0007E6012E000F48016B6F5801F06D103266D
:102FC00006FA05F4A14341F0706106E0460D3601B2
:102FD00003FA06F6B14341F0706122B1460D3601A5
:102FE00003FA06F6314300F00046B6F1004F02D175
:102FF0001C4EF16101E01B4E7160F0BD30B5002246
:103000008B071C0F0F2303FA04F2164B08338C10A6
:1030100053F824309343134C08348D1044F8253072
:1030200023468C1053F824308C07240F00FA04F444
:1030300023430C4C08348D1044F8253030BD0A4928
:10304000DC3108607047000000080140000C0140BE
:10305000001001400014014000180140001C014014
:103060000020014000000140000020420E4908609D
:1030700070470D49486070470B49886070474AF6B1
:10308000AA200949086070474CF6CC400649086000
:10309000704701460020044AD2680A400AB1012064
:1030A00000E000207047000000300040DF4800686A
:1030B00040F00100DD49086008464068DC490840EE
:1030C000DA49486008460068DA490840D74908608C
:1030D0000846006820F4802008600846406820F414
:1030E000FE0048604FF41F0088607047CF490968B0
:1030F00021F48031CD4A11601146096821F4802104
:103100001160B0F5803F03D0B0F5802F0ED106E0FE
:10311000C649096841F48031C44A116007E0C349D7
:10312000096841F4A021C14A116000E000BF00BF5E
:10313000704710B501460022002300204A11012AE1
:1031400002D1BA4C236806E0022A02D1B74C236AA6
:1031500001E0B64C636A01F01F02012494401C4058
:103160000CB1012000E0002010BD38B50020009017
:103170000024002500BF3120FFF7DBFF0546009843
:10318000401C00900098B0F5A06F01D0002DF2D047
:103190003120FFF7CEFF08B1012400E000242046D3
:1031A00038BD01460020A14A106820F0F80040EA2E
:1031B000C10010607047A0490860704702460020B7
:1031C0009A4B586820F47C1042EA01031843974B4D
:1031D0005860704798490866704701460020934A36
:1031E000506820F003000843506070478F484068E3
:1031F00000F00C007047014600208C4A506820F017
:10320000F00008435060704701460020874A50682C
:1032100020F4E06008435060704701460020834A74
:10322000506820F4605040EAC1005060704729B1F6
:103230007E4A527A02437D4B5A7204E07B4A527AAC
:1032400082437A4B5A7270477B49D8310860704785
:1032500001460020754A506820F440400843506001
:1032600070470021714A20321170704A82F8201094
:10327000012802D004280AD104E001216B4A20323F
:10328000117005E00521694A2032117000E000BF8D
:1032900000BF70476949086070476449096A014383
:1032A000624A11627047654944390860704730B519
:1032B00000210022002400235C4D6D6805F00C0104
:1032C00021B1042905D0082923D105E05C4D056012
:1032D00022E05B4D05601FE0544D6D6805F47012EF
:1032E000524D6D6805F48034022505EB92421CB9FD
:1032F000544D554305600BE04C4D6D6805F40035A9
:103300001DB1504D5543056002E04D4D55430560DC
:1033100002E04B4D056000BF00BF444D6D6805F0F5
:10332000F0010909484D6B5C0568DD4045603F4D83
:103330006D6805F4E061090A434D6B5C4568DD404A
:1033400085603A4D6D6805F46051C90A3E4D6B5C6D
:103350004568DD40C560354D6D6805F44041890B19
:103360003A4D6B5CC568B5FBF3F5056130BD29B11D
:103370002E4A526902432D4B5A6104E02B4A52698E
:1033800082432A4B5A61704729B1284A9269024305
:10339000264B9A6104E0254A92698243234B9A6145
:1033A000704729B1214AD2690243204BDA6104E017
:1033B0001E4AD26982431D4BDA61704729B11B4A0C
:1033C000D2680243194BDA6004E0184AD26882439B
:1033D000164BDA60704729B1144A12690243134B45
:1033E0001A6104E0114A12698243104B1A61704756
:1033F00012494039086070470F49C86470470B494B
:10340000C87170470948406A40F0807007494862B7
:10341000704701460020054A92680A400AB101201F
:1034200000E0002070470149887270470010024098
:103430000000FFF8FFFFF6FE000042428004424217
:1034400000127A0000093D007C0000208C00002062
:1034500010B50446FA48844208D101214015FFF70F
:10346000ADFF00216015FFF7A9FF17E0F548844282
:1034700008D101210015FFF7A1FF00212015FFF75A
:103480009DFF0BE0F048844208D10121C803FFF7FB
:1034900095FF00214FF40040FFF790FF10BD30B5BD
:1034A0000246002000235068E84C20400D790C684B
:1034B00044EA0524204350609068E54C2040D1E95F
:1034C00002542C434D7944EA450420439060D06A6D
:1034D00020F470000C7C641EE4B2234340EA0350E5
:1034E000D06230BD00210160017141718160C16015
:1034F00001210174704721B1826842F001028260AB
:1035000003E0826822F001028260704721B1826884
:1035100042F48072826003E0826822F480728260EA
:10352000704710B50023CBB21AB144681C43446005
:1035300002E044689C43446010BD816841F008018A
:1035400081607047014600208A6802F008020AB1D3
:10355000012000E000207047816841F00401816093
:103560007047014600208A6802F004020AB1012077
:1035700000E00020704721B1826842F4A00282601E
:1035800003E0826822F4A0028260704701460020B6
:103590008A6802F480020AB1012000E0002070472E
:1035A00010B50A4600210023416821F46041531EF2
:1035B00041EA4331416010BD21B1426842F40062EA
:1035C000426003E0426822F4006242607047F0B556
:1035D00004460D4600200021092D11DDE068A5F10B
:1035E0000A0606EB4607072606FA07F18843A5F107
:1035F0000A0606EB460603FA06F10843E0600CE013
:10360000206905EB4507072606FA07F1884305EB15
:10361000450603FA06F108432061072A0FDA606BBA
:10362000561E06EB86071F2606FA07F18843561E2C
:1036300006EB860605FA06F10843606322E00D2AD0
:103640000FDA206BD61F06EB86071F2606FA07F156
:103650008843D61F06EB860605FA06F10843206369
:1036600010E0E06AA2F10D0606EB86071F2606FAB7
:1036700007F18843A2F10D0606EB860605FA06F16E
:103680000843E062F0BD21B1826842F4801282609A
:1036900003E0826822F48012826070470146C86CA1
:1036A00080B2704766484C300068704721B142686C
:1036B00042F48062426003E0426822F48062426029
:1036C000704721B1426842F48052426003E0426890
:1036D00022F48052426070470A460021816821F43A
:1036E000E04111438160704721B1826842F4004299
:1036F000826003E0826822F400428260704721B158
:10370000826842F40212826003E0826822F40212AC
:1037100082607047014600208A6802F400120AB1F4
:10372000012000E000207047F0B504461546002057
:1037300000220026092911DDE068A1F10A0707EB44
:10374000470C072707FA0CF29043A1F10A0707EB91
:10375000470703FA07F21043E0600CE0206901EB31
:10376000410C072707FA0CF2904301EB410703FADB
:1037700007F210432061A06BC0F30156EF1C06F165
:10378000010CA7EB0C0707EB870C1F2707FA0CF2BD
:103790009043EF1C06F1010CA7EB0C0707EB870722
:1037A00001FA07F21043A063F0BD10B50A460021EC
:1037B0000023816B21F44011531E41EA03518163C0
:1037C00010BD08B5002300930090009B0B440093AC
:1037D000009B1A6008BD08B50246002000900092C8
:1037E00001F12800009B184400900098006880B206
:1037F00008BD0A4600214168164B1940114341603B
:1038000070474162826270470A460021416821F098
:103810001F0111434160704740B1094908310968EF
:1038200041F40001064A0832116007E004490831FA
:10383000096821F40001024A083211607047000053
:103840000024014000280140003C0140FFFEF0FF41
:10385000FDF7F1FFFFFD3FFF0246002013680B401C
:103860000BB1012000E000207047CA43026070479E
:1038700070B502460020002300240B125568CEB21A
:1038800005EA060415681D4015B10CB1012000E0E1
:10389000002070BD00220A12D3430360704700006D
:1038A00010B50446FE48844209D101214806FFF7BD
:1038B00092FD00214FF00070FFF78DFD08E001211F
:1038C0008806FFF788FD00214FF08060FFF783FD39
:1038D00010BD30B5024600200023146824F0020415
:1038E0001460146844F00104146000E05B1C546828
:1038F00004F001041CB94FF6FF74A342F6D15468DA
:1039000004F001040CB900206CE08C79012C04D186
:10391000146844F08004146003E0146824F0800408
:103920001460CC79012C04D1146844F04004146074
:1039300003E0146824F0400414600C7A012C04D1D4
:10394000146844F02004146003E0146824F0200498
:1039500014604C7A012C04D1146844F010041460F3
:1039600003E0146824F0100414608C7A012C04D154
:10397000146844F00804146003E0146824F0080498
:103980001460CC7A012C04D1146844F0040414604F
:1039900003E0146824F0040414608C78A407CD7844
:1039A00044EA05640D7944EA05444D7944EA055436
:1039B0000D886D1E2C43D461146824F0010414603A
:1039C000002300E05B1C546804F001041CB14FF6B6
:1039D000FF74A342F6D1546804F001040CB1002036
:1039E00000E0012030BD10B50021837A012202FAE7
:1039F00003F1AC4A126842F00102AA4B1A60A94ACC
:103A00001C3212688A43A74B1C331A60027BCAB966
:103A1000A44A0C3212688A43A24B0C331A604288C3
:103A2000C38842EA03439F4A4032847A42F83430E2
:103A30000288838842EA03439A4A4032847A02EB3E
:103A4000C4025360027B012A19D1964A0C321268D3
:103A50000A43944B0C331A604288038842EA0343BA
:103A6000904A4032847A42F83430C288838842EAED
:103A700003438C4A4032847A02EBC4025360C27A18
:103A80003AB9884A121D12688A43864B1B1D1A6078
:103A900006E0844A121D12680A43824B1B1D1A60FD
:103AA000028932B97F4A143212688A437D4B14333B
:103AB0001A600289012A06D17A4A143212680A432E
:103AC000784B14331A60427B012A06D1754A1C32A6
:103AD00012680A43734B1C331A60724A126822F050
:103AE0000102704B1A6010BD00218171C171017219
:103AF00041728172C1728170C17003210171022112
:103B000041710121018070476649096841F0010156
:103B1000644A11601146096843F60E729143614A86
:103B200011601146096841EA0021116011460968D7
:103B300021F001011160704721B1026842F4803226
:103B4000026003E0026822F4803202607047E1B153
:103B5000026842F0800202604FF4C272125842F4CE
:103B600080734FF4C27213504FF4CA72125842F469
:103B700080734FF4CA7213504FF4D272125842F449
:103B800080734FF4D27213501BE0026822F080025F
:103B900002604FF4C272125822F480734FF4C27262
:103BA00013504FF4CA72125822F480734FF4CA7241
:103BB00013504FF4D272125822F480734FF4D27221
:103BC0001350704710B502460020936803F08063DD
:103BD000B3F1806F00D110E0936803F00063B3F19C
:103BE000006F01D1012008E0936803F08053B3F126
:103BF000805F01D1022000E00420042879D002F582
:103C0000C07303EB00131B6803F0010402F5C073DB
:103C100003EB00131C600B7A7BB94B7A0C8843EAE8
:103C2000445302F5C07404EB00142468234302F5E6
:103C3000C07404EB0014236010E00B7A4C6843EA74
:103C4000C4034C7A234302F5C07404EB00142468C7
:103C5000234302F5C07404EB001423608B7A03F055
:103C60000F038B7202F5C07303EB00135B6823F044
:103C70000F0402F5C07303EB00135C6002F5C07320
:103C800003EB00135B688C7A234302F5C07404EBEA
:103C9000001463608B7B1C064B7B44EA034403E007
:103CA00000640040006600400B7B44EA0323CC7AAA
:103CB000234302F5C07404EB0014A3608B7C1C0644
:103CC0004B7C44EA03440B7C44EA0323CC7B234330
:103CD00002F5C07404EB0014E36002F5C07303EB5B
:103CE00000131B6843F0010402F5C07303EB0013DB
:103CF0001C6010BD10B50246002321B1012907D078
:103D000002290FD109E09068F94C00EA04030BE0A6
:103D10009068F84C00EA040306E09068F64C00EA6C
:103D2000040301E0002300BF00BFF44C181BA342B2
:103D300016D007DC83B16FF08060184470B10228A0
:103D400018D111E0B0F5007F10D0ED4C204448B1FF
:103D5000B0F5003F0ED10BE002230DE000230BE095
:103D6000002309E0002307E0012305E0012303E02D
:103D7000012301E0002300BF00BFD8B210BD21B174
:103D8000012907D002290FD109E0826842F08002A0
:103D900082600AE0826842F40042826005E0826844
:103DA00042F40002826000E000BF00BF704710B51F
:103DB00000F5D87303EB01131B6803F004031372BF
:103DC000137A53B900F5D87303EB01131B6840F263
:103DD000FF7404EA5353136009E000F5D87303EB52
:103DE00001131B686FF0604404EAD303536000F5CD
:103DF000D87303EB01131B6803F00203537200F541
:103E0000D87303EB01135B6803F00F03937200F5A3
:103E1000D87303EB01135B681B0AD37400F5D873E6
:103E200003EB01139B68D37200F5D87303EB011306
:103E30009B681C0A147300F5D87303EB01139B688D
:103E40001C0C547300F5D87303EB01139B681B0E15
:103E5000937300F5D87303EB0113DB68D37300F59C
:103E6000D87303EB0113DB681C0A147400F5D873D4
:103E700003EB0113DB681C0C547400F5D87303EBDF
:103E80000113DB681B0E937421B9C36843F0200350
:103E9000C36003E0036943F02003036110BD21B94F
:103EA000C26842F02002C26003E0026942F02002D0
:103EB000026170470246002019B9D36803F003007D
:103EC00006E0012903D1136903F0030000E000209C
:103ED000704710B502460B4600204FF6FF71BBB984
:103EE000146824F0020444F00104146000E0491E48
:103EF000546804F00304012C01D00029F7D1546860
:103F000004F00304012C01D0002032E0012030E055
:103F1000012B13D1146824F00304146000E0491E3F
:103F2000546804F003040CB10029F8D1546804F07B
:103F300003040CB100201CE001201AE0022B17D171
:103F4000146824F0010444F00204146000E0491EE7
:103F5000546804F00304022C01D00029F7D15468FE
:103F600004F00304022C01D0002002E0012000E054
:103F7000002010BD014600200A6822F0010242F034
:103F800002020A604A6802F00302022A00D10120FC
:103F9000704701464FF6FF7200200B6823F00203C2
:103FA0000B6000E0521E4B6803F00203022B01D1AC
:103FB000002AF7D14B6803F00203022B00D0012046
:103FC0007047014600208A6902F070007047014680
:103FD00000208A69100E7047014600208A69C2F3EA
:103FE000074070471AB143690B43436102E04369DC
:103FF0008B434361704710B50246002001F4700303
:1040000043B19369C1F3130423400BB101202DE0A8
:1040100000202BE001F0807343B15368C1F3130417
:1040200023400BB1012021E000201FE001F00063DC
:1040300043B19368C1F3130423400BB1012015E091
:10404000002013E001F0007343B1D368C1F31304FF
:1040500023400BB1012009E0002007E01369C1F300
:10406000130423400BB1012000E0002010BD00220A
:10407000244B994202D10023836111E0C1F3130262
:1040800001F000730BB1C2600AE001F080630BB174
:10409000026105E001F000630BB1826000E0426064
:1040A00070470246002002EA01030BB1012000E044
:1040B0000020704770B504460D4600266069284010
:1040C000002872D0B5F5807F69D01DDC082D42D064
:1040D00006DC012D2DD0022D31D0042D7FD134E00E
:1040E000102D3ED0202D42D0402D78D145E000004B
:1040F0000300000400030008000003100001000892
:104100000001FFF77000F030B5F5004F61D009DC19
:10411000B5F5007F4AD0B5F5806F4DD0B5F5006F8D
:104120005DD150E0B5F5803F2DD0B5F5003F56D1BB
:104130002FE0A0685549FFF7B4FF064651E0E0685C
:104140000321FFF7AEFF06464BE0E0680821FFF7CA
:10415000A8FF064645E0E0681021FFF7A2FF0646EB
:104160003FE020690321FFF79CFF064639E0206904
:104170000821FFF796FF064633E020691021FFF77C
:1041800090FF06462DE060680821FFF78AFF06468B
:1041900027E060681021FFF784FF064621E0A06950
:1041A0000121FFF77EFF06461BE01BE0A06902210C
:1041B000FFF777FF064614E0A0690421FFF771FFBF
:1041C00006460EE00BE0A0697021FFF76AFF064685
:1041D00007E060680421FFF764FF064601E000265F
:1041E00000BF00E00026304670BDB1F5007F3AD038
:1041F0000FDC202928D006DC01291CD004291DD081
:10420000082940D11DE0402921D0B1F5807F3AD165
:1042100026E0B1F5004F31D006DCB1F5806F25D036
:10422000B1F5006F2FD124E0B1F5803F12D0B1F588
:10423000003F28D111E0154A826025E00822C260C3
:1042400022E01022C2601FE0082202611CE010225E
:10425000026119E00822426016E01022426013E079
:104260000422426010E0042242600DE00422426019
:104270000AE0002282610422426005E0002282619D
:104280000422426000E000BF00BF7047010101004E
:1042900001684FF6FE72114001600021016041602B
:1042A0008160C1608D49884208D18C4908394968CC
:1042B00041F00F01894A083A51608AE08749143178
:1042C000884208D185490839496841F0F001834A9C
:1042D000083A51607DE081492831884208D17F4900
:1042E0000839496841F470617C4A083A516070E0CD
:1042F0007A493C31884208D178490839496841F403
:104300007041764A083A516063E0744950318842FE
:1043100008D172490839496841F470216F4A083A56
:10432000516056E06D496431884208D16B490839C3
:10433000496841F47001694A083A516049E06749A7
:104340007831884208D165490839496841F070617F
:10435000624A083A51603CE06149884206D1011F37
:10436000096841F00F01021F116032E05C4914310D
:10437000884208D15A49091F096841F0F001584A9A
:10438000121F116025E056492831884208D154494E
:10439000091F096841F47061514A121F116018E049
:1043A0004F493C31884208D14D49091F096841F401
:1043B00070414B4A121F11600BE04949503188424D
:1043C00007D14749091F096841F47021444A121F67
:1043D0001160704710B50022026847F6F0739A43E7
:1043E0000C6A8B6823430C6923434C6923438C6913
:1043F0002343CC6923434C6A23438C6A23431A43E7
:104400000260CB6843600B6883604B68C36010BD7B
:104410000021016041608160C16001614161816191
:10442000C161016241628162704721B1026842F05C
:104430000102026004E002684FF6FE731A40026057
:1044400070471AB103680B43036002E003688B43B3
:1044500003607047416070470146486880B270470A
:1044600001460020002201F080531BB11C4B083B89
:104470001A6802E0194B083B1A6802EA01030BB103
:10448000012000E00020704700F0805119B114496C
:10449000091F086002E01149083948607047014669
:1044A0000020002201F080531BB10D4B083B1A681D
:1044B00002E00A4B083B1A6802EA01030BB1012033
:1044C00000E00020704700F0805119B10449091F35
:1044D000086002E00149083948607047080002405E
:1044E0000804024010B50446FE48844208D1012168
:1044F000C014FEF763FF0021E014FEF75FFFC4E085
:10450000B4F1804F08D101210846FEF764FF002175
:104510000120FEF760FFB8E0F348844208D1012192
:104520000220FEF758FF00210220FEF754FFACE006
:10453000EE48844208D101210420FEF74CFF0021FF
:104540000420FEF748FFA0E0E948844208D1012199
:104550000820FEF740FF00210820FEF73CFF94E012
:10456000E448844208D101211020FEF734FF0021E5
:104570001020FEF730FF88E0DF48844208D1012197
:104580002020FEF728FF00212020FEF724FF7CE0FA
:10459000DA48844208D101214014FEF70FFF0021C0
:1045A0006014FEF70BFF70E0D548844209D1012169
:1045B000C804FEF703FF00214FF40020FEF7FEFEC3
:1045C00063E0D048844209D101210805FEF7F6FED8
:1045D00000214FF48010FEF7F1FE56E0CA488442F5
:1045E00009D101214805FEF7E9FE00214FF4001032
:1045F000FEF7E4FE49E0C548844208D1012140208D
:10460000FEF7E9FE00214020FEF7E5FE3DE0C04850
:10461000844208D101218020FEF7DDFE00218020A8
:10462000FEF7D9FE31E0BB48844208D10121801554
:10463000FEF7D1FE0021A015FEF7CDFE25E0B6481D
:10464000844209D101210804FEF7B8FE00214FF48D
:104650008030FEF7B3FE18E0B048844209D1012152
:104660004804FEF7ABFE00214FF40030FEF7A6FE33
:104670000BE0AB48844208D101218804FEF79EFE7E
:1046800000214FF48020FEF799FE10BD0022028821
:10469000944B98420ED0994B98420BD0B0F1804F7A
:1046A00008D0914B984205D0904B984202D0904B45
:1046B000984204D14FF68F731A404B881A438D4BA2
:1046C000984207D08C4B984204D04FF6FF431A40D3
:1046D000CB881A4302808B8883850B880385814BA6
:1046E00098420BD0854B984208D08B4B984205D00E
:1046F0008A4B984202D08A4B984201D10B7A0386AA
:1047000001238382704770B5002400220023058CAA
:104710004FF6FE7635400584028C8388048B4FF675
:104720008F752C40B51E2C400D882C43751E2A40D9
:104730000D892A434D882A436A4DA8420BD06F4DFC
:10474000A84208D0744DA84205D0744DA84202D0AA
:10475000734DA84213D14FF6F7752A404D892A436D
:104760004FF6FB752A408D882A434FF6FF652B4094
:104770004FF6FF552B408D892B43CD892B438380EA
:104780000483CD888586028470BD70B50024002224
:104790000023058C4FF6EF7635400584028C838824
:1047A000048B48F6FF752C404FF6FF452C400D88D2
:1047B0004FF6FF7606EA05252C434FF6DF752A40B3
:1047C0000D8906EA05152A434D8806EA05152A4390
:1047D000444DA84202D0494DA8421DD14FF67F75E5
:1047E0002A404D894FF6FF7606EA05152A434FF613
:1047F000BF752A408D8806EA05152A434FF6FF3516
:104800002B404FF2FF752B408D8906EA85052B431F
:10481000CD8906EA85052B4383800483CD880587EF
:10482000028470BD70B5002400220023058C4FF671
:10483000FF6635400584028C8388848B4FF68F7524
:104840002C404FF6FC752C400D882C434FF6FF553D
:104850002A400D894FF6FF7606EA05252A434D8842
:1048600006EA05252A431F4DA84202D0234DA8423F
:104870001DD14FF2FF752A404D894FF6FF7606EAAB
:1048800005252A434FF6FF352A408D8806EA05257F
:104890002A434EF6FF752B404DF6FF752B408D8950
:1048A00006EA05152B43CD8906EA05152B438380BF
:1048B0008483CD888587028470BD70B50022002373
:1048C0000024058C4EF6FF7635400584038C8488E1
:1048D000828B48F6FF752A404FF6FF452A400D8827
:1048E00020E00000002C01400004004000080040CF
:1048F000000C004000100040001400400034014053
:10490000004C01400050014000540140001800409C
:10491000001C0040002000400040014000440140D5
:10492000004801404FF6FF7606EA05252A434DF67A
:10493000FF752B400D8906EA05352B434D8806EAA5
:1049400005352B43FA4DA84202D0FA4DA84208D1B2
:104950004BF6FF752C408D894FF6FF7606EA8515DC
:104960002C4384808283CD88A0F84050038470BD9E
:10497000828B4FF2FF331A408283828B4FF6FF7394
:1049800003EA01231A4382837047F0B50C461546AB
:10499000002200210026078C4EF6FF7C07EA0C0758
:1049A0000784828B018C4FF6FF7707EA043640F6C6
:1049B000FF473A404FF6FF7707EA05273A434FF69D
:1049C000FF7707EA03373A43D94FB8420ED0D94FA1
:1049D000B8420BD0B0F1804F08D0D74FB84205D0C5
:1049E000D64FB84202D0D64FB84206D14DF6FF7727
:1049F000394046F48057394305E047F6FF573940C0
:104A000044F48057394382830184F0BD828B4FF692
:104A1000F3731A408283828B0A4382837047F0B516
:104A20000C461546002200210026078C4FF6FF6C2D
:104A300007EA0C070784828B018C4FF6FF7707EAA1
:104A400004264FF60C773A404FF6FF7707EA031734
:104A50002F433A43B64FB8420ED0B64FB8420BD0B0
:104A6000B0F1804F08D0B44FB84205D0B34FB84230
:104A700002D0B34FB84206D14FF6FF57394046F443
:104A80008077394305E04FF2FF57394044F480778F
:104A9000394382830184F0BD028B4FF2FF331A4009
:104AA0000283028B4FF6FF7303EA01231A4302834A
:104AB0007047F0B50C461546002200210026078CF1
:104AC0004FF6EF7C07EA0C070784028B018C4FF648
:104AD000FF7707EA041640F6FF473A404FF6FF77A4
:104AE00007EA03373A434FF6FF7707EA05273A43C9
:104AF0008F4FB8420ED08F4FB8420BD0B0F1804FDD
:104B000008D08D4FB84205D08C4FB84202D08C4FA0
:104B1000B84206D14FF6DF77394046F010073943E7
:104B200005E04FF65F77394044F0100739430283C0
:104B30000184F0BD028B4FF6F3731A400283028B9F
:104B40000A4302837047F0B50C4615460022002147
:104B5000068C4FF6FE773E400684028B018C4FF6A2
:104B60000C7632407E1C06EA03162E433243704E0A
:104B7000B0420ED06F4EB0420BD0B0F1804F08D093
:104B80006D4EB04205D06D4EB04202D06C4EB04278
:104B900006D14FF6FD76314044F00106314305E081
:104BA0004FF6F576314044F001063143028301842B
:104BB000F0BD70B505460C465D4885420ED05D4897
:104BC00085420BD0B5F1804F08D05B48854205D0B7
:104BD0005A48854202D05A48854200D100E000BFC1
:104BE000208850B92389A28861882846FFF7ABFF47
:104BF000E1882846FFF79EFF25E0208804280AD197
:104C00002389A28861882846FFF753FFE188284658
:104C1000FFF742FF17E0208808280AD12389A288DD
:104C200061882846FFF7FBFEE1882846FFF7EEFE85
:104C300009E02389A28861882846FFF7A6FEE1885B
:104C40002846FFF795FE70BD2DE9F04105460C465C
:104C500000260127608808B9022600E00026A08807
:104C6000012801D1022700E001272088A0B923896B
:104C7000A28861882846FFF766FFE1882846FFF78B
:104C800059FF23893A4631462846FFF712FFE1884B
:104C90002846FFF701FF13E02389A2886188284690
:104CA000FFF707FFE1882846FFF7F6FE23893A461B
:104CB00031462846FFF747FFE1882846FFF73AFFCD
:104CC000BDE8F0810A884B881A438B881A43CB8849
:104CD0001A430B891A434B891A438B891A43A0F84C
:104CE000442070474FF6FF71818000210180C18010
:104CF0004180017270470021018041808180C18024
:104D0000018141818181C181704700210180418001
:104D1000012181800021C180018170470021018033
:104D200041808180C1800181418181817047000083
:104D3000002C014000340140000400400008004005
:104D4000000C004021B1028842F00102028004E020
:104D500002884FF6FE731A400280704731B1B0F8F6
:104D6000442042F40042A0F8442005E0B0F844207A
:104D7000C2F30E02A0F8442070471AB183890B4396
:104D8000838102E083898B438381704781827047EE
:104D900041EA0203A0F8483070471AB183890B43F7
:104DA000838102E083898B438381704701894FF6B9
:104DB000F8721140018170470A46002101894FF6BF
:104DC0008F73194011430181704730B504460D4679
:104DD00029462046FFF7F0FF208940F00700208198
:104DE00030BD2DE9F04104460D4616461F46602DA4
:104DF00006D13B46012231462046FFF75AFE05E028
:104E00003B46012231462046FFF79DFE29462046BB
:104E1000FFF7D2FF208940F007002081BDE8F08134
:104E200030B50C4600210189C9B24FF6FF7505EA7D
:104E30000325154325432943018130BD2DE9F04168
:104E400005460E4617469846002443463A463146E4
:104E50002846FFF7E5FF2C894FF6F870044044F030
:104E600007044FF68F70044044F070042C81BDE8B5
:104E7000F081F0B504460D4616461F463B463246C5
:104E800029462046FFF7CCFF208940F4804020814E
:104E9000F0BD0185828270470A46002101884FF6E5
:104EA0008F731940114301807047F0B50C461546C9
:104EB0001E460021002200230189028B038C4FF63D
:104EC000F877394021434FF6FC473A4040F201174A
:104ED0003A434FF6DD773B404FF6FF7707EA061778
:104EE0002F433B43018102830384F0BD0A46002126
:104EF000018B4FF68F7319401143018370470A46A7
:104F00000021018B48F6FF7319404FF6FF7303EA47
:104F100002231943018370470A460021818B4FF613
:104F20008F7319401143818370470A460021818B9A
:104F300048F6FF7319404FF6FF7303EA0223194343
:104F40008183704721B1028842F08002028004E030
:104F500002884FF67F731A400280704721B1828821
:104F600042F00402828004E082884FF6FB731A400C
:104F70008280704721B1828842F00802828004E07A
:104F800082884FF6F7731A408280704721B1828879
:104F900042F00102828004E082884FF6FE731A40DC
:104FA000828070470A460021018B4FF6F773194043
:104FB0001143018370470A460021018B4FF2FF73B2
:104FC00019404FF6FF7303EA022319430183704728
:104FD0000A460021818B4FF6F773194011438183F4
:104FE00070470A460021818B4FF2FF7319404FF63C
:104FF000FF7303EA02231943818370470A460021A5
:10500000018B4FF6FB7319401143018370470A4629
:105010000021018B4FF6FF3319404FF6FF7303EA6F
:1050200002231943018370470A460021818B4FF602
:10503000FB7319401143818370470A460021818B1D
:105040004FF6FF3319404FF6FF7303EA022319436B
:10505000818370470A460021018B4FF67F73194008
:105060001143018370470A460021018BC1F30E01F1
:105070004FF6FF7303EA02231943018370470A4680
:105080000021818B4FF67F73194011438183704754
:105090000A460021818BC1F30E014FF6FF7303EA2C
:1050A00002231943818370470A460021018C4FF681
:1050B000FD7319401143018470470A460021018C99
:1050C0004FF6F77319401143018470470A460021D7
:1050D000018C4FF6DF7319404FF6FF7303EA02139A
:1050E0001943018470470A460021018C4FF67F73F3
:1050F00019404FF6FF7303EA021319430184704706
:105100000A460021018C4FF6FF5319404FF6FF73FA
:1051100003EA02231943018470470A460021018CE7
:105120004FF2FF7319404FF6FF7303EA022319434E
:10513000018470470A460021018C4DF6FF73194027
:105140004FF6FF7303EA023319430184704730B509
:10515000002301248C40A3B2048C9C430484048C5F
:1051600002FA01F5ADB22C43048430BD30B5002302
:1051700004248C40A3B2048C9C430484048C02FA63
:1051800001F5ADB22C43048430BD70B50346002058
:1051900000241846183001258D40ACB21D8CA54363
:1051A0001D8409B1082909D100EB6100056825F0CB
:1051B000700505600568154305600EE00D1FC5F319
:1051C0004E052844056825F4E045056005684FF65E
:1051D000FF7606EA02263543056070BD21B10288DC
:1051E00042F00202028004E002884FF6FD731A408A
:1051F0000280704721B1028842F00402028004E07C
:1052000002884FF6FB731A400280704721B18288F2
:1052100042F08002828004E082884FF67F731A4059
:105220008280704702884FF6F7731A400280028826
:105230000A430280704782884FF68F731A4082803B
:1052400082880A438280704702894FF6F8731A40B9
:10525000028102890A430281704702894FF67F73F7
:105260001A40028102890A43028170478184704793
:1052700081857047818670470187704781877047B5
:10528000A0F84010704702884FF6FF431A40028092
:1052900002880A43028070470146888E70470146A3
:1052A000088F70470146888F70470146B1F840006B
:1052B00070470146888C70470146088D704702464A
:1052C0000020138A0B400BB1012000E00020704742
:1052D000CA430282704730B50246002000230024F2
:1052E000158A05EA0103958905EA010413B10CB199
:1052F000012000E0002030BDCA4302827047000058
:1053000001460020FE4A106800F038000843106093
:105310007047FB49096821F00801F94A11601146FC
:105320000968014311607047F549096821F01001CF
:10533000F34A116011460968014311607047F14852
:10534000EF494860F04848607047EE48EC494860D3
:10535000ED4848607047EA48006940F08000E8493D
:1053600008617047E648006940F08000E449086140
:1053700070470420E249C96801F0010109B1012028
:105380000EE0DF49C96801F0040109B1022007E01D
:10539000DB49C96801F0100109B1032000E00420D5
:1053A000704700B502460423FFF7E3FF034603E01E
:1053B000FFF7DFFF0346521E012B01D1002AF7D170
:1053C00002B90523184600BD30B5044604254FF444
:1053D0003020FFF7E6FF0546042D17D1C8480069C5
:1053E00040F00200C649086108464461006940F087
:1053F000400008614FF43020FFF7D3FF0546C04856
:10540000006941F6FD710840BD490861284630BD7C
:1054100010B504244FF43020FFF7C3FF0446042CDA
:1054200016D1B748006940F00400B5490861084644
:10543000006940F0400008614FF43020FFF7B1FFF1
:105440000446AF48006941F6FB710840AC49086169
:10545000204610BD00B502460423FFF78AFF03462D
:1054600003E0FFF786FF0346521E012B01D1002AFD
:10547000F7D102B90523184600BD10B504244FF436
:105480003020FFF7E7FF0446042C16D19C48006942
:1054900040F004009A4908610846006940F0400065
:1054A00008614FF43020FFF7D5FF044694480069A7
:1054B00041F6FB71084092490861204610BD00206A
:1054C0008F49C96901F0020109B1012000E0002003
:1054D000704730B5A5250424FFF7F1FF00B1002582
:1054E0004FF43020FFF75DFF0446042C3AD1854885
:1054F00083498860844888600846006940F020003D
:1055000008610846006940F0400008614FF430200F
:10551000FFF747FF0446042C1BD17948006941F688
:10552000DF710840764908610846006940F01000C4
:10553000086176480580E002FFF733FF0446052C3A
:1055400010D06F48006941F6EF7108406C4908615E
:1055500008E0052C06D06A48006941F6EF71084062
:1055600067490861204630BD78B506460C460425DB
:1055700000200090E802FFF714FF0546042D24D117
:105580005F48006940F001005D4908613480E8022D
:10559000FFF707FF0546042D10D1B01C0090200C2A
:1055A00000990880E802FFF7FCFE054654480069B0
:1055B00041F6FE7108405249086106E05048006912
:1055C00041F6FE7108404E490861284678BD70B525
:1055D00004460D460426F002FFF7E3FE0646042EBD
:1055E00011D14748006940F0010045490861258014
:1055F000F002FFF7D6FE06464148006941F6FE710B
:1056000008403F490861304670BD70B505460E46FA
:105610000424E002FFF7C5FE0446042C17D13948E4
:1056200037498860384888600846006940F01000B3
:1056300008612E80E002FFF7B4FE0446052C06D078
:105640002F48006941F6EF7108402D490861204656
:1056500070BD2DE9F04304464FF6FF763746B0465D
:10566000B1460425E443E6B2C4F30727C4F3074870
:105670004FEA1469E802FFF794FE0546042D49D16C
:1056800020481F498860204888600846006940F02B
:1056900010000861FF2E06D01C4808300680E80282
:1056A000FFF77FFE0546042D08D1FF2F06D01748CF
:1056B0000A300780E802FFF774FE0546042D0AD180
:1056C000B8F1FF0F07D011480C30A0F80080E802B5
:1056D000FFF767FE0546042D0AD1B9F1FF0F07D089
:1056E0000A480E30A0F80090E802FFF75AFE05467F
:1056F000052D0FD00248006941F6EF71084007E020
:105700000020024023016745AB89EFCD00F8FF1F61
:10571000664908612846BDE8F08330B50546042493
:105720004FF43020FFF73DFE0446042C41D1604881
:105730005E4988605F4888600846006940F0200044
:1057400008610846006940F0400008614FF43020CD
:10575000FFF727FE0446042C22D15448006941F685
:10576000DF710840514908610846006940F01000A7
:1057700008611DB100205049088002E0A5204E4973
:1057800008804FF43020FFF70CFE0446052C10D0A3
:105790004648006941F6EF7108404449086108E055
:1057A000052C06D04148006941F6DF7108403F49A9
:1057B0000861204630BDF0B505460E461746042464
:1057C0003B483A4988603B488860E002FFF7E9FDC2
:1057D0000446042C19D13548006940F010003349C3
:1057E000086147F0F800304328433349891C08809A
:1057F000E002FFF7D6FD0446052C06D02B480069D1
:1058000041F6EF710840294908612046F0BD27485C
:10581000C069800870472548006A70470020234906
:10582000096801F0200109B1012000E00020704763
:1058300029B11E4A126902431C4B1A6104E01B4A3B
:1058400012698243194B1A617047014600200129F1
:1058500008D1164AD26902F001020AB1012008E01B
:10586000002006E0114AD2680A400AB1012000E097
:10587000002070470D49C860704704200B49C96873
:1058800001F0010109B101200EE00849C96801F0E9
:10589000040109B1022007E00449C96801F01001C0
:1058A00009B1032000E004207047000000200240FE
:1058B00023016745AB89EFCD00F8FF1F0020444965
:1058C0000860091D0860091D0860091D086041483D
:1058D0003F4914310860704700213D498279002A10
:1058E0003AD00A46126803689A430B461A600A1DAA
:1058F000126803689A430B1D1A60027911440A6802
:1059000003681A430A60324A0832126803689A43ED
:105910002F4B08331A601A1D126803689A432C4BE8
:105920000C331A604279102A0ED11A1F12680368CC
:105930001A43274B08331A601A1D126803681A436A
:10594000234B0C331A600DE02149427911440A6857
:1059500003681A430A6005E0027911440A68036883
:105960009A430A6070470021016001710C21417166
:105970000021817170471649103109680143144AAA
:1059800010321160704701460020114A143212682B
:105990000A400AB1012000E0002070470C49143190
:1059A00008607047014600200022094B1B6803EA8B
:1059B0000102074B14331B680B4013B10AB10120DD
:1059C00000E0002070470249143108607047000071
:1059D00000040140FFFF0F000CB500200190009073
:1059E0006C48006840F480306A49086000BF69482C
:1059F000006800F4003000900198401C019000986D
:105A000018B90198B0F5A06FF1D16248006800F4B0
:105A1000003010B10120009001E0002000900098BB
:105A2000012843D15C48006840F010005A490860E2
:105A30000846006820F0030008600846006840F04F
:105A40000200086053484068524948600846406870
:105A500048600846406840F48060486008464068F6
:105A600020F47C1048600846406840F4E810486024
:105A70000846006840F08070086000BF4548006834
:105A800000F000700028F9D04248406820F0030080
:105A9000404948600846406840F00200486000BF46
:105AA0003C48406800F00C000828F9D10CBD10B546
:105AB000FFF792FF10BD10B53648006840F00100B6
:105AC0003449086008464068344908403149486014
:105AD00008460068324908402E49086008460068B8
