:020000040800F2
:10000000B02D002089010008A5060008A7060008F9
:10001000AB060008AF060008B306000800000000A9
:10002000000000000000000000000000B70600080B
:10003000B906000800000000BB060008BD06000865
:10004000A3010008A3010008A3010008A301000800
:10005000A3010008A3010008A3010008A3010008F0
:10006000A3010008A3010008A3010008A3010008E0
:10007000A3010008A3010008A3010008A3010008D0
:10008000A3010008A3010008A3010008A3010008C0
:10009000431E0008A3010008A3010008A3010008F3
:1000A000A3010008A3010008A3010008A3010008A0
:1000B000232000086123000899240008A3010008F8
:1000C000A3010008A3010008A3010008A301000880
:1000D000A3010008A3010008A3010008A301000870
:1000E000A3010008A3010008A301000800F002F822
:1000F00000F03AF80AA090E8000C82448344AAF188
:100100000107DA4501D100F02FF8AFF2090EBAE885
:100110000F0013F0010F18BFFB1A43F0010318473B
:1001200088570000A8570000103A24BF78C878C14B
:10013000FAD8520724BF30C830C144BF04680C60ED
:10014000704700000023002400250026103A28BF35
:1001500078C1FBD8520728BF30C148BF0B60704739
:100160001FB51FBD10B510BD05F064FB1146FFF7AC
:10017000F7FF00F053FA05F082FB03B4FFF7F2FF3C
:1001800003BC05F089FB0000094880470948004787
:10019000FEE7FEE7FEE7FEE7FEE7FEE7FEE7FEE737
:1001A000FEE7FEE704480549054A064B7047000094
:1001B000DF560008ED000008B0270020B02D002019
:1001C000B0290020B029002010B502F0ADFE4FF498
:1001D000803002F0C9FE02F006FF0446012C28D14F
:1001E000002002F046FFA00202F04CFF002002F0C7
:1001F00052FF4FF4404002F069FF022004F094FEE9
:10020000102004F0A5FE4FF4E011200402F014FFCA
:10021000012002F01DFF00BF392002F0C8FE0028B7
:10022000FAD0022002F017FF00BF02F01DFF0828DD
:10023000FBD101213C2002F0E5FF0121084602F03C
:10024000E1FF0121480602F0EAFF0121C80202F0A5
:10025000D9FF0121084602F0E2FF0121022002F04D
:10026000DEFF0121042002F0DAFF10BD10B545F2D7
:10027000555002F039FE032002F039FE40F2E24010
:1002800002F038FE02F039FE10BD08B54FF6FF70DF
:10029000ADF8000003208DF8020004208DF8030063
:1002A0006946F64802F0D2FC4FF6FF70ADF8000048
:1002B00003208DF8020004208DF803006946F04801
:1002C00002F0C4FC4FF6FF70ADF8000003208DF87B
:1002D000020004208DF803006946EA4802F0B6FCEB
:1002E0004FF6FF70ADF8000003208DF802000420E7
:1002F0008DF803006946E44802F0A8FC40F2FF10C4
:10030000ADF8000003208DF8020010208DF80300E6
:100310006946DA4802F09AFC6020ADF8000003203C
:100320008DF8020010208DF803006946D44802F0D1
:100330008DFC41F60F00ADF8000003208DF802009F
:1003400010208DF803006946CE4802F07FFC04209F
:10035000ADF8000003208DF8020010208DF8030096
:100360006946C94802F072FC4FF60340ADF8000040
:1003700003208DF8020004208DF803006946C04870
:1003800002F064FC4FF45C70ADF8000003208DF8BF
:10039000020004208DF803006946BA4802F056FCBA
:1003A0004FF40060ADF8000048208DF80300694666
:1003B000B24802F04BFC4FF48050ADF8000018201A
:1003C0008DF803006946AD4802F040FC08BD0EB54B
:1003D000AE4803F0A3F9684603F0C4FA00208DF894
:1003E000060001208DF8070000208DF808008DF828
:1003F00009008DF80A008DF80B008DF802008DF8C9
:10040000030005208DF8040000208DF80500092068
:10041000ADF8000069469D4803F099F901220221D8
:100420009A4803F01DFD0EBD1FB500208DF80A008F
:100430008DF80B0001208DF80C000020ADF80000B5
:10044000ADF8020046F6FF70ADF804004FF6FF70FD
:10045000ADF806000020ADF8080001208DF80D0071
:10046000684603F0FEF901208DF80A0000208DF89F
:100470000B0001208DF80C00854800784005000C29
:10048000ADF800000020ADF8020046F6FF70ADF8B0
:1004900004004FF6FF70ADF806000020ADF808002C
:1004A00001208DF80D00684603F0DBF901220221DE
:1004B000764803F0D5FC1FBD08B54FF4A06002F0EC
:1004C000F7FA14208DF8000003208DF801000120B8
:1004D0008DF802008DF80300684602F0EEFA1C2049
:1004E0008DF8000000208DF8010001208DF8020039
:1004F0008DF80300684602F0E0FA1D208DF8000038
:1005000001208DF801008DF802008DF80300684687
:1005100002F0D3FA1E208DF8000002208DF80100B1
:1005200001208DF802008DF80300684602F0C5FA3C
:1005300008BD0EB54FF0804003F0E8FD6420ADF833
:10054000040048F69F40ADF800000020ADF806001A
:10055000ADF8020069464FF0804003F0ABFE012188
:10056000880704F0C9FC01221146900704F019FA2B
:100570000121880704F0FAF9464803F0C7FDC820B6
:10058000ADF8040048F69F40ADF800000020ADF83B
:100590000600ADF8020069463E4803F08BFE0121DB
:1005A0003C4804F0A9FC012211463A4804F0F9F94C
:1005B0000121384804F0DAF9374803F0A7FD4FF479
:1005C0007A70ADF804004720ADF800000020ADF8C7
:1005D0000600ADF8020069462F4803F06BFE0121CA
:1005E0002D4804F089FC012211462B4804F0D9F96A
:1005F0000EBD1CB50921002002F03EFC4FF4007036
:10060000009000208DF8040008208DF805000120DE
:100610008DF80600684604F073FF1CBD05F05FF816
:10062000FFF7D2FDFFF731FEFFF746FF482002F04B
:10063000E9F94FF4FA7002F0FFF900F041F8FFF722
:10064000C6FEFFF7F1FEFFF774FF15E013480078D0
:1006500030B100F097F900201049087002F04DFC0D
:100660000F48007820B101F065FB00200C490870AC
:1006700001F09EFB02F043F8E8E7000000080140AB
:10068000000C0140001001400014014000640040D3
:100690000700002000040040000800400B0000207C
:1006A0000C000020704700BFFEE700BFFEE700BF60
:1006B000FEE700BFFEE770477047704770470000D5
:1006C0002DE9F0410821F74802F053FB04460421CC
:1006D000F54802F04EFB05460121F34802F049FBC4
:1006E00006460221F04802F044FB0746EF4804703A
:1006F000007840EA4500ED4908700846007840EA75
:10070000860008700846007840EAC700087008466E
:100710000078082801DD08200870E4480078C01D32
:10072000E2490870BDE8F0812DE9F04F87B0064638
:100730000F461546002400200690DC48007840F063
:10074000800B4FEA162906F0FF0ACDF804B000200E
:100750008DF80C008DF80D00052D19DC002D17DD2E
:10076000E81CC0B28DF80E0000208DF80F008DF847
:1007700010A08DF8119000BF07E017F8012B0DF1C4
:100780000F00E11C4254601C84B2AC42F5DB02E075
:1007900000208DF80E0001A9C54803F051F98046EC
:1007A00001E0601C84B24146C14803F0E1F9012830
:1007B00002D0B4F57A7FF4DBB4F57A7F05D14146F7
:1007C000BB4803F01AFA01200690069807B0BDE86E
:1007D000F08F2DE9F04786B004460025AA46B548BB
:1007E000007800287BD1B148007840F08009AF48FC
:1007F000007800F26110B049088008460088070AB6
:100800000846008800F0FF08CDF8049000208DF81D
:100810000C008DF80D0008208DF80E0001208DF8D9
:100820000F008DF810808DF8117014F8011B8DF8F1
:10083000121014F8011B8DF8131014F8011B8DF819
:10084000141014F8011B8DF8151014F8011B8DF805
:10085000161001A9964803F0F3F8064604E001A932
:10086000934803F0EDF80646042EF8D001E0681C2A
:1008700085B231468E4803F07BF9012802D0B5F5E8
:10088000FA6FF4DBB5F5FA6F05D13146884803F00D
:10089000B4F94FF0010A08208DF80E0002208DF8FF
:1008A0000F008DF810808DF8117014F8011B8DF871
:1008B000121014F8011B8DF8131014F8011B8DF899
:1008C000141014F8011B8DF8151014F8011B8DF885
:1008D000161001A9764803F0B3F8064605E04FE08C
:1008E00001A9734803F0ACF80646042EF8D001E0E5
:1008F000681C85B231466E4803F03AF9012802D0EF
:10090000B5F5FA6FF4DBB5F5FA6F05D131466848F5
:1009100003F073F94FF0010A04208DF80E00032054
:100920008DF80F008DF810808DF8117014F8011BF0
:100930008DF8121001A95E4803F082F8064604E023
:1009400001A95B4803F07CF80646042EF8D001E0CC
:10095000681C85B23146564803F00AF9012802D0D6
:10096000B5F5FA6FF4DBB5F5FA6F05D131465048AD
:1009700003F043F94FF0010A504606B0BDE8F08796
:1009800000BFFAE7F0B585B000240026474800789C
:1009900040F49067009700208DF808008DF809005A
:1009A0008DF80A006946424803F04AF8054601E01E
:1009B000601C84B229463E4803F0DAF8012802D0D0
:1009C000B4F5FA6FF4DBB4F5FA6F04D12946384870
:1009D00003F013F90126304605B0F0BD01460022B0
:1009E000002305E0354850F821000244581CC3B2EA
:1009F000012BF7DB90B270470146012906D002298E
:100A00006CD0032978D0042977D113E12C48807861
:100A1000401178B32A4840780011D8B129480078AD
:100A2000052801DA0020704726480078052805DBF4
:100A3000244800780A2801DA0120F4E721480078E8
:100A40000A2805DB1F4800780F2801DA0020EAE7B2
:100A50000120E8E71B480078052801DA0120E2E7D9
:100A600018480078052806DB164800780A2802DABC
:100A70000020D8E70BE0134800780A2805DB11486E
:100A800000780F2801DA0120CDE70020CBE70C48E1
:100A900040780011D0B10B4800780A2814DA002001
:100AA000C1E71BE0001001400008014007000020E2
:100AB000006400405300002016000020BC0000200D
:100AC00098260020000000200120ACE7FA480078BA
:100AD0000A2801DA0120A6E70020A4E7F748807879
:100AE000401188B3F54840780011E8B1F248007829
:100AF000052803DA002096E747E0F0E0EE480078AA
:100B0000052805DBEC4800780A2801DA01208AE78D
:100B1000E94800780A2805DBE74800780F2801DA61
:100B2000002080E701207EE7E3480078052801DA0D
:100B3000012078E7E0480078052806DBDE480078E9
:100B40000A2802DA00206EE70BE0DB4800780A286A
:100B500005DBD94800780F2801DA012063E700207F
:100B600061E7D6484078001138B1D34800780A28A8
:100B700001DA002057E7012055E7CF4800780A281E
:100B800001DA01204FE700204DE7CD488078401181
:100B900078B3CB4840780011D8B1C7480078052811
:100BA00001DA00203FE7C4480078052805DBC24889
:100BB00000780A2801DA012035E7BF4800780A28C2
:100BC00005DBBD4800780F2801DA00202BE7012063
:100BD00029E7B9480078062801DA012023E7B6485A
:100BE0000078052806DBB44800780A2802DA0020DD
:100BF00019E70BE0B04800780A2805DBAE4800781A
:100C00000F2801DA01200EE700200CE7AC484078FD
:100C1000001138B1A84800780A2801DA002002E75C
:100C2000012000E7A44800780A2801DA0120FAE64A
:100C30000020F8E6A3488078401178B3A1484078B6
:100C40000011D8B19C480078052801DA0020EAE6B6
:100C500099480078052805DB974800780A2801DACA
:100C60000120E0E6944800780A2805DB92480078E5
:100C70000F2801DA0020D6E60120D4E68E4800785D
:100C8000052801DA0120CEE68B480078052806DB2E
:100C9000894800780A2802DA0020C4E60BE086487A
:100CA00000780A2805DB844800780F2801DA012043
:100CB000B9E60020B7E683484078001138B17E4895
:100CC00000780A2801DA0020ADE60120ABE67A4878
:100CD00000780A2801DA0120A5E60020A3E600BF7B
:100CE00000BF00BF9FE678480078052801DA0020A1
:100CF00070470120FCE72DE9F04107460D4600242E
:100D000006E007F10B00005D70490855601CC4B295
:100D1000AC42F6DB6D4840786C49897840EA0126A0
:100D20006B4800781730B04204D00A21674804F0BD
:100D300057FD04E000206049087063490870BDE871
:100D4000F08110B502460023012A06D0022A14D0F1
:100D5000032A22D0042A40D12FE05C48C07800F05A
:100D60000F035A48C07800F010005A49487057489D
:100D7000C07800F02000887030E05448007900F01E
:100D80000F035248007900F010004C4948704F485A
:100D9000007900F02000887020E04C48407900F095
:100DA0000F034A48407900F0100045494870474811
:100DB000407900F02000887010E04448807900F00D
:100DC0000F034248807900F010003E4948703F48C8
:100DD000807900F02000887000E000BF00BF102B79
:100DE00069D2DFE803F0081F37507D9EC1E2FDFCA9
:100DF000FBFAF9F8F7F6002137480078401E00EBBF
:100E00004000364C215434480078401E00EB40002E
:100E10002044417030480078401E00EB40002044E0
:100E2000817055E101212C480078401E00EB400004
:100E30002A4C2154002128480078401E00EB400035
:100E40002044417024480078401E00EB40002044BC
:100E500081703DE1002120480078401E00EB4000F9
:100E60001E4C215401211C480078401E00EB40001C
:100E700020444170002118480078401E00EB4000DB
:100E80002044817024E1002113480078401E00EBCB
:100E90004000124C215410480078401E00EB4000E6
:100EA0002044417001210C480078401E00EB4000B6
:100EB000204481700CE10AE100000020A5260020FA
:100EC000B5260020C526002001000020CC0000200F
:100ED000070000209826002005000020A400002024
:100EE0001046FFF789FDF8490978491E01EB4101D9
:100EF000F64C60540121501E00EB4000F44C21548C
:100F00000021F1480078401E00EB4000EF4C2044E7
:100F10004170ED480078401E00EB40002044817095
:100F2000D6E00021E8480078401E00EB4000E74C86
:100F300021541046FFF760FDE3490978491E01EB93
:100F40004101214448700121501E00EB4000E04C5B
:100F5000204441700021DC480078401E00EB400036
:100F6000DA4C20448170B3E00021D7480078401E5D
:100F700000EB4000D54C2154D3480078401E00EBD4
:100F80004000204441701046FFF736FDCE490978F5
:100F9000491E01EB4101214488700121501E00EBE4
:100FA0004000CB4C2044817092E00121C64800787B
:100FB000401E00EB4000C54C2154C3480078401E41
:100FC00000EB4000204441700021BF480078401EE3
:100FD00007E07BE079E077E075E073E052E031E034
:100FE00004E000EB40002044817071E01046FFF700
:100FF00003FDB5490978491E01EB4101B34C60542A
:101000000121501E00EB4000B14C21541046FFF767
:10101000F3FCAD490978491E01EB4101AB4C214479
:1010200048700121501E00EB4000A94C2044417043
:101030000021A5480078401E00EB4000A34C20444E
:10104000817045E0FFF74FFE9F490978491E01EB8B
:1010500041019E4C6054C821501E00EB40009C4C46
:101060002154002198480078401E00EB4000974C26
:101070002044417094480078401E00EB400020441A
:10108000817025E0002190480078401E00EB400070
:101090008E4C21548C480078401E00EB40002044C8
:1010A0004170FFF720FE88490978491E01EB410194
:1010B00021448870C821501E00EB4000844C20441D
:1010C000817005E004E003E002E001E000E000BF21
:1010D00000BF10BD10B501207B49087008E07A48B8
:1010E0000078FFF72EFE78480078401C764908709B
:1010F000754800780428F2DD7448007820B110218A
:10110000744801F052FE03E01021724801F04BFEDA
:101110006E48407820B140216E4801F046FE03E061
:1011200040216C4801F03FFE6848807820B10121E1
:10113000694801F03AFE03E00121674801F033FEFF
:101140006248C07828B14FF48061634801F02DFEF9
:1011500004E04FF48061604801F025FE5B480079AF
:1011600028B14FF480515C4801F01FFE04E04FF4B9
:101170008051594801F017FE5448407928B14FF486
:101180000051554801F011FE04E04FF4005152485F
:1011900001F009FE4D48807928B14FF480414E4856
:1011A00001F003FE04E04FF480414B4801F0FBFDE9
:1011B0004648C07920B14021484801F0F6FD03E0DF
:1011C0004021464801F0EFFD4048007A20B18021DF
:1011D000424801F0EAFD03E08021404801F0E3FDD0
:1011E0003A48407A28B14FF400713C4801F0DDFDE7
:1011F00004E04FF40071394801F0D5FD3348807A9E
:1012000028B14FF48071334801F0CFFD04E04FF472
:101210008071304801F0C7FD2C48C07A28B14FF4E6
:1012200000712D4801F0C1FD04E04FF400712A481F
:1012300001F0B9FD01202A49087010BD10B5102138
:10124000244801F0B0FD4021224801F0ACFD01210D
:10125000214801F0A8FD4FF480611F4801F0A3FD73
:101260004FF480511C4801F09EFD4FF400511A4884
:1012700001F099FD4FF48041174801F094FD4021A1
:10128000164801F090FD8021144801F08CFD4FF4C8
:101290000071124801F087FD4FF480710D4801F094
:1012A00082FD4FF400710C4801F07DFD10BD10B5BA
:1012B0000C480078002876D00821064801F059FD36
:1012C00090B9012011E0000005000020A4000020DA
:1012D0008C26002000080140000C01400010014055
:1012E00055000020190000200020F7490978084324
:1012F000F54908702021F54801F03BFD08B90120AF
:1013000000E00020F04949780843EF494870802107
:10131000EE4801F02EFD08B9012000E00020EA4966
:1013200089780843E84988700221E94801F021FDE5
:1013300008B9012000E00020E349C9780843E249E8
:10134000C8704FF40061E24801F013FD08B90120B4
:1013500000E00020DC4909790843DB4908714FF4BB
:101360000061DC4801F005FD08B9012000E0002023
:10137000D54949790843D44948714FF48061D5482B
:1013800001F0F7FC08B9012000E00020CE4989797E
:101390000843CD4988714FF48061CC4801F0E9FCE5
:1013A00010B9012001E03CE00020C749C979084399
:1013B000C549C8714FF40071C44801F0DAFC08B99E
:1013C000012000E00020C049097A0843BE490872A4
:1013D0004FF48051BF4801F0CCFC08B9012000E077
:1013E0000020B949497A0843B74948720421BA48EC
:1013F00001F0BFFC08B9012000E00020B249897A61
:101400000843B14988724FF48071B14801F0B1FCD2
:1014100008B9012000E00020AB49C97A0843AA4975
:10142000C8724FF40041AA4801F0A3FC08B901209A
:1014300000E00020A94909780843A849087010BDB8
:1014400030B503460BB9002030BD00219A0F9B0038
:10145000012A01D9491C521A0F240DE049009200BB
:1014600002EB93720D46012000EB45059B00AA425A
:1014700001D3521B491C641E002CEFD10846E3E740
:101480002DE9F04105460E464FF0000800270024E4
:1014900006E055F8240055F8241000FB0177641C81
:1014A000B442F6DB97FBF6F84046FFF7C9FF8046EB
:1014B0004046BDE8F08184480078012807D188487B
:1014C0000078012803D100208649C87022E07E48B8
:1014D000007840B98248007828B901208149C87055
:1014E0000020087116E078480078012807D17C4870
:1014F000007820B902207B49C87008710AE0724860
:10150000007838B976480078012803D1032075495E
:10151000C87008716C48007801280BD170480078B9
:10152000012807D170480088082803DB00206D4996
:10153000087110E06448007801280CD168480078F0
:10154000012808D168480088082804DA0120654984
:1015500008710320C8705C484078012807D16048B2
:101560004078012803D100205E49487122E05648A6
:10157000407840B95A48407828B901205949487103
:101580000020887116E050484078012807D154485F
:10159000407820B902205349487188710AE04A48CE
:1015A000407838B94E484078012803D103204D498E
:1015B000487188714448407801280BD148484078E8
:1015C000012807D148480088082803DB0020454946
:1015D000887110E03C48407801280CD140484078A0
:1015E000012808D140480088082804DA01203D4934
:1015F00088710320487134488078012807D1384821
:101600008078012803D100203649C87122E02E4895
:10161000807840B93248807828B901203149C871B2
:101620000020087216E028488078012807D12C484D
:10163000807820B902202B49C87108720AE022483C
:10164000807838B926488078012803D103202549BD
:10165000C87108721C48807801280BD12048807816
:10166000012807D120480088082803DB00201D49F5
:10167000087210E01448807801280CD1184880784E
:10168000012808D118480088082804DA01201549E3
:1016900008720320C8710C48C078012807D110488F
:1016A000C078012803D100201049C87037E00648EF
:1016B000C078E8B90A48C078D0B901200B49C87091
:1016C000002008712BE00000D60000200008014037
:1016D000000C014000100140001401401F000020D8
:1016E000A4000020982600203C000020A526002011
:1016F000FE48C078012807D1FD48C07820B90220F3
:10170000FC49C87008710AE0F848C07838B9F84850
:10171000C078012803D10320F649C8700871F34846
:10172000C07801280BD1F248C078012807D1F248CF
:101730000088082803DB0020EE49087110E0EB4820
:10174000C07801280CD1EA48C078012808D1EA48BD
:101750000088082804DA0120E64908710320C870CF
:10176000E2480079012807D1E1480079012803D136
:101770000020E049487122E0DC48007940B9DC48AB
:10178000007928B90120DB4948710020887116E0F2
:10179000D6480079012807D1D548007920B9022020
:1017A000D449487188710AE0D048007938B9D048E6
:1017B0000079012803D10320CE4948718871CB48B4
:1017C000007901280BD1CA480079012807D1CA48FD
:1017D0000088082803DB0020C649887110E0C34850
:1017E000007901280CD1C2480079012808D1C248EB
:1017F0000088082804DA0120BE4988710320487156
:10180000BA484079012807D1B9484079012803D165
:101810000020B849C87122E0B448407940B9B448C2
:10182000407928B90120B349C8710020087216E038
:10183000AE484079012807D1AD48407920B902204F
:10184000AC49C87108720AE0A848407938B9A8487C
:101850004079012803D10320A649C8710872A34822
:10186000407901280BD1A2484079012807D1A2482C
:101870000088082803DB00209E49087210E09B487E
:10188000407901280CD19A484079012808D19A481A
:101890000088082804DA0120964908720320C871DC
:1018A00092488079012807D191488079012803D195
:1018B00000209249C87022E08C48807940B98C4859
:1018C000807928B901208D49C8700020087116E080
:1018D00086488079012807D18548807920B902207F
:1018E0008649C87008710AE08048807938B9804814
:1018F0008079012803D103208049C87008717B4892
:10190000807901280BD17A488079012807D17C4859
:101910000088082803DB00207849087110E073482C
:10192000807901280CD172488079012808D1744847
:101930000088082804DA0120704908710320C87063
:101940006A48C079012807D16948C079012803D1C4
:1019500000206A49487122E06448C07940B964486F
:10196000C07928B90120654948710020887116E0C6
:101970005E48C079012807D15D48C07920B90220AE
:101980005E49487188710AE05848C07938B95848AA
:10199000C079012803D10320584948718871534800
:1019A000C07901280BD15248C079012807D1544889
:1019B0000088082803DB00205049887110E04B485C
:1019C000C07901280CD14A48C079012808D14C4877
:1019D0000088082804DA01204849887103204871EA
:1019E0004248007A012807D14148007A012803D1F2
:1019F00000204249C87122E03C48007A40B93C4886
:101A0000007A28B901203D49C8710020087216E00B
:101A10003648007A012807D13548007A20B90220DB
:101A20003649C87108720AE03048007A38B930483F
:101A3000007A012803D103203049C87108722B486D
:101A4000007A01280BD12A48007A012807D12C48B6
:101A50000088082803DB00202849087210E023488A
:101A6000007A01280CD12248007A012808D12448A4
:101A70000088082804DA0120204908720320C87170
:101A80001A48407A012807D11948407A012803D121
:101A900000201C49C87022E01448407A40B914481C
:101AA000407A28B901201749C8700020087116E053
:101AB0000E48407A012807D10D48407A20B902200B
:101AC0001049C87008710AE00848407A38B90848D7
:101AD000407A012803D103200A49C87008710348DD
:101AE000407A01281AD10248407A0DE0D600002041
:101AF000A4000020A52600203E000020B5260020DE
:101B000040000020C5260020012807D1FE4800889B
:101B1000082803DB0020FD49087110E0FC48407AEA
:101B200001280CD1FB48407A012808D1F6480088EA
:101B3000082804DA0120F54908710320C870F44828
:101B4000807A012807D1F348807A012803D1002048
:101B5000EE49487122E0EE48807A40B9ED48807A3B
:101B600028B90120E94948710020887116E0E84849
:101B7000807A012807D1E748807A20B90220E3491A
:101B8000487188710AE0E248807A38B9E148807A81
:101B9000012803D10320DD4948718871DC48807A2F
:101BA00001280BD1DB48807A012807D1D64800886C
:101BB000082803DB0020D549887110E0D448807ADA
:101BC00001280CD1D348807A012808D1CE4800885A
:101BD000082804DA0120CD49887103204871CC48D7
:101BE000C07A012807D1CB48C07A012803D1002050
:101BF000C649C87122E0C648C07A40B9C548C07A13
:101C000028B90120C149C8710020087216E0C048F7
:101C1000C07A012807D1BF48C07A20B90220BB4949
:101C2000C87108720AE0BA48C07A38B9B948C07AAF
:101C3000012803D10320B549C8710872B448807ADD
:101C400001280BD1B348C07A012807D1AE480088DB
:101C5000082803DB0020AD49087210E0AC48807A08
:101C600001280CD1AB48C07A012808D1A6480088C9
:101C7000082804DA0120A54908720320C8717047BA
:101C800010B5072301220A21A34801F0DEFB012140
:101C9000A14801F0AEFB00BF02219F4801F01AFDF0
:101CA0000028F9D09C4801F037FC9C4908600723C4
:101CB00001220B21984801F0C8FB0121964801F050
:101CC00098FB00BF0221944801F004FD0028F9D0E0
:101CD000914801F021FC92490860072301220E215E
:101CE0008D4801F0B2FB01218B4801F082FB00BF5F
:101CF0000221894801F0EEFC0028F9D0864801F065
:101D00000BFC88490860072301220F21824801F05B
:101D10009CFB0121804801F06CFB00BF02217E4842
:101D200001F0D8FC0028F9D07B4801F0F5FB7E4992
:101D3000086010BD10B564217C48FFF7A1FB80B29C
:101D40004FF4A67148434400E01704EB1050001311
:101D50007749088064217748FFF792FB80B24FF4FF
:101D6000A67148434400E01704EB10500013724979
:101D7000088064217148FFF783FB80B24FF4A6719D
:101D800048434400E01704EB105000136C490880EE
:101D900064216C48FFF774FB80B24FF4A67148438E
:101DA0004400E01704EB105000136749088010BD91
:101DB00010B56648007810B1012812D10CE06448D3
:101DC000007820B10421634800F0EFFF03E0042114
:101DD000604800F0E8FF05E004215E4800F0E5FF00
:101DE00000E000BF00BF10BD5B48C07800F01000ED
:101DF0005A4948705848C07800F02000887056480A
:101E0000007900F01000564948705348007900F0FE
:101E1000200088705048407900F010005149487007
:101E20004D48407900F0200088704B48807900F0E0
:101E30001000364948704848807900F020008870CA
:101E4000704710B586B00020019002908DF80C000C
:101E50008DF80E008DF81700002408E000210DF128
:101E60000F000155002040490855601CC4B2082CE1
:101E7000F4DB01AA00213D4801F0D7FE002406E072
:101E80000DF10F00005D38490855601CC4B29DF883
:101E90000E00A042F4DC9DF80C0000287CD19DF8D7
:101EA0000E00002879DD9DF80E1001A8FEF723FF33
:101EB000FFF79AFF2E48007830B901202C490870AE
:101EC00001212C4802F052FD2B48007868B96320AC
:101ED0004FF0804188840020284908702849087004
:101EE00028490870C7202849088028480078042815
:101EF00009D12748FEF76DFC0020264908700B2108
:101F0000234803F06DFC49E042000020C526002074
:101F1000D6000020A400002000240140240000205E
:101F2000280000202C00002030000020E4000020C9
:101F30003400002074020020360000200404002039
:101F400038000020940500203A00002053000020B3
:101F50000200002000100140CC0000209826002044
:101F6000A5260020B52600200E00002000640040B9
:101F700009000020000800400A00002000000020A6
:101F80002300002003000020240400402000002043
:101F9000B00000200600002041E02CE00120FE49B6
:101FA0000870C720FD490880632009078884002045
:101FB000FB4908700C20FB4908700020FA490870A2
:101FC000FA490870FA490880FA490880FA490880F5
:101FD000FA490880FA490880FA490880FA490880D5
:101FE000FA490880FA4800210160416081600B21B4
:101FF000F84803F0F5FB9DF80E0080B90120F64982
:1020000008700C20F54908700020F5490870F54863
:10201000007808B9012000E00020F249087006B0FD
:1020200010BD08B50121880702F069FF00287DD0A6
:102030000121880702F074FFE9480078002876D172
:10204000E948007860B90D208DF8000004208DF873
:1020500001000222694640F27110FEF765FB00BFE5
:10206000FFF738F80120E0490870D04800780128CF
:1020700010D1DE48007868B10120DD490870DD49E3
:1020800008700020DC490880DC490880DC490880B1
:10209000DC490880C548007803287DD1D048007805
:1020A0000028FAD1D1480078002876D0D64909888E
:1020B000D14A1288881800EBD071C1F34F01CE4A83
:1020C0001180D2490988CD4A1288881800EBD07156
:1020D000C1F34F01C94A1180CD490988C84A128805
:1020E000881800EBD071C1F34F01C54A1180C9496E
:1020F0000988C44A1288881800EBD071C1F34F01D7
:10210000C04A1180FFF7D7F9C34800210160416040
:102110008160AF48016041608160C0488079800182
:10212000BE49497940EA0110BC4901E017E1F2E0FB
:10213000097940EA8100B949C9780843A54908707E
:10214000B74800798001B649C97840EA0110B3491F
:10215000097A40EA8100B149C97908439D4948702C
:10216000AF48007A8001AE49C97940EA0110AC4914
:10217000897940EA8100AA494979084395498870DC
:10218000A84880798001A749497940EA0110A5490A
:10219000097940EA810001E0ABE099E0A149C97802
:1021A00008438C49C870A048007980019E49C978CD
:1021B00040EA01109B49097A40EA81009949C979AE
:1021C0000843844908719848007A80019649C97982
:1021D00040EA01109449897940EA8100924949799D
:1021E00008437C4948710020804908707048008885
:1021F000052803DA00206E49088006E06C48008854
:10220000C82802DDFF206A4908806A48008805283E
:1022100003DA00206749088006E066480088C8287D
:1022200002DDFF206349088063480088052803DA3F
:1022300000206149088006E05F480088C82802DD68
:10224000FF205D4908805D480088052803DA0020EA
:102250005A49088006E059480088C82802DDFF2056
:10226000564908805B48807951490988884203DAD9
:102270004F480078574988715648C0794D490988B8
:10228000884203DA4B4800785249C8715148007AB5
:1022900049490988884203DA474800784D4908725D
:1022A0004C48407A45490988884203DA4348007817
:1022B000484948725D48007818B1AA20454988729B
:1022C00006E00B21434803F08BFA55204149887200
:1022D00000205749087034480078401C3249087083
:1022E00008460078052801D10020087000204049E8
:1022F00008702E480078401C2C4908700846007869
:1023000004280BD13348FEF764FA002027490870EF
:102310004649087002E000202449087045480078CA
:10232000002808DD43480078C82804DA41480078CE
:10233000401C404908702A48007820B1FEF77EFF13
:1023400000202949087016480078142802D100207E
:102350001349087012480078401C1149087008BDE4
:1023600010B501210D48243802F0C9FD002867D0BE
:1023700001210A48243802F0D3FD2F480078401C80
:102380002D4908702D480078C82863DA2B4800785A
:10239000401C2A49087054E00A0000202404004030
:1023A0000000002051000020200000202300002019
:1023B0004400002046000020480000204A00002081
:1023C00056000020580000205A0000205C00002029
:1023D0008C260020B00000200800002052000020C1
:1023E00053000020020000200D00002055000020B6
:1023F00019000020220000203C0000203E000020A8
:102400004000002042000020340000203600002060
:10241000380000203A000020D60000209826002036
:10242000A5260020B5260020C52600201F0000207C
:10243000060000200100002077000020030000209B
:1024400029E0084600780A2804D1002008700120FD
:10245000FE490870FE48007890B1FE480078401EA2
:10246000FC4908700846007850B9FEF7E7FE0020E6
:10247000F7490870F84908700A21F84803F0B0F9E4
:10248000F748007810B90120F6490870F448007840
:10249000401EF349087010BD10B50121F24802F04A
:1024A0002EFD002870D00121EF4802F039FDFEF723
:1024B000FEFEFFF7E5FBED48007865282DDAEC48D5
:1024C000007850B3EB480068EB49E84A127841F8CD
:1024D0002200EA480068EA49E44A127841F82200FA
:1024E000E8480068E849E14A127841F82200E748E4
:1024F0000168E748DD4A127840F82210DB4800788E
:10250000642805D10120E34908700020D8490870EB
:10251000D6480078401CD5490870DF48007801286B
:1025200000D100E00020DC494978012900D100E019
:1025300000210843D8498978012900D100E0002111
:102540000843E0B1D5480088FA280DDBD34800885D
:1025500040F2EE21884207DAC6480168CF48008879
:10256000FA38CF4A42F82010CC48008840F2EE21D9
:10257000884204D10120CB490870CB490870C64875
:10258000C078012801D101E0B8E00020C2490979F2
:10259000012900D100E000210843BF494979012900
:1025A00000D100E000210843E0B1C0480088FA28CB
:1025B0000DDBBE48008840F2EE21884207DAAF48C2
:1025C0000168BA480088FA38B94A42F82010B7487A
:1025D000008840F2EE21884204D10120B5490870FC
:1025E000B5490870AC488079012800D100E000208E
:1025F000A949C979012900D100E000210843A64971
:10260000097A012900D100E000210843E0B1AB487C
:102610000088FA280DDBA948008840F2EE218842A4
:1026200007DA98480168A5480088FA38A44A42F8B1
:102630002010A248008840F2EE21884204D10120F7
:10264000A0490870A04908709348407A012800D139
:1026500000E000209049897A012900D100E00021A2
:1026600008438D49C97A012900D100E000210843BF
:10267000E0B196480088FA280DDB9448008840F2C3
:10268000EE21884207DA8148016890480088FA38CC
:102690008F4A42F820108D48008840F2EE2188428F
:1026A00004D101208B4908708B4908707B48008851
:1026B000B0F57A7F04DA79480088401C77490880B1
:1026C0007A480088B0F57A7F04DA78480088401CA0
:1026D0007649088079480088B0F57A7F04DA77482F
:1026E0000088401C7549088078480088B0F57A7FDA
:1026F00004DA76480088401C7449088010BD10B583
:1027000068480078012840D14FF4FA716448FEF718
:10271000B7FE80B24FF4A67148434400E01704EBC3
:10272000105000136D490880084600886C490988DC
:10273000884208DB69480088032804DD6748008870
:10274000674908800EE06648008864490988401A95
:10275000002807DD61480088032803DD5F48008802
:102760005F4908805F480078401C5E490870084651
:102770000078032806D1594800885949088000206C
:10278000584908700020474908704A4800780128D5
:1027900040D14FF4FA714648FEF772FE80B24FF412
:1027A000A67148434400E01704EB105000134E4953
:1027B0000880084600884D490988884208DB4A4855
:1027C0000088032804DD48480088484908800EE056
:1027D0004648008844490988401A002807DD4248D5
:1027E0000088032803DD40480088404908804048AD
:1027F0000078401C3E49087008460078032806D13E
:10280000394800883949088000203949087000207B
:10281000284908702B48007801286FD14FF4FA71CD
:102820002748FEF72DFE80B24FF4A67148434400BE
:10283000E01704EB105000132E490880084600886A
:102840002D490988884262DB2A4858E00B000020A5
:102850000A0000205100002023000020CC000020AE
:102860005200002053000020000800400600002015
:102870002200002024000020E40000202800002086
:10288000740200202C0000200404002030000020EE
:10289000940500200C0000208C260020560000200B
:1028A000240700201A000020720000205800002099
:1028B000F40E00201B000020730000205A000020AE
:1028C000C41600201C000020740000205C000020C2
:1028D000941E00201D0000207500002066000020CE
:1028E0005E0000206E0000206800002060000020D4
:1028F0006F0000206A0000206200002029E00088AC
:10290000032804DD36480088364908800EE0354843
:10291000008833490988401A002807DD30480088BC
:10292000032803DD2E4800882E4908802E480078B1
:10293000401C2D49087008460078032806D1284815
:10294000008828490880002027490870002027496E
:10295000087027480078012840D14FF4FA712548C3
:10296000FEF78EFD80B24FF4A67148434400E01795
:1029700004EB1050001320490880084600881F49C6
:102980000988884208DB1C480088032804DD1A48AF
:1029900000881A4908800EE01848008816490988FE
:1029A000401A002807DD14480088032803DD124878
:1029B00000881249088012480078401C10490870AD
:1029C00008460078032806D10B4800880B49088088
:1029D00000200B49087000200549087010BD000058
:1029E0006A00002062000020700000201C0000200F
:1029F0001D000020941E00206C00002064000020B8
:102A00007100002010B504466FF0040000F09FF83C
:102A1000E11704EB5171C1F3C701234A117010464D
:102A2000007800EB4001C1EBC0104FF6FF7101EAE6
:102A3000C0001E49088010BD01461C4A12884A4346
:102A40004FF0E0235A6100229A6101221A6100BF0F
:102A50004FF0E022106900F001021AB100F4803258
:102A6000002AF5D000224FF0E0231A619A617047E6
:102A700001460D4A12784A434FF0E0235A61002282
:102A80009A6101221A6100BF4FF0E022106900F044
:102A900001021AB100F48032002AF5D000224FF072
:102AA000E0231A619A617047780000207A000020C4
:102AB00031490143314A1160704770B5002100234C
:102AC0000F22C47804B32D4C246804F4E064C4F5E8
:102AD000E064210AC1F10403CA40447804FA03F116
:102AE0008478144021430901254C0678A1550478C7
:102AF00004F01F050124AC4005786D11AD0005F10F
:102B0000E025C5F8004109E0047804F01F05012420
:102B1000AC401C4D0678761145F8264070BD1A4A27
:102B20000A400243154B1B1F1A60704739B1134A04
:102B3000121D12680243114B1B1D1A6006E00F4A5A
:102B4000121D126882430D4B1B1D1A60704704282A
:102B500008D14FF0E021096941F004014FF0E02273
:102B6000116107E04FF0E021096921F004014FF005
:102B7000E0221161704700000000FA050CED00E052
:102B800000E400E080E100E080FFFF1F10B5044694
:102B9000CC48844208D10121042000F04DFB0021E3
:102BA000042000F049FB46E0C748844208D10121D7
:102BB000082000F041FB0021082000F03DFB3AE036
:102BC000C248844208D10121102000F035FB0021C9
:102BD000102000F031FB2EE0BD48844208D10121D5
:102BE000202000F029FB0021202000F025FB22E01E
:102BF000B848844208D10121402000F01DFB00218B
:102C0000402000F019FB16E0B348844208D10121AE
:102C1000802000F011FB0021802000F00DFB0AE075
:102C2000AE48844207D10121801500F005FB002148
:102C3000A01500F001FB10BD10B50121084600F001
:102C4000FBFA0021012000F0F7FA10BD2DE9F04158
:102C5000024600250026002000230024002791F8CA
:102C600003C00CF00F0591F803C00CF0100CBCF180
:102C7000000F03D091F802C04CEA050591F800C09E
:102C8000BCF1000F31D0146800202BE04FF0010C94
:102C90000CFA00F3B1F800C00CEA03069E4220D102
:102CA00083004FF00F0C0CFA03F7BC4305FA03FC4A
:102CB0004CEA040491F803C0BCF1280F06D14FF090
:102CC000010C0CFA00FCC2F814C00AE091F803C031
:102CD000BCF1480F05D14FF0010C0CFA00FCC2F812
:102CE00010C0401C0828D1D31460B1F800C0BCF15A
:102CF000FF0F34DD546800202EE000F1080C4FF087
:102D0000010808FA0CF3B1F800C00CEA03069E4271
:102D100021D183004FF00F0C0CFA03F7BC4305FAE6
:102D200003FC4CEA040491F803C0BCF1280F05D160
:102D300000F1080C08FA0CF8C2F8148091F803C0EE
:102D4000BCF1480F07D100F1080C4FF0010808FA58
:102D50000CF8C2F81080401C0828CED35460BDE89F
:102D6000F0814FF6FF710180022181700421C17052
:102D700070470246002093680B400BB1012000E031
:102D8000002070470146886880B2704702460020E4
:102D9000D3680B400BB1012000E0002070470146D2
:102DA000C86880B2704701617047416170470AB1DD
:102DB000016100E041617047C16070474FF48032AB
:102DC0000A43826181618261826982697047024639
:102DD0000020434B18684FF68073184040EA0210F9
:102DE00008433F4B186070473E49C8617047F0B5D3
:102DF0000A46002300240021002500F00046B6F119
:102E0000004F02D1364EF16901E0354E7168C0F3D2
:102E1000034583B200F44016B6F5401F08D121F0F7
:102E200070612F4E766826F070662D4F7E6012E03E
:102E300000F48016B6F5801F06D1032606FA05F4C5
:102E4000A14341F0706106E0460D360103FA06F633
:102E5000B14341F0706122B1460D360103FA06F626
:102E6000314300F00046B6F1004F02D11C4EF16133
:102E700001E01B4E7160F0BD30B500228B071C0FC6
:102E80000F2303FA04F2164B08338C1053F8243046
:102E90009343134C08348D1044F8253023468C108E
:102EA00053F824308C07240F00FA04F423430C4C0D
:102EB00008348D1044F8253030BD0A49DC310860F3
:102EC0007047000000080140000C01400010014064
:102ED0000014014000180140001C01400020014086
:102EE00000000140000020420E49086070470D4973
:102EF000486070470B49886070474AF6AA20094924
:102F0000086070474CF6CC4006490860704701469F
:102F10000020044AD2680A400AB1012000E00020E3
:102F20007047000000300040DF48006840F00100BA
:102F3000DD49086008464068DC490840DA494860D5
:102F400008460068DA490840D74908600846006822
:102F500020F4802008600846406820F4FE004860A5
:102F60004FF41F0088607047CF49096821F4803111
:102F7000CD4A11601146096821F480211160B0F535
:102F8000803F03D0B0F5802F0ED106E0C649096816
:102F900041F48031C44A116007E0C349096841F433
:102FA000A021C14A116000E000BF00BF704710B50A
:102FB00001460022002300204A11012A02D1BA4C06
:102FC000236806E0022A02D1B74C236A01E0B64C1E
:102FD000636A01F01F02012494401C400CB10120DF
:102FE00000E0002010BD38B500200090002400252E
:102FF00000BF3120FFF7DBFF05460098401C009022
:103000000098B0F5A06F01D0002DF2D03120FFF76D
:10301000CEFF08B1012400E00024204638BD01465F
:103020000020A14A106820F0F80040EAC1001060BA
:103030007047A04908607047024600209A4B5868C4
:1030400020F47C1042EA01031843974B5860704704
:1030500098490866704701460020934A506820F05E
:1030600003000843506070478F48406800F00C0030
:103070007047014600208C4A506820F0F000084359
:103080005060704701460020874A506820F4E06095
:1030900008435060704701460020834A506820F47E
:1030A000605040EAC1005060704729B17E4A527AB0
:1030B00002437D4B5A7204E07B4A527A82437A4B38
:1030C0005A7270477B49D83108607047014600202A
:1030D000754A506820F44040084350607047002112
:1030E000714A20321170704A82F82010012802D0F3
:1030F00004280AD104E001216B4A2032117005E056
:103100000521694A2032117000E000BF00BF7047FE
:103110006949086070476449096A0143624A11625B
:103120007047654944390860704730B50021002276
:10313000002400235C4D6D6805F00C0121B10429C9
:1031400005D0082923D105E05C4D056022E05B4DE8
:1031500005601FE0544D6D6805F47012524D6D68A6
:1031600005F48034022505EB92421CB9544D5543B9
:1031700005600BE04C4D6D6805F400351DB1504DF8
:103180005543056002E04D4D5543056002E04B4D4F
:10319000056000BF00BF444D6D6805F0F0010909EE
:1031A000484D6B5C0568DD4045603F4D6D6805F43A
:1031B000E061090A434D6B5C4568DD4085603A4D2E
:1031C0006D6805F46051C90A3E4D6B5C4568DD4091
:1031D000C560354D6D6805F44041890B3A4D6B5C17
:1031E000C568B5FBF3F5056130BD29B12E4A5269BA
:1031F00002432D4B5A6104E02B4A526982432A4B09
:103200005A61704729B1284A92690243264B9A6154
:1032100004E0254A92698243234B9A61704729B1A1
:10322000214AD2690243204BDA6104E01E4AD26986
:1032300082431D4BDA61704729B11B4AD2680243B1
:10324000194BDA6004E0184AD2688243164BDA6000
:10325000704729B1144A12690243134B1A6104E002
:10326000114A12698243104B1A6170471249403962
:10327000086070470F49C86470470B49C8717047B0
:103280000948406A40F0807007494862704701462B
:103290000020054A92680A400AB1012000E000209F
:1032A0007047014988727047001002400000FFF823
:1032B000FFFFF6FE000042428004424200127A0004
:1032C00000093D007C0000208C00002010B5044661
:1032D000FA48844208D101214015FFF7ADFF0021D3
:1032E0006015FFF7A9FF17E0F548844208D10121D6
:1032F0000015FFF7A1FF00212015FFF79DFF0BE050
:10330000F048844208D10121C803FFF795FF00214E
:103310004FF40040FFF790FF10BD30B5024600208B
:1033200000235068E84C20400D790C6844EA0524DD
:10333000204350609068E54C2040D1E902542C4372
:103340004D7944EA450420439060D06A20F470002F
:103350000C7C641EE4B2234340EA0350D06230BDCB
:1033600000210160017141718160C160012101741E
:10337000704721B1826842F00102826003E08268F6
:1033800022F001028260704721B1826842F48072AB
:10339000826003E0826822F480728260704710B518
:1033A0000023CBB21AB144681C43446002E0446875
:1033B0009C43446010BD816841F008018160704702
:1033C000014600208A6802F008020AB1012000E0EC
:1033D00000207047816841F0040181607047014618
:1033E00000208A6802F004020AB1012000E00020F7
:1033F000704721B1826842F4A002826003E08268D3
:1034000022F4A00282607047014600208A6802F41C
:1034100080020AB1012000E00020704710B50A4682
:1034200000210023416821F46041531E41EA4331E9
:10343000416010BD21B1426842F40062426003E085
:10344000426822F4006242607047F0B504460D46BF
:1034500000200021092D11DDE068A5F10A0606EB28
:103460004607072606FA07F18843A5F10A0606EB88
:10347000460603FA06F10843E0600CE0206905EB1C
:103480004507072606FA07F1884305EB450603FAC8
:1034900006F108432061072A0FDA606B561E06EB1F
:1034A00086071F2606FA07F18843561E06EB860696
:1034B00005FA06F10843606322E00D2A0FDA206B5B
:1034C000D61F06EB86071F2606FA07F18843D61F8C
:1034D00006EB860605FA06F10843206310E0E06A71
:1034E000A2F10D0606EB86071F2606FA07F18843B0
:1034F000A2F10D0606EB860605FA06F10843E06226
:10350000F0BD21B1826842F48012826003E08268DB
:1035100022F48012826070470146C86C80B2704706
:1035200066484C300068704721B1426842F48062BE
:10353000426003E0426822F480624260704721B139
:10354000426842F48052426003E0426822F48052B2
:10355000426070470A460021816821F4E04111432E
:103560008160704721B1826842F40042826003E0CA
:10357000826822F400428260704721B1826842F47E
:103580000212826003E0826822F4021282607047B5
:10359000014600208A6802F400120AB1012000E00E
:1035A00000207047F0B50446154600200022002692
:1035B000092911DDE068A1F10A0707EB470C07278D
:1035C00007FA0CF29043A1F10A0707EB470703FA49
:1035D00007F21043E0600CE0206901EB410C072783
:1035E00007FA0CF2904301EB410703FA07F210438C
:1035F0002061A06BC0F30156EF1C06F1010CA7EB94
:103600000C0707EB870C1F2707FA0CF29043EF1CFF
:1036100006F1010CA7EB0C0707EB870701FA07F28D
:103620001043A063F0BD10B50A4600210023816B52
:1036300021F44011531E41EA0351816310BD08B5C6
:10364000002300930090009B0B440093009B1A60A2
:1036500008BD08B5024600200090009201F1280044
:10366000009B184400900098006880B208BD0A468C
:1036700000214168164B1940114341607047416277
:10368000826270470A460021416821F01F01114300
:103690004160704740B109490831096841F40001AF
:1036A000064A0832116007E004490831096821F42C
:1036B0000001024A083211607047000000240140F6
:1036C00000280140003C0140FFFEF0FFFDF7F1FF44
:1036D000FFFD3FFF0246002013680B400BB10120A5
:1036E00000E000207047CA430260704770B5024690
:1036F0000020002300240B125568CEB205EA060410
:1037000015681D4015B10CB1012000E0002070BD0E
:1037100000220A12D34303607047000010B504462C
:10372000FE48844209D101214806FFF792FD00219D
:103730004FF00070FFF78DFD08E001218806FFF7CC
:1037400088FD00214FF08060FFF783FD10BD30B58C
:10375000024600200023146824F002041460146858
:1037600044F00104146000E05B1C546804F00104A0
:103770001CB94FF6FF74A342F6D1546804F001045B
:103780000CB900206CE08C79012C04D1146844F051
:103790008004146003E0146824F080041460CC7981
:1037A000012C04D1146844F04004146003E0146850
:1037B00024F0400414600C7A012C04D1146844F005
:1037C0002004146003E0146824F0200414604C7A90
:1037D000012C04D1146844F01004146003E0146850
:1037E00024F0100414608C7A012C04D1146844F085
:1037F0000804146003E0146824F008041460CC7A10
:10380000012C04D1146844F00404146003E014682B
:1038100024F0040414608C78A407CD7844EA05648D
:103820000D7944EA05444D7944EA05540D886D1E2E
:103830002C43D461146824F001041460002300E0D8
:103840005B1C546804F001041CB14FF6FF74A342E2
:10385000F6D1546804F001040CB1002000E001200E
:1038600030BD10B50021837A012202FA03F1AC4A7F
:10387000126842F00102AA4B1A60A94A1C3212686F
:103880008A43A74B1C331A60027BCAB9A44A0C3284
:1038900012688A43A24B0C331A604288C38842EAFA
:1038A00003439F4A4032847A42F834300288838846
:1038B00042EA03439A4A4032847A02EBC4025360DC
:1038C000027B012A19D1964A0C3212680A43944BA2
:1038D0000C331A604288038842EA0343904A40321C
:1038E000847A42F83430C288838842EA03438C4A9F
:1038F0004032847A02EBC4025360C27A3AB9884AF1
:10390000121D12688A43864B1B1D1A6006E0844A0A
:10391000121D12680A43824B1B1D1A60028932B9BC
:103920007F4A143212688A437D4B14331A6002892D
:10393000012A06D17A4A143212680A43784B1433AA
:103940001A60427B012A06D1754A1C3212680A436A
:10395000734B1C331A60724A126822F00102704BDA
:103960001A6010BD00218171C171017241728172B2
:10397000C1728170C1700321017102214171012165
:10398000018070476649096841F00101644A11608D
:103990001146096843F60E729143614A116011465F
:1039A000096841EA002111601146096821F001010E
:1039B0001160704721B1026842F48032026003E076
:1039C000026822F4803202607047E1B1026842F07E
:1039D000800202604FF4C272125842F480734FF4B6
:1039E000C27213504FF4CA72125842F480734FF4EB
:1039F000CA7213504FF4D272125842F480734FF4CB
:103A0000D27213501BE0026822F0800202604FF471
:103A1000C272125822F480734FF4C27213504FF4E2
:103A2000CA72125822F480734FF4CA7213504FF4C2
:103A3000D272125822F480734FF4D272135070472E
:103A400010B502460020936803F08063B3F1806FE5
:103A500000D110E0936803F00063B3F1006F01D16F
:103A6000012008E0936803F08053B3F1805F01D137
:103A7000022000E00420042879D002F5C07303EB93
:103A800000131B6803F0010402F5C07303EB00137D
:103A90001C600B7A7BB94B7A0C8843EA445302F5DD
:103AA000C07404EB00142468234302F5C07404EBD3
:103AB0000014236010E00B7A4C6843EAC4034C7A8C
:103AC000234302F5C07404EB00142468234302F579
:103AD000C07404EB001423608B7A03F00F038B7225
:103AE00002F5C07303EB00135B6823F00F0402F5CB
:103AF000C07303EB00135C6002F5C07303EB0013AB
:103B00005B688C7A234302F5C07404EB0014636095
:103B10008B7B1C064B7B44EA034403E000640040BB
:103B2000006600400B7B44EA0323CC7A234302F572
:103B3000C07404EB0014A3608B7C1C064B7C44EA2D
:103B400003440B7C44EA0323CC7B234302F5C0747B
:103B500004EB0014E36002F5C07303EB00131B6871
:103B600043F0010402F5C07303EB00131C6010BDA9
:103B700010B50246002321B1012907D002290FD137
:103B800009E09068F94C00EA04030BE09068F84CF7
:103B900000EA040306E09068F64C00EA040301E042
:103BA000002300BF00BFF44C181BA34216D007DC53
:103BB00083B16FF08060184470B1022818D111E011
:103BC000B0F5007F10D0ED4C204448B1B0F5003F77
:103BD0000ED10BE002230DE000230BE0002309E0EF
:103BE000002307E0012305E0012303E0012301E0B6
:103BF000002300BF00BFD8B210BD21B1012907D0FA
:103C000002290FD109E0826842F0800282600AE056
:103C1000826842F40042826005E0826842F4000259
:103C2000826000E000BF00BF704710B500F5D87398
:103C300003EB01131B6803F004031372137A53B9E7
:103C400000F5D87303EB01131B6840F2FF7404EA1C
:103C50005353136009E000F5D87303EB01131B689D
:103C60006FF0604404EAD303536000F5D87303EBAC
:103C700001131B6803F00203537200F5D87303EBC2
:103C800001135B6803F00F03937200F5D87303EB25
:103C900001135B681B0AD37400F5D87303EB01139F
:103CA0009B68D37200F5D87303EB01139B681C0A61
:103CB000147300F5D87303EB01139B681C0C547349
:103CC00000F5D87303EB01139B681B0E937300F58B
:103CD000D87303EB0113DB68D37300F5D87303EBE0
:103CE0000113DB681C0A147400F5D87303EB01138D
:103CF000DB681C0C547400F5D87303EB0113DB680C
:103D00001B0E937421B9C36843F02003C36003E022
:103D1000036943F02003036110BD21B9C26842F07A
:103D20002002C26003E0026942F020020261704793
:103D30000246002019B9D36803F0030006E0012908
:103D400003D1136903F0030000E00020704710B5B1
:103D500002460B4600204FF6FF71BBB9146824F0F1
:103D6000020444F00104146000E0491E546804F0A9
:103D70000304012C01D00029F7D1546804F0030496
:103D8000012C01D0002032E0012030E0012B13D1C2
:103D9000146824F00304146000E0491E546804F021
:103DA00003040CB10029F8D1546804F003040CB1E9
:103DB00000201CE001201AE0022B17D1146824F027
:103DC000010444F00204146000E0491E546804F049
:103DD0000304022C01D00029F7D1546804F0030435
:103DE000022C01D0002002E0012000E0002010BDE4
:103DF000014600200A6822F0010242F002020A6035
:103E00004A6802F00302022A00D1012070470146ED
:103E10004FF6FF7200200B6823F002030B6000E0F6
:103E2000521E4B6803F00203022B01D1002AF7D186
:103E30004B6803F00203022B00D0012070470146BB
:103E400000208A6902F070007047014600208A69EC
:103E5000100E7047014600208A69C2F30740704780
:103E60001AB143690B43436102E043698B434361E9
:103E7000704710B50246002001F4700343B1936906
:103E8000C1F3130423400BB101202DE000202BE0EF
:103E900001F0807343B15368C1F3130423400BB1A5
:103EA000012021E000201FE001F0006343B193688E
:103EB000C1F3130423400BB1012015E0002013E0EF
:103EC00001F0007343B1D368C1F3130423400BB175
:103ED000012009E0002007E01369C1F31304234027
:103EE0000BB1012000E0002010BD0022244B9942BC
:103EF00002D10023836111E0C1F3130201F00073CA
:103F00000BB1C2600AE001F080630BB1026105E011
:103F100001F000630BB1826000E04260704702462E
:103F2000002002EA01030BB1012000E000207047ED
:103F300070B504460D46002660692840002872D0FE
:103F4000B5F5807F69D01DDC082D42D006DC012D3F
:103F50002DD0022D31D0042D7FD134E0102D3ED054
:103F6000202D42D0402D78D145E000000300000410
:103F70000003000800000310000100080001FFF723
:103F80007000F030B5F5004F61D009DCB5F5007F69
:103F90004AD0B5F5806F4DD0B5F5006F5DD150E0DA
:103FA000B5F5803F2DD0B5F5003F56D12FE0A06884
:103FB0005549FFF7B4FF064651E0E0680321FFF7DB
:103FC000AEFF06464BE0E0680821FFF7A8FF064673
:103FD00045E0E0681021FFF7A2FF06463FE02069B8
:103FE0000321FFF79CFF064639E020690821FFF70F
:103FF00096FF064633E020691021FFF790FF064642
:104000002DE060680821FFF78AFF064627E0606818
:104010001021FFF784FF064621E0A0690121FFF788
:104020007EFF06461BE01BE0A0690221FFF777FF39
:10403000064614E0A0690421FFF771FF06460EE072
:104040000BE0A0697021FFF76AFF064607E0606891
:104050000421FFF764FF064601E0002600BF00E0F0
:104060000026304670BDB1F5007F3AD00FDC202924
:1040700028D006DC01291CD004291DD0082940D1F4
:104080001DE0402921D0B1F5807F3AD126E0B1F57D
:10409000004F31D006DCB1F5806F25D0B1F5006F4F
:1040A0002FD124E0B1F5803F12D0B1F5003F28D1E7
:1040B00011E0154A826025E00822C26022E0102249
:1040C000C2601FE0082202611CE01022026119E0B8
:1040D0000822426016E01022426013E0042242608F
:1040E00010E0042242600DE0042242600AE0002257
:1040F00082610422426005E0002282610422426063
:1041000000E000BF00BF70470101010010B5044688
:10411000FE48844208D10121C014FFF78DF8002128
:10412000E014FFF789F8C4E0B4F1804F08D1012111
:104130000846FFF78EF800210120FFF78AF8B8E063
:10414000F348844208D101210220FFF782F80021C0
:104150000220FFF77EF8ACE0EE48844208D101214E
:104160000420FFF776F800210420FFF772F8A0E0A2
:10417000E948844208D101210820FFF76AF80021AC
:104180000820FFF766F894E0E448844208D1012152
:104190001020FFF75EF800211020FFF75AF888E0A2
:1041A000DF48844208D101212020FFF752F8002186
:1041B0002020FFF74EF87CE0DA48844208D1012144
:1041C0004014FFF739F800216014FFF735F870E06C
:1041D000D548844209D10121C804FFF72DF80021F8
:1041E0004FF40020FFF728F863E0D048844209D15B
:1041F00001210805FFF720F800214FF48010FFF798
:104200001BF856E0CA48844209D101214805FFF74E
:1042100013F800214FF40010FFF70EF849E0C548ED
:10422000844208D101214020FFF713F800214020EB
:10423000FFF70FF83DE0C048844208D101218020FB
:10424000FFF707F800218020FFF703F831E0BB48B3
:10425000844208D101218015FEF7FBFF0021A01543
:10426000FEF7F7FF25E0B648844209D10121080492
:10427000FEF7E2FF00214FF48030FEF7DDFF18E08B
:10428000B048844209D101214804FEF7D5FF00213E
:104290004FF40030FEF7D0FF0BE0AB48844208D16A
:1042A00001218804FEF7C8FF00214FF48020FEF7AB
:1042B000C3FF10BD00220288944B98420ED0994B48
:1042C00098420BD0B0F1804F08D0914B984205D066
:1042D000904B984202D0904B984204D14FF68F7386
:1042E0001A404B881A438D4B984207D08C4B98420A
:1042F00004D04FF6FF431A40CB881A4302808B88C4
:1043000083850B880385814B98420BD0854B98425F
:1043100008D08B4B984205D08A4B984202D08A4BEA
:10432000984201D10B7A038601238382704770B5CE
:10433000002400220023058C4FF6FE7635400584CC
:10434000028C8388048B4FF68F752C40B51E2C4051
:104350000D882C43751E2A400D892A434D882A4317
:104360006A4DA8420BD06F4DA84208D0744DA842A8
:1043700005D0744DA84202D0734DA84213D14FF618
:10438000F7752A404D892A434FF6FB752A408D88E0
:104390002A434FF6FF652B404FF6FF552B408D8982
:1043A0002B43CD892B4383800483CD88858602846B
:1043B00070BD70B5002400220023058C4FF6EF7607
:1043C00035400584028C8388048B48F6FF752C40A9
:1043D0004FF6FF452C400D884FF6FF7606EA05257F
:1043E0002C434FF6DF752A400D8906EA05152A434E
:1043F0004D8806EA05152A43444DA84202D0494D8E
:10440000A8421DD14FF67F752A404D894FF6FF76A1
:1044100006EA05152A434FF6BF752A408D8806EA3D
:1044200005152A434FF6FF352B404FF2FF752B4001
:104430008D8906EA85052B43CD8906EA85052B4340
:1044400083800483CD880587028470BD70B5002405
:1044500000220023058C4FF6FF6635400584028C50
:104460008388848B4FF68F752C404FF6FC752C405B
:104470000D882C434FF6FF552A400D894FF6FF76E5
:1044800006EA05252A434D8806EA05252A431F4DDD
:10449000A84202D0234DA8421DD14FF2FF752A40F9
:1044A0004D894FF6FF7606EA05252A434FF6FF357C
:1044B0002A408D8806EA05252A434EF6FF752B40D3
:1044C0004DF6FF752B408D8906EA05152B43CD89E6
:1044D00006EA05152B4383808483CD888587028473
:1044E00070BD70B5002200230024058C4EF6FF76C7
:1044F00035400584038C8488828B48F6FF752A40FA
:104500004FF6FF452A400D8820E00000002C0140B6
:104510000004004000080040000C00400010004073
:104520000014004000340140004C014000500140A4
:104530000054014000180040001C004000200040D2
:104540000040014000440140004801404FF6FF7622
:1045500006EA05252A434DF6FF752B400D8906EA2C
:1045600005352B434D8806EA05352B43FA4DA84205
:1045700002D0FA4DA84208D14BF6FF752C408D8928
:104580004FF6FF7606EA85152C4384808283CD881A
:10459000A0F84050038470BD828B4FF2FF331A4065
:1045A0008283828B4FF6FF7303EA01231A438283CF
:1045B0007047F0B50C461546002200210026078CF6
:1045C0004EF6FF7C07EA0C070784828B018C4FF6BE
:1045D000FF7707EA043640F6FF473A404FF6FF7789
:1045E00007EA05273A434FF6FF7707EA03373A43CE
:1045F000D94FB8420ED0D94FB8420BD0B0F1804F4E
:1046000008D0D74FB84205D0D64FB84202D0D64FC7
:10461000B84206D14DF6FF77394046F4805739430A
:1046200005E047F6FF57394044F480573943828309
:104630000184F0BD828B4FF6F3731A408283828B24
:104640000A4382837047F0B50C46154600220021CC
:104650000026078C4FF6FF6C07EA0C070784828B55
:10466000018C4FF6FF7707EA04264FF60C773A40A5
:104670004FF6FF7707EA03172F433A43B64FB84286
:104680000ED0B64FB8420BD0B0F1804F08D0B44F27
:10469000B84205D0B34FB84202D0B34FB84206D1AA
:1046A0004FF6FF57394046F48077394305E04FF223
:1046B000FF57394044F48077394382830184F0BD49
:1046C000028B4FF2FF331A400283028B4FF6FF73C7
:1046D00003EA01231A4302837047F0B50C461546DE
:1046E000002200210026078C4FF6EF7C07EA0C071A
:1046F0000784028B018C4FF6FF7707EA041640F619
:10470000FF473A404FF6FF7707EA03373A434FF641
:10471000FF7707EA05273A438F4FB8420ED08F4FF5
:10472000B8420BD0B0F1804F08D08D4FB84205D0C1
:104730008C4FB84202D08C4FB84206D14FF6DF778B
:10474000394046F01007394305E04FF65F773940AE
:1047500044F01007394302830184F0BD028B4FF609
:10476000F3731A400283028B0A4302837047F0B549
:104770000C46154600220021068C4FF6FE773E407F
:104780000684028B018C4FF60C7632407E1C06EAC2
:1047900003162E433243704EB0420ED06F4EB042DD
:1047A0000BD0B0F1804F08D06D4EB04205D06D4EA9
:1047B000B04202D06C4EB04206D14FF6FD76314089
:1047C00044F00106314305E04FF6F576314044F000
:1047D0000106314302830184F0BD70B505460C46E5
:1047E0005D4885420ED05D4885420BD0B5F1804FC3
:1047F00008D05B48854205D05A48854202D05A48C5
:10480000854200D100E000BF208850B92389A288EA
:1048100061882846FFF7ABFFE1882846FFF79EFF37
:1048200025E0208804280AD12389A28861882846A7
:10483000FFF753FFE1882846FFF742FF17E0208883
:1048400008280AD12389A28861882846FFF7FBFE41
:10485000E1882846FFF7EEFE09E02389A2886188F7
:104860002846FFF7A6FEE1882846FFF795FE70BDB3
:104870002DE9F04105460C4600260127608808B95D
:10488000022600E00026A088012801D1022700E0CE
:1048900001272088A0B92389A28861882846FFF7CC
:1048A00066FFE1882846FFF759FF23893A463146DB
:1048B0002846FFF712FFE1882846FFF701FF13E0C3
:1048C0002389A28861882846FFF707FFE1882846E8
:1048D000FFF7F6FE23893A4631462846FFF747FFA1
:1048E000E1882846FFF73AFFBDE8F0810A884B8847
:1048F0001A438B881A43CB881A430B891A434B8976
:104900001A438B891A43A0F8442070474FF6FF7171
:10491000818000210180C1804180017270470021A7
:10492000018041808180C180018141818181C1817B
:104930007047002101804180012181800021C180D8
:10494000018170470021018041808180C180018107
:104950004181818170470000002C014000340140FA
:104960000004004000080040000C004021B1028813
:1049700042F00102028004E002884FF6FE731A4002
:104980000280704731B1B0F8442042F40042A0F8F0
:10499000442005E0B0F84420C2F30E02A0F8442001
:1049A00070471AB183890B43838102E083898B436B
:1049B000838170478182704741EA0203A0F8483042
:1049C00070471AB183890B43838102E083898B434B
:1049D0008381704701894FF6F87211400181704759
:1049E0000A46002101894FF68F7319401143018156
:1049F000704730B504460D4629462046FFF7F0FFC4
:104A0000208940F00700208130BD2DE9F0410446A7
:104A10000D4616461F46602D06D13B460122314603
:104A20002046FFF75AFE05E03B460122314620466C
:104A3000FFF79DFE29462046FFF7D2FF208940F070
:104A400007002081BDE8F08130B50C4600210189C6
:104A5000C9B24FF6FF7505EA0325154325432943DF
:104A6000018130BD2DE9F04105460E4617469846B6
:104A7000002443463A4631462846FFF7E5FF2C8995
:104A80004FF6F870044044F007044FF68F7004406E
:104A900044F070042C81BDE8F081F0B504460D4669
:104AA00016461F463B46324629462046FFF7CCFFB6
:104AB000208940F480402081F0BD018582827047CA
:104AC0000A46002101884FF68F7319401143018077
:104AD0007047F0B50C4615461E4600210022002303
:104AE0000189028B038C4FF6F877394021434FF64A
:104AF000FC473A4040F201173A434FF6DD773B401E
:104B00004FF6FF7707EA06172F433B4301810283E5
:104B10000384F0BD0A460021018B4FF68F731940C4
:104B20001143018370470A460021018B48F6FF7349
:104B300019404FF6FF7303EA0223194301837047BC
:104B40000A460021818B4FF68F73194011438183F0
:104B500070470A460021818B48F6FF7319404FF6D3
:104B6000FF7303EA022319438183704721B102884E
:104B700042F08002028004E002884FF67F731A4000
:104B80000280704721B1828842F00402828004E0F2
:104B900082884FF6FB731A408280704721B1828869
:104BA00042F00802828004E082884FF6F7731A40D0
:104BB0008280704721B1828842F00102828004E045
:104BC00082884FF6FE731A40828070470A460021A1
:104BD000018B4FF6F77319401143018370470A4662
:104BE0000021018B4FF2FF7319404FF6FF7303EA68
:104BF00002231943018370470A460021818B4FF637
:104C0000F77319401143818370470A460021818B55
:104C10004FF2FF7319404FF6FF7303EA0223194363
:104C2000818370470A460021018B4FF6FB731940C0
:104C30001143018370470A460021018B4FF6FF3371
:104C400019404FF6FF7303EA0223194301837047AB
:104C50000A460021818B4FF6FB7319401143818373
:104C600070470A460021818B4FF6FF3319404FF6FB
:104C7000FF7303EA02231943818370470A46002128
:104C8000018B4FF67F7319401143018370470A4629
:104C90000021018BC1F30E014FF6FF7303EA0223DB
:104CA0001943018370470A460021818B4FF67F73B9
:104CB00019401143818370470A460021818BC1F35B
:104CC0000E014FF6FF7303EA0223194381837047F5
:104CD0000A460021018C4FF6FD73194011430184EF
:104CE00070470A460021018C4FF6F77319401143B3
:104CF000018470470A460021018C4FF6DF7319408A
:104D00004FF6FF7303EA02131943018470470A4602
:104D10000021018C4FF67F7319404FF6FF7303EAB1
:104D200002131943018470470A460021018C4FF693
:104D3000FF5319404FF6FF7303EA0223194301841E
:104D400070470A460021018C4FF2FF7319404FF65D
:104D5000FF7303EA02231943018470470A460021C6
:104D6000018C4DF6FF7319404FF6FF7303EA0233CF
:104D700019430184704730B5002301248C40A3B24D
:104D8000048C9C430484048C02FA01F5ADB22C43DC
:104D9000048430BD30B5002304248C40A3B2048CBD
:104DA0009C430484048C02FA01F5ADB22C430484C4
:104DB00030BD70B503460020002418461830012588
:104DC0008D40ACB21D8CA5431D8409B1082909D1C1
:104DD00000EB6100056825F0700505600568154366
:104DE00005600EE00D1FC5F34E052844056825F447
:104DF000E045056005684FF6FF7606EA0226354372
:104E0000056070BD21B1028842F00202028004E018
:104E100002884FF6FD731A400280704721B1028864
:104E200042F00402028004E002884FF6FB731A404D
:104E30000280704721B1828842F08002828004E0C3
:104E400082884FF67F731A408280704702884FF63F
:104E5000F7731A40028002880A43028070478288F2
:104E60004FF68F731A40828082880A43828070478F
:104E700002894FF6F8731A40028102890A430281BF
:104E8000704702894FF67F731A40028102890A43F4
:104E900002817047818470478185704781867047A1
:104EA0000187704781877047A0F8401070470288DB
:104EB0004FF6FF431A40028002880A43028070477F
:104EC0000146888E70470146088F70470146888FDB
:104ED00070470146B1F8400070470146888C704722
:104EE0000146088D704702460020138A0B400BB123
:104EF000012000E000207047CA430282704730B5AD
:104F00000246002000230024158A05EA0103958942
:104F100005EA010413B10CB1012000E0002030BD0E
:104F2000CA4302827047000001460020FE4A106812
:104F300000F03800084310607047FB49096821F011
:104F40000801F94A11601146096801431160704770
:104F5000F549096821F01001F34A1160114609680A
:104F6000014311607047F148EF494860F0484860DC
:104F70007047EE48EC494860ED4848607047EA48A1
:104F8000006940F08000E84908617047E648006920
:104F900040F08000E449086170470420E249C96894
:104FA00001F0010109B101200EE0DF49C96801F0FB
:104FB000040109B1022007E0DB49C96801F01001D2
:104FC00009B1032000E00420704700B50246042325
:104FD000FFF7E3FF034603E0FFF7DFFF0346521E40
:104FE000012B01D1002AF7D102B90523184600BDD3
:104FF00030B5044604254FF43020FFF7E6FF0546A0
:10500000042D17D1C848006940F00200C649086164
:1050100008464461006940F0400008614FF43020C8
:10502000FFF7D3FF0546C048006941F6FD7108400F
:10503000BD490861284630BD10B504244FF4302026
:10504000FFF7C3FF0446042C16D1B748006940F0AF
:105050000400B54908610846006940F04000086155
:105060004FF43020FFF7B1FF0446AF48006941F626
:10507000FB710840AC490861204610BD00B50246EE
:105080000423FFF78AFF034603E0FFF786FF03468A
:10509000521E012B01D1002AF7D102B9052318466F
:1050A00000BD10B504244FF43020FFF7E7FF04469D
:1050B000042C16D19C48006940F004009A4908610C
:1050C0000846006940F0400008614FF43020FFF7C7
:1050D000D5FF04469448006941F6FB7108409249A7
:1050E0000861204610BD00208F49C96901F0020106
:1050F00009B1012000E00020704730B5A525042447
:10510000FFF7F1FF00B100254FF43020FFF75DFFFE
:105110000446042C3AD185488349886084488860D5
:105120000846006940F0200008610846006940F028
:10513000400008614FF43020FFF747FF0446042C7D
:105140001BD17948006941F6DF7108407649086152
:105150000846006940F01000086176480580E002CA
:10516000FFF733FF0446052C10D06F48006941F665
:10517000EF7108406C49086108E0052C06D06A48C8
:10518000006941F6EF71084067490861204630BD6B
:1051900078B506460C46042500200090E802FFF78B
:1051A00014FF0546042D24D15F48006940F001003A
:1051B0005D4908613480E802FFF707FF0546042DCA
:1051C00010D1B01C0090200C00990880E802FFF775
:1051D000FCFE05465448006941F6FE7108405249FC
:1051E000086106E05048006941F6FE7108404E49EA
:1051F0000861284678BD70B504460D460426F002C5
:10520000FFF7E3FE0646042E11D14748006940F03F
:105210000100454908612580F002FFF7D6FE0646E9
:105220004148006941F6FE7108403F490861304637
:1052300070BD70B505460E460424E002FFF7C5FEBA
:105240000446042C17D139483749886038488860AB
:105250000846006940F0100008612E80E002FFF768
:10526000B4FE0446052C06D02F48006941F6EF71C4
:1052700008402D490861204670BD2DE9F0430446E1
:105280004FF6FF763746B046B1460425E443E6B212
:10529000C4F30727C4F307484FEA1469E802FFF78D
:1052A00094FE0546042D49D120481F4988602048B6
:1052B00088600846006940F010000861FF2E06D0A3
:1052C0001C4808300680E802FFF77FFE0546042DE3
:1052D00008D1FF2F06D017480A300780E802FFF7F1
:1052E00074FE0546042D0AD1B8F1FF0F07D011480E
:1052F0000C30A0F80080E802FFF767FE0546042D99
:105300000AD1B9F1FF0F07D00A480E30A0F800907B
:10531000E802FFF75AFE0546052D0FD00248006946
:1053200041F6EF71084007E0002002402301674585
:10533000AB89EFCD00F8FF1F664908612846BDE83C
:10534000F08330B5054604244FF43020FFF73DFECE
:105350000446042C41D160485E4988605F488860FB
:105360000846006940F0200008610846006940F0E6
:10537000400008614FF43020FFF727FE0446042C5C
:1053800022D15448006941F6DF7108405149086153
:105390000846006940F0100008611DB10020504926
:1053A000088002E0A5204E4908804FF43020FFF726
:1053B0000CFE0446052C10D04648006941F6EF71FA
:1053C00008404449086108E0052C06D041480069BE
:1053D00041F6DF7108403F490861204630BDF0B515
:1053E00005460E46174604243B483A4988603B4828
:1053F0008860E002FFF7E9FD0446042C19D1354826
:10540000006940F010003349086147F0F80030436C
:1054100028433349891C0880E002FFF7D6FD044683
:10542000052C06D02B48006941F6EF710840294948
:1054300008612046F0BD2748C069800870472548AC
:10544000006A704700202349096801F0200109B172
:10545000012000E00020704729B11E4A1269024372
:105460001C4B1A6104E01B4A12698243194B1A61F2
:10547000704701460020012908D1164AD26902F07E
:1054800001020AB1012008E0002006E0114AD268BA
:105490000A400AB1012000E0002070470D49C860B1
:1054A000704704200B49C96801F0010109B10120CE
:1054B0000EE00849C96801F0040109B1022007E0C3
:1054C0000449C96801F0100109B1032000E004207B
:1054D000704700000020024023016745AB89EFCDF3
:1054E00000F8FF1F002044490860091D0860091DDD
:1054F0000860091D086041483F4914310860704741
:1055000000213D498279002A3AD00A461268036890
:105510009A430B461A600A1D126803689A430B1DD2
:105520001A60027911440A6803681A430A60324A11
:105530000832126803689A432F4B08331A601A1D09
:10554000126803689A432C4B0C331A604279102A74
:105550000ED11A1F126803681A43274B08331A60CA
:105560001A1D126803681A43234B0C331A600DE0AE
:105570002149427911440A6803681A430A6005E028
:10558000027911440A6803689A430A60704700214F
:10559000016001710C214171002181717047164930
:1055A000103109680143144A1032116070470146F6
:1055B0000020114A143212680A400AB1012000E0AA
:1055C000002070470C4914310860704701460020E4
:1055D0000022094B1B6803EA0102074B14331B68C6
:1055E0000B4013B10AB1012000E0002070470249CE
:1055F000143108607047000000040140FFFF0F00F5
:105600000CB50020019000906C48006840F4803098
:105610006A49086000BF6948006800F400300090E3
:105620000198401C0190009818B90198B0F5A06F3E
:10563000F1D16248006800F4003010B10120009000
:1056400001E0002000900098012843D15C480068E8
:1056500040F010005A4908600846006820F0030036
:1056600008600846006840F002000860534840683F
:10567000524948600846406848600846406840F41F
:10568000806048600846406820F47C104860084606
:10569000406840F4E81048600846006840F08070B8
:1056A000086000BF4548006800F000700028F9D08D
:1056B0004248406820F0030040494860084640687E
:1056C00040F00200486000BF3C48406800F00C0019
:1056D0000828F9D10CBD10B5FFF792FF10BD10B529
:1056E0003648006840F001003449086008464068C8
:1056F000344908403149486008460068324908404A
:105700002E4908600846006820F48020086008469A
:10571000406820F4FE0048604FF41F008860FFF7E7
:10572000DAFF4FF000602949086010BD10B5002174
:1057300000200022214B5B6803F00C0121B10429F9
:1057400006D0082928D107E0214B224C236027E00E
:105750001F4B204C236023E0184B5B6803F4701050
:10576000164B5B6803F48032022303EB904022B9AE
:10577000194B4343174C23600DE0104B5B6803F457
:10578000003323B1144B4343124C236003E0104B0E
:105790004343104C236003E00D4B0E4C236000BFCD
:1057A00000BF064B5B68C3F303130C4CE15C094B71
:1057B0001B68CB40074C236010BD00000010024066
:1057C000002002400000FFF8FFFFF6FE08ED00E0B9
:1057D00000127A009000002000093D009400002093
:1057E0004FF0000200B5134694469646203922BF7A
:1057F000A0E80C50A0E80C50B1F12001BFF4F7AFC5
:10580000090728BFA0E80C5048BF0CC05DF804EBA6
:10581000890028BF40F8042B08BF704748BF20F814
:10582000022B11F0804F18BF00F8012B7047704712
:1058300070477047754600F02BF8AE460500694684
:10584000534620F00700854618B020B5FAF7AAFCA9
:10585000BDE820404FF000064FF000074FF0000871
:105860004FF0000B21F00701AC46ACE8C009ACE8F2
:10587000C009ACE8C009ACE8C0098D46704710B556
:105880000446AFF300802046BDE81040FAF775BC2F
:10589000004870475027002001491820ABBEFEE7A2
:1058A0002600020070470000C858000800000020D1
:1058B000A4000000280100086C590008A400002082
:1058C0000C2D000044010008000000000000000052
:1058D00000000000000000000000000000000000C8
:1058E00000000000000000000000000000000000B8
:1058F00000000000000000000000000000000000A8
:105900000000000000000000000000000000000097
:10591000000000000000000000000C01000000007A
:105920000000000000000000000000000000000077
:105930000000000000000000000000000000010066
:105940000000000000000000010203040102030443
:10595000060708090204060800A24A040000000025
:0C59600000000000010203040607080913
:040000050800018965
:00000001FF
